{
  "contractName": "BitToken",
  "abi": [
    {
      "inputs": [
        {
          "internalType": "string",
          "name": "name",
          "type": "string"
        },
        {
          "internalType": "string",
          "name": "symbol",
          "type": "string"
        },
        {
          "internalType": "address",
          "name": "_utility",
          "type": "address"
        },
        {
          "internalType": "bool",
          "name": "_utilityActive",
          "type": "bool"
        },
        {
          "internalType": "uint256",
          "name": "_buyFee",
          "type": "uint256"
        },
        {
          "internalType": "uint256",
          "name": "_sellFee",
          "type": "uint256"
        }
      ],
      "stateMutability": "payable",
      "type": "constructor"
    },
    {
      "anonymous": false,
      "inputs": [
        {
          "indexed": true,
          "internalType": "address",
          "name": "owner",
          "type": "address"
        },
        {
          "indexed": true,
          "internalType": "address",
          "name": "spender",
          "type": "address"
        },
        {
          "indexed": false,
          "internalType": "uint256",
          "name": "value",
          "type": "uint256"
        }
      ],
      "name": "Approval",
      "type": "event"
    },
    {
      "anonymous": false,
      "inputs": [
        {
          "indexed": true,
          "internalType": "address",
          "name": "previousOwner",
          "type": "address"
        },
        {
          "indexed": true,
          "internalType": "address",
          "name": "newOwner",
          "type": "address"
        }
      ],
      "name": "OwnershipTransferred",
      "type": "event"
    },
    {
      "anonymous": false,
      "inputs": [
        {
          "indexed": true,
          "internalType": "address",
          "name": "from",
          "type": "address"
        },
        {
          "indexed": true,
          "internalType": "address",
          "name": "to",
          "type": "address"
        },
        {
          "indexed": false,
          "internalType": "uint256",
          "name": "value",
          "type": "uint256"
        }
      ],
      "name": "Transfer",
      "type": "event"
    },
    {
      "inputs": [
        {
          "internalType": "address",
          "name": "owner",
          "type": "address"
        },
        {
          "internalType": "address",
          "name": "spender",
          "type": "address"
        }
      ],
      "name": "allowance",
      "outputs": [
        {
          "internalType": "uint256",
          "name": "",
          "type": "uint256"
        }
      ],
      "stateMutability": "view",
      "type": "function"
    },
    {
      "inputs": [
        {
          "internalType": "address",
          "name": "spender",
          "type": "address"
        },
        {
          "internalType": "uint256",
          "name": "amount",
          "type": "uint256"
        }
      ],
      "name": "approve",
      "outputs": [
        {
          "internalType": "bool",
          "name": "",
          "type": "bool"
        }
      ],
      "stateMutability": "nonpayable",
      "type": "function"
    },
    {
      "inputs": [
        {
          "internalType": "address",
          "name": "account",
          "type": "address"
        }
      ],
      "name": "balanceOf",
      "outputs": [
        {
          "internalType": "uint256",
          "name": "",
          "type": "uint256"
        }
      ],
      "stateMutability": "view",
      "type": "function"
    },
    {
      "inputs": [],
      "name": "buyFee",
      "outputs": [
        {
          "internalType": "uint256",
          "name": "",
          "type": "uint256"
        }
      ],
      "stateMutability": "view",
      "type": "function"
    },
    {
      "inputs": [],
      "name": "buyStatus",
      "outputs": [
        {
          "internalType": "bool",
          "name": "",
          "type": "bool"
        }
      ],
      "stateMutability": "view",
      "type": "function"
    },
    {
      "inputs": [],
      "name": "decimals",
      "outputs": [
        {
          "internalType": "uint8",
          "name": "",
          "type": "uint8"
        }
      ],
      "stateMutability": "view",
      "type": "function"
    },
    {
      "inputs": [
        {
          "internalType": "address",
          "name": "spender",
          "type": "address"
        },
        {
          "internalType": "uint256",
          "name": "subtractedValue",
          "type": "uint256"
        }
      ],
      "name": "decreaseAllowance",
      "outputs": [
        {
          "internalType": "bool",
          "name": "",
          "type": "bool"
        }
      ],
      "stateMutability": "nonpayable",
      "type": "function"
    },
    {
      "inputs": [],
      "name": "feesDisabled",
      "outputs": [
        {
          "internalType": "bool",
          "name": "",
          "type": "bool"
        }
      ],
      "stateMutability": "view",
      "type": "function"
    },
    {
      "inputs": [
        {
          "internalType": "address",
          "name": "spender",
          "type": "address"
        },
        {
          "internalType": "uint256",
          "name": "addedValue",
          "type": "uint256"
        }
      ],
      "name": "increaseAllowance",
      "outputs": [
        {
          "internalType": "bool",
          "name": "",
          "type": "bool"
        }
      ],
      "stateMutability": "nonpayable",
      "type": "function"
    },
    {
      "inputs": [
        {
          "internalType": "address",
          "name": "",
          "type": "address"
        }
      ],
      "name": "isBlackListed",
      "outputs": [
        {
          "internalType": "bool",
          "name": "",
          "type": "bool"
        }
      ],
      "stateMutability": "view",
      "type": "function"
    },
    {
      "inputs": [],
      "name": "maxTransactionAmountOnPurchase",
      "outputs": [
        {
          "internalType": "uint256",
          "name": "",
          "type": "uint256"
        }
      ],
      "stateMutability": "view",
      "type": "function"
    },
    {
      "inputs": [],
      "name": "maxTransactionAmountOnSale",
      "outputs": [
        {
          "internalType": "uint256",
          "name": "",
          "type": "uint256"
        }
      ],
      "stateMutability": "view",
      "type": "function"
    },
    {
      "inputs": [],
      "name": "maxWallet",
      "outputs": [
        {
          "internalType": "uint256",
          "name": "",
          "type": "uint256"
        }
      ],
      "stateMutability": "view",
      "type": "function"
    },
    {
      "inputs": [],
      "name": "name",
      "outputs": [
        {
          "internalType": "string",
          "name": "",
          "type": "string"
        }
      ],
      "stateMutability": "view",
      "type": "function"
    },
    {
      "inputs": [],
      "name": "owner",
      "outputs": [
        {
          "internalType": "address",
          "name": "",
          "type": "address"
        }
      ],
      "stateMutability": "view",
      "type": "function"
    },
    {
      "inputs": [],
      "name": "renounceOwnership",
      "outputs": [],
      "stateMutability": "nonpayable",
      "type": "function"
    },
    {
      "inputs": [],
      "name": "sellFee",
      "outputs": [
        {
          "internalType": "uint256",
          "name": "",
          "type": "uint256"
        }
      ],
      "stateMutability": "view",
      "type": "function"
    },
    {
      "inputs": [],
      "name": "sellStatus",
      "outputs": [
        {
          "internalType": "bool",
          "name": "",
          "type": "bool"
        }
      ],
      "stateMutability": "view",
      "type": "function"
    },
    {
      "inputs": [],
      "name": "symbol",
      "outputs": [
        {
          "internalType": "string",
          "name": "",
          "type": "string"
        }
      ],
      "stateMutability": "view",
      "type": "function"
    },
    {
      "inputs": [],
      "name": "totalFees",
      "outputs": [
        {
          "internalType": "uint256",
          "name": "",
          "type": "uint256"
        }
      ],
      "stateMutability": "view",
      "type": "function"
    },
    {
      "inputs": [],
      "name": "totalSupply",
      "outputs": [
        {
          "internalType": "uint256",
          "name": "",
          "type": "uint256"
        }
      ],
      "stateMutability": "view",
      "type": "function"
    },
    {
      "inputs": [],
      "name": "tradingLive",
      "outputs": [
        {
          "internalType": "bool",
          "name": "",
          "type": "bool"
        }
      ],
      "stateMutability": "view",
      "type": "function"
    },
    {
      "inputs": [
        {
          "internalType": "address",
          "name": "to",
          "type": "address"
        },
        {
          "internalType": "uint256",
          "name": "amount",
          "type": "uint256"
        }
      ],
      "name": "transfer",
      "outputs": [
        {
          "internalType": "bool",
          "name": "",
          "type": "bool"
        }
      ],
      "stateMutability": "nonpayable",
      "type": "function"
    },
    {
      "inputs": [
        {
          "internalType": "address",
          "name": "from",
          "type": "address"
        },
        {
          "internalType": "address",
          "name": "to",
          "type": "address"
        },
        {
          "internalType": "uint256",
          "name": "amount",
          "type": "uint256"
        }
      ],
      "name": "transferFrom",
      "outputs": [
        {
          "internalType": "bool",
          "name": "",
          "type": "bool"
        }
      ],
      "stateMutability": "nonpayable",
      "type": "function"
    },
    {
      "inputs": [
        {
          "internalType": "address",
          "name": "newOwner",
          "type": "address"
        }
      ],
      "name": "transferOwnership",
      "outputs": [],
      "stateMutability": "nonpayable",
      "type": "function"
    },
    {
      "inputs": [],
      "name": "utility",
      "outputs": [
        {
          "internalType": "address",
          "name": "",
          "type": "address"
        }
      ],
      "stateMutability": "view",
      "type": "function"
    },
    {
      "stateMutability": "payable",
      "type": "receive"
    },
    {
      "inputs": [
        {
          "internalType": "uint256",
          "name": "_percent",
          "type": "uint256"
        }
      ],
      "name": "addSwapTreshold",
      "outputs": [],
      "stateMutability": "nonpayable",
      "type": "function"
    },
    {
      "inputs": [
        {
          "internalType": "address",
          "name": "_utility",
          "type": "address"
        },
        {
          "internalType": "bool",
          "name": "active",
          "type": "bool"
        }
      ],
      "name": "addUtility",
      "outputs": [],
      "stateMutability": "nonpayable",
      "type": "function"
    },
    {
      "inputs": [
        {
          "internalType": "address",
          "name": "fundingWallet",
          "type": "address"
        },
        {
          "internalType": "address",
          "name": "resevoirWallet",
          "type": "address"
        },
        {
          "internalType": "address",
          "name": "marketingWallet",
          "type": "address"
        },
        {
          "internalType": "address",
          "name": "LPAddress",
          "type": "address"
        }
      ],
      "name": "setTaxWallets",
      "outputs": [],
      "stateMutability": "nonpayable",
      "type": "function"
    },
    {
      "inputs": [],
      "name": "addInitialLP",
      "outputs": [],
      "stateMutability": "nonpayable",
      "type": "function"
    },
    {
      "inputs": [
        {
          "internalType": "address",
          "name": "_evilUser",
          "type": "address"
        }
      ],
      "name": "addBlackList",
      "outputs": [],
      "stateMutability": "nonpayable",
      "type": "function"
    },
    {
      "inputs": [
        {
          "internalType": "address",
          "name": "_clearedUser",
          "type": "address"
        }
      ],
      "name": "removeBlackList",
      "outputs": [],
      "stateMutability": "nonpayable",
      "type": "function"
    },
    {
      "inputs": [
        {
          "internalType": "address",
          "name": "_user",
          "type": "address"
        }
      ],
      "name": "getBlacklisted",
      "outputs": [
        {
          "internalType": "bool",
          "name": "",
          "type": "bool"
        }
      ],
      "stateMutability": "view",
      "type": "function"
    },
    {
      "inputs": [],
      "name": "enableTrading",
      "outputs": [],
      "stateMutability": "nonpayable",
      "type": "function"
    },
    {
      "inputs": [
        {
          "internalType": "address",
          "name": "account",
          "type": "address"
        },
        {
          "internalType": "bool",
          "name": "excluded",
          "type": "bool"
        }
      ],
      "name": "excludeFromFees",
      "outputs": [],
      "stateMutability": "nonpayable",
      "type": "function"
    },
    {
      "inputs": [
        {
          "internalType": "uint256",
          "name": "_buyFee",
          "type": "uint256"
        },
        {
          "internalType": "uint256",
          "name": "_sellFee",
          "type": "uint256"
        }
      ],
      "name": "updateTradingFees",
      "outputs": [],
      "stateMutability": "nonpayable",
      "type": "function"
    },
    {
      "inputs": [
        {
          "internalType": "uint256",
          "name": "fundingFee",
          "type": "uint256"
        },
        {
          "internalType": "uint256",
          "name": "liquidityFee",
          "type": "uint256"
        },
        {
          "internalType": "uint256",
          "name": "resevoirFee",
          "type": "uint256"
        },
        {
          "internalType": "uint256",
          "name": "marketingFee",
          "type": "uint256"
        },
        {
          "internalType": "uint256",
          "name": "utilityFees",
          "type": "uint256"
        }
      ],
      "name": "updateFees",
      "outputs": [],
      "stateMutability": "nonpayable",
      "type": "function"
    },
    {
      "inputs": [
        {
          "internalType": "uint256",
          "name": "buyLimit",
          "type": "uint256"
        },
        {
          "internalType": "uint256",
          "name": "sellLimit",
          "type": "uint256"
        },
        {
          "internalType": "uint256",
          "name": "_maxWallet",
          "type": "uint256"
        }
      ],
      "name": "updateLimits",
      "outputs": [],
      "stateMutability": "nonpayable",
      "type": "function"
    },
    {
      "inputs": [],
      "name": "removeLimits",
      "outputs": [],
      "stateMutability": "nonpayable",
      "type": "function"
    },
    {
      "inputs": [
        {
          "internalType": "bool",
          "name": "buy",
          "type": "bool"
        },
        {
          "internalType": "bool",
          "name": "sell",
          "type": "bool"
        }
      ],
      "name": "tradingStatus",
      "outputs": [],
      "stateMutability": "nonpayable",
      "type": "function"
    },
    {
      "inputs": [
        {
          "internalType": "bool",
          "name": "state",
          "type": "bool"
        }
      ],
      "name": "setFeeState",
      "outputs": [],
      "stateMutability": "nonpayable",
      "type": "function"
    },
    {
      "inputs": [
        {
          "internalType": "address",
          "name": "account",
          "type": "address"
        }
      ],
      "name": "isExcludedFromFees",
      "outputs": [
        {
          "internalType": "bool",
          "name": "",
          "type": "bool"
        }
      ],
      "stateMutability": "view",
      "type": "function"
    },
    {
      "inputs": [
        {
          "internalType": "uint256",
          "name": "tokenAmt",
          "type": "uint256"
        }
      ],
      "name": "getOptimalResult",
      "outputs": [
        {
          "internalType": "uint256[]",
          "name": "",
          "type": "uint256[]"
        }
      ],
      "stateMutability": "view",
      "type": "function"
    },
    {
      "inputs": [],
      "name": "swapBack",
      "outputs": [],
      "stateMutability": "nonpayable",
      "type": "function"
    },
    {
      "inputs": [
        {
          "internalType": "address",
          "name": "to",
          "type": "address"
        },
        {
          "internalType": "uint256",
          "name": "amountToTransfer",
          "type": "uint256"
        }
      ],
      "name": "burnSupply",
      "outputs": [],
      "stateMutability": "nonpayable",
      "type": "function"
    },
    {
      "inputs": [
        {
          "internalType": "address",
          "name": "to",
          "type": "address"
        },
        {
          "internalType": "uint256",
          "name": "amountToTransfer",
          "type": "uint256"
        }
      ],
      "name": "withdrawContractFunds",
      "outputs": [],
      "stateMutability": "nonpayable",
      "type": "function"
    },
    {
      "inputs": [],
      "name": "forceSwap",
      "outputs": [],
      "stateMutability": "nonpayable",
      "type": "function"
    }
  ],
  "bytecode": "0x6080604052620000146200078e60201b60201c565b600a62000022919062000df9565b60fa62000030919062000e49565b600d555f60115f6101000a81548160ff0219169083151502179055505f601160016101000a81548160ff0219169083151502179055505f601255600460135560046014556002601555600560165560125460165460155460145460135462000099919062000e93565b620000a5919062000e93565b620000b1919062000e93565b620000bd919062000e93565b601f5560405162006857380380620068578339818101604052810190620000e591906200111c565b85858160039081620000f8919062001420565b5080600490816200010a919062001420565b5050506200012d620001216200079660201b60201c565b6200079d60201b60201c565b5f737a250d5630b4cf539739df2c5dacb4c659f2488d90506200015785856200086060201b60201c565b620001698383620008ce60201b60201c565b600160215f8373ffffffffffffffffffffffffffffffffffffffff1673ffffffffffffffffffffffffffffffffffffffff1681526020019081526020015f205f6101000a81548160ff0219169083151502179055508060065f6101000a81548173ffffffffffffffffffffffffffffffffffffffff021916908373ffffffffffffffffffffffffffffffffffffffff1602179055505f69d3c21bcecceda100000090506001601e60016101000a81548160ff0219169083151502179055506001601e5f6101000a81548160ff0219169083151502179055503360095f6101000a81548173ffffffffffffffffffffffffffffffffffffffff021916908373ffffffffffffffffffffffffffffffffffffffff16021790555033600a5f6101000a81548173ffffffffffffffffffffffffffffffffffffffff021916908373ffffffffffffffffffffffffffffffffffffffff16021790555033600b5f6101000a81548173ffffffffffffffffffffffffffffffffffffffff021916908373ffffffffffffffffffffffffffffffffffffffff16021790555033600c5f6101000a81548173ffffffffffffffffffffffffffffffffffffffff021916908373ffffffffffffffffffffffffffffffffffffffff160217905550620003516200094560201b60201c565b6200037362000365620009cc60201b60201c565b6001620009f460201b60201c565b62000386306001620009f460201b60201c565b6200039b61dead6001620009f460201b60201c565b620003cf60095f9054906101000a900473ffffffffffffffffffffffffffffffffffffffff166001620009f460201b60201c565b62000403600a5f9054906101000a900473ffffffffffffffffffffffffffffffffffffffff166001620009f460201b60201c565b62000437600b5f9054906101000a900473ffffffffffffffffffffffffffffffffffffffff166001620009f460201b60201c565b6200046b600c5f9054906101000a900473ffffffffffffffffffffffffffffffffffffffff166001620009f460201b60201c565b600160215f62000480620009cc60201b60201c565b73ffffffffffffffffffffffffffffffffffffffff1673ffffffffffffffffffffffffffffffffffffffff1681526020019081526020015f205f6101000a81548160ff021916908315150217905550600160215f3073ffffffffffffffffffffffffffffffffffffffff1673ffffffffffffffffffffffffffffffffffffffff1681526020019081526020015f205f6101000a81548160ff021916908315150217905550600160215f61dead73ffffffffffffffffffffffffffffffffffffffff1673ffffffffffffffffffffffffffffffffffffffff1681526020019081526020015f205f6101000a81548160ff021916908315150217905550600160215f60095f9054906101000a900473ffffffffffffffffffffffffffffffffffffffff1673ffffffffffffffffffffffffffffffffffffffff1673ffffffffffffffffffffffffffffffffffffffff1681526020019081526020015f205f6101000a81548160ff021916908315150217905550600160215f600a5f9054906101000a900473ffffffffffffffffffffffffffffffffffffffff1673ffffffffffffffffffffffffffffffffffffffff1673ffffffffffffffffffffffffffffffffffffffff1681526020019081526020015f205f6101000a81548160ff021916908315150217905550600160215f600b5f9054906101000a900473ffffffffffffffffffffffffffffffffffffffff1673ffffffffffffffffffffffffffffffffffffffff1673ffffffffffffffffffffffffffffffffffffffff1681526020019081526020015f205f6101000a81548160ff021916908315150217905550600160215f600c5f9054906101000a900473ffffffffffffffffffffffffffffffffffffffff1673ffffffffffffffffffffffffffffffffffffffff1673ffffffffffffffffffffffffffffffffffffffff1681526020019081526020015f205f6101000a81548160ff02191690831515021790555062000765338262000a5c60201b60201c565b6001601160016101000a81548160ff02191690831515021790555050505050505050506200168a565b5f6012905090565b5f33905090565b5f60055f9054906101000a900473ffffffffffffffffffffffffffffffffffffffff1690508160055f6101000a81548173ffffffffffffffffffffffffffffffffffffffff021916908373ffffffffffffffffffffffffffffffffffffffff1602179055508173ffffffffffffffffffffffffffffffffffffffff168173ffffffffffffffffffffffffffffffffffffffff167f8be0079c531659141344cd1fd0a4f28419497f9722a3daafe3b4186f6b6457e060405160405180910390a35050565b6200087062000bcc60201b60201c565b8160085f6101000a81548173ffffffffffffffffffffffffffffffffffffffff021916908373ffffffffffffffffffffffffffffffffffffffff16021790555080601e60026101000a81548160ff0219169083151502179055505050565b620008de62000bcc60201b60201c565b600a8211158015620008f1575060648111155b62000933576040517f08c379a00000000000000000000000000000000000000000000000000000000081526004016200092a9062001562565b60405180910390fd5b81601c8190555080601d819055505050565b6200095562000bcc60201b60201c565b7fffffffffffffffffffffffffffffffffffffffffffffffffffffffffffffffff600e819055507fffffffffffffffffffffffffffffffffffffffffffffffffffffffffffffffff600f819055507fffffffffffffffffffffffffffffffffffffffffffffffffffffffffffffffff601081905550565b5f60055f9054906101000a900473ffffffffffffffffffffffffffffffffffffffff16905090565b62000a0462000bcc60201b60201c565b8060205f8473ffffffffffffffffffffffffffffffffffffffff1673ffffffffffffffffffffffffffffffffffffffff1681526020019081526020015f205f6101000a81548160ff0219169083151502179055505050565b5f73ffffffffffffffffffffffffffffffffffffffff168273ffffffffffffffffffffffffffffffffffffffff160362000acd576040517f08c379a000000000000000000000000000000000000000000000000000000000815260040162000ac490620015d0565b60405180910390fd5b62000ae05f838362000c5d60201b60201c565b8060025f82825462000af3919062000e93565b92505081905550805f808473ffffffffffffffffffffffffffffffffffffffff1673ffffffffffffffffffffffffffffffffffffffff1681526020019081526020015f205f82825462000b47919062000e93565b925050819055508173ffffffffffffffffffffffffffffffffffffffff165f73ffffffffffffffffffffffffffffffffffffffff167fddf252ad1be2c89b69c2b068fc378daa952ba7f163c4a11628f55a4df523b3ef8360405162000bad919062001601565b60405180910390a362000bc85f838362000c6260201b60201c565b5050565b62000bdc6200079660201b60201c565b73ffffffffffffffffffffffffffffffffffffffff1662000c02620009cc60201b60201c565b73ffffffffffffffffffffffffffffffffffffffff161462000c5b576040517f08c379a000000000000000000000000000000000000000000000000000000000815260040162000c52906200166a565b60405180910390fd5b565b505050565b505050565b7f4e487b71000000000000000000000000000000000000000000000000000000005f52601160045260245ffd5b5f8160011c9050919050565b5f808291508390505b600185111562000cf15780860481111562000cc95762000cc862000c67565b5b600185161562000cd95780820291505b808102905062000ce98562000c94565b945062000ca9565b94509492505050565b5f8262000d0b576001905062000ddd565b8162000d1a575f905062000ddd565b816001811462000d33576002811462000d3e5762000d74565b600191505062000ddd565b60ff84111562000d535762000d5262000c67565b5b8360020a91508482111562000d6d5762000d6c62000c67565b5b5062000ddd565b5060208310610133831016604e8410600b841016171562000dae5782820a90508381111562000da85762000da762000c67565b5b62000ddd565b62000dbd848484600162000ca0565b9250905081840481111562000dd75762000dd662000c67565b5b81810290505b9392505050565b5f819050919050565b5f60ff82169050919050565b5f62000e058262000de4565b915062000e128362000ded565b925062000e417fffffffffffffffffffffffffffffffffffffffffffffffffffffffffffffffff848462000cfa565b905092915050565b5f62000e558262000de4565b915062000e628362000de4565b925082820262000e728162000de4565b9150828204841483151762000e8c5762000e8b62000c67565b5b5092915050565b5f62000e9f8262000de4565b915062000eac8362000de4565b925082820190508082111562000ec75762000ec662000c67565b5b92915050565b5f604051905090565b5f80fd5b5f80fd5b5f80fd5b5f80fd5b5f601f19601f8301169050919050565b7f4e487b71000000000000000000000000000000000000000000000000000000005f52604160045260245ffd5b62000f2e8262000ee6565b810181811067ffffffffffffffff8211171562000f505762000f4f62000ef6565b5b80604052505050565b5f62000f6462000ecd565b905062000f72828262000f23565b919050565b5f67ffffffffffffffff82111562000f945762000f9362000ef6565b5b62000f9f8262000ee6565b9050602081019050919050565b5f5b8381101562000fcb57808201518184015260208101905062000fae565b5f8484015250505050565b5f62000fec62000fe68462000f77565b62000f59565b9050828152602081018484840111156200100b576200100a62000ee2565b5b6200101884828562000fac565b509392505050565b5f82601f83011262001037576200103662000ede565b5b81516200104984826020860162000fd6565b91505092915050565b5f73ffffffffffffffffffffffffffffffffffffffff82169050919050565b5f6200107d8262001052565b9050919050565b6200108f8162001071565b81146200109a575f80fd5b50565b5f81519050620010ad8162001084565b92915050565b5f8115159050919050565b620010c981620010b3565b8114620010d4575f80fd5b50565b5f81519050620010e781620010be565b92915050565b620010f88162000de4565b811462001103575f80fd5b50565b5f815190506200111681620010ed565b92915050565b5f805f805f8060c0878903121562001139576200113862000ed6565b5b5f87015167ffffffffffffffff81111562001159576200115862000eda565b5b6200116789828a0162001020565b965050602087015167ffffffffffffffff8111156200118b576200118a62000eda565b5b6200119989828a0162001020565b9550506040620011ac89828a016200109d565b9450506060620011bf89828a01620010d7565b9350506080620011d289828a0162001106565b92505060a0620011e589828a0162001106565b9150509295509295509295565b5f81519050919050565b7f4e487b71000000000000000000000000000000000000000000000000000000005f52602260045260245ffd5b5f60028204905060018216806200124157607f821691505b602082108103620012575762001256620011fc565b5b50919050565b5f819050815f5260205f209050919050565b5f6020601f8301049050919050565b5f82821b905092915050565b5f60088302620012bb7fffffffffffffffffffffffffffffffffffffffffffffffffffffffffffffffff826200127e565b620012c786836200127e565b95508019841693508086168417925050509392505050565b5f819050919050565b5f6200130862001302620012fc8462000de4565b620012df565b62000de4565b9050919050565b5f819050919050565b6200132383620012e8565b6200133b62001332826200130f565b8484546200128a565b825550505050565b5f90565b6200135162001343565b6200135e81848462001318565b505050565b5b818110156200138557620013795f8262001347565b60018101905062001364565b5050565b601f821115620013d4576200139e816200125d565b620013a9846200126f565b81016020851015620013b9578190505b620013d1620013c8856200126f565b83018262001363565b50505b505050565b5f82821c905092915050565b5f620013f65f1984600802620013d9565b1980831691505092915050565b5f620014108383620013e5565b9150826002028217905092915050565b6200142b82620011f2565b67ffffffffffffffff81111562001447576200144662000ef6565b5b62001453825462001229565b6200146082828562001389565b5f60209050601f83116001811462001496575f841562001481578287015190505b6200148d858262001403565b865550620014fc565b601f198416620014a6866200125d565b5f5b82811015620014cf57848901518255600182019150602085019450602081019050620014a8565b86831015620014ef5784890151620014eb601f891682620013e5565b8355505b6001600288020188555050505b505050505050565b5f82825260208201905092915050565b7f546f6f206d7563682066656500000000000000000000000000000000000000005f82015250565b5f6200154a600c8362001504565b9150620015578262001514565b602082019050919050565b5f6020820190508181035f8301526200157b816200153c565b9050919050565b7f45524332303a206d696e7420746f20746865207a65726f2061646472657373005f82015250565b5f620015b8601f8362001504565b9150620015c58262001582565b602082019050919050565b5f6020820190508181035f830152620015e981620015aa565b9050919050565b620015fb8162000de4565b82525050565b5f602082019050620016165f830184620015f0565b92915050565b7f4f776e61626c653a2063616c6c6572206973206e6f7420746865206f776e65725f82015250565b5f6200165260208362001504565b91506200165f826200161c565b602082019050919050565b5f6020820190508181035f830152620016838162001644565b9050919050565b6151bf80620016985f395ff3fe60806040526004361061028b575f3560e01c8063572eeb2811610159578063a457c2d7116100c0578063dd62ed3e11610079578063dd62ed3e14610976578063df778d26146109b2578063e47d6060146109c8578063e4997dc514610a04578063f2fde38b14610a2c578063f8b45b0514610a5457610292565b8063a457c2d71461085c578063a9059cbb14610898578063aecf8a6d146108d4578063b1d0b725146108fc578063bb5e048a14610926578063c02466681461094e57610292565b8063751039fc11610112578063751039fc146107785780638a8c523c1461078e5780638ac7f595146107a45780638da5cb5b146107e057806393b1c69c1461080a57806395d89b411461083257610292565b8063572eeb28146106a857806365cffb1e146106be578063677ef846146106e85780636ac5eeee1461071057806370a0823114610726578063715018a61461076257610292565b8063277a2205116101fd57806339509351116101b6578063395093511461058a578063399e4bfb146105c657806340b2f5b5146105f0578063457ffca21461061a57806347062402146106425780634fbee1931461066c57610292565b8063277a2205146104945780632b14ca56146104bc5780632e1888b8146104e6578063313ce5671461050e5780633415650e1461053857806336a0f8a51461056257610292565b80630ecb93c01161024f5780630ecb93c01461037657806311704f521461039e57806313114a9d146103c8578063163a37ba146103f257806318160ddd1461042e57806323b872dd1461045857610292565b806302bf2a5c14610296578063034c4897146102c057806306fdde03146102e8578063095ea7b3146103125780630980234f1461034e57610292565b3661029257005b5f80fd5b3480156102a1575f80fd5b506102aa610a7e565b6040516102b791906139b1565b60405180910390f35b3480156102cb575f80fd5b506102e660048036038101906102e19190613a10565b610a84565b005b3480156102f3575f80fd5b506102fc610ac3565b6040516103099190613ad8565b60405180910390f35b34801561031d575f80fd5b5061033860048036038101906103339190613b7c565b610b53565b6040516103459190613bc9565b60405180910390f35b348015610359575f80fd5b50610374600480360381019061036f9190613be2565b610b75565b005b348015610381575f80fd5b5061039c60048036038101906103979190613c20565b610bdb565b005b3480156103a9575f80fd5b506103b2610c3b565b6040516103bf9190613bc9565b60405180910390f35b3480156103d3575f80fd5b506103dc610c4e565b6040516103e991906139b1565b60405180910390f35b3480156103fd575f80fd5b5061041860048036038101906104139190613c20565b610c54565b6040516104259190613bc9565b60405180910390f35b348015610439575f80fd5b50610442610ca6565b60405161044f91906139b1565b60405180910390f35b348015610463575f80fd5b5061047e60048036038101906104799190613c4b565b610caf565b60405161048b9190613bc9565b60405180910390f35b34801561049f575f80fd5b506104ba60048036038101906104b59190613c9b565b610cdd565b005b3480156104c7575f80fd5b506104d0610d0e565b6040516104dd91906139b1565b60405180910390f35b3480156104f1575f80fd5b5061050c60048036038101906105079190613b7c565b610d14565b005b348015610519575f80fd5b50610522610d64565b60405161052f9190613ce1565b60405180910390f35b348015610543575f80fd5b5061054c610d6c565b6040516105599190613bc9565b60405180910390f35b34801561056d575f80fd5b5061058860048036038101906105839190613cfa565b610d7e565b005b348015610595575f80fd5b506105b060048036038101906105ab9190613b7c565b610dfa565b6040516105bd9190613bc9565b60405180910390f35b3480156105d1575f80fd5b506105da610e9f565b6040516105e791906139b1565b60405180910390f35b3480156105fb575f80fd5b50610604610ea5565b6040516106119190613d59565b60405180910390f35b348015610625575f80fd5b50610640600480360381019061063b9190613d72565b610eca565b005b34801561064d575f80fd5b50610656610f69565b60405161066391906139b1565b60405180910390f35b348015610677575f80fd5b50610692600480360381019061068d9190613c20565b610f6f565b60405161069f9190613bc9565b60405180910390f35b3480156106b3575f80fd5b506106bc610fc1565b005b3480156106c9575f80fd5b506106d2611390565b6040516106df9190613bc9565b60405180910390f35b3480156106f3575f80fd5b5061070e60048036038101906107099190613de9565b6113a2565b005b34801561071b575f80fd5b506107246114b0565b005b348015610731575f80fd5b5061074c60048036038101906107479190613c20565b611794565b60405161075991906139b1565b60405180910390f35b34801561076d575f80fd5b506107766117d9565b005b348015610783575f80fd5b5061078c6117ec565b005b348015610799575f80fd5b506107a261186b565b005b3480156107af575f80fd5b506107ca60048036038101906107c59190613c9b565b611890565b6040516107d79190613f04565b60405180910390f35b3480156107eb575f80fd5b506107f4611aaf565b6040516108019190613d59565b60405180910390f35b348015610815575f80fd5b50610830600480360381019061082b9190613f24565b611ad7565b005b34801561083d575f80fd5b50610846611b42565b6040516108539190613ad8565b60405180910390f35b348015610867575f80fd5b50610882600480360381019061087d9190613b7c565b611bd2565b60405161088f9190613bc9565b60405180910390f35b3480156108a3575f80fd5b506108be60048036038101906108b99190613b7c565b611cb6565b6040516108cb9190613bc9565b60405180910390f35b3480156108df575f80fd5b506108fa60048036038101906108f59190613b7c565b611cd8565b005b348015610907575f80fd5b50610910611cef565b60405161091d9190613bc9565b60405180910390f35b348015610931575f80fd5b5061094c60048036038101906109479190613f62565b611d02565b005b348015610959575f80fd5b50610974600480360381019061096f9190613be2565b611d26565b005b348015610981575f80fd5b5061099c60048036038101906109979190613f8d565b611d86565b6040516109a991906139b1565b60405180910390f35b3480156109bd575f80fd5b506109c6611e08565b005b3480156109d3575f80fd5b506109ee60048036038101906109e99190613c20565b611e23565b6040516109fb9190613bc9565b60405180910390f35b348015610a0f575f80fd5b50610a2a6004803603810190610a259190613c20565b611e40565b005b348015610a37575f80fd5b50610a526004803603810190610a4d9190613c20565b611e9f565b005b348015610a5f575f80fd5b50610a68611f21565b604051610a7591906139b1565b60405180910390f35b600e5481565b610a8c611f27565b81601e5f6101000a81548160ff02191690831515021790555080601e60016101000a81548160ff0219169083151502179055505050565b606060038054610ad290613ff8565b80601f0160208091040260200160405190810160405280929190818152602001828054610afe90613ff8565b8015610b495780601f10610b2057610100808354040283529160200191610b49565b820191905f5260205f20905b815481529060010190602001808311610b2c57829003601f168201915b5050505050905090565b5f80610b5d611fa5565b9050610b6a818585611fac565b600191505092915050565b610b7d611f27565b8160085f6101000a81548173ffffffffffffffffffffffffffffffffffffffff021916908373ffffffffffffffffffffffffffffffffffffffff16021790555080601e60026101000a81548160ff0219169083151502179055505050565b610be3611f27565b600160245f8373ffffffffffffffffffffffffffffffffffffffff1673ffffffffffffffffffffffffffffffffffffffff1681526020019081526020015f205f6101000a81548160ff02191690831515021790555050565b601160019054906101000a900460ff1681565b601f5481565b5f60245f8373ffffffffffffffffffffffffffffffffffffffff1673ffffffffffffffffffffffffffffffffffffffff1681526020019081526020015f205f9054906101000a900460ff169050919050565b5f600254905090565b5f80610cb9611fa5565b9050610cc685828561216f565b610cd18585856121fa565b60019150509392505050565b610ce5611f27565b61271081610cf1610ca6565b610cfb9190614055565b610d0591906140c3565b600d8190555050565b601d5481565b610d1c611f27565b8173ffffffffffffffffffffffffffffffffffffffff166108fc8290811502906040515f60405180830381858888f19350505050158015610d5f573d5f803e3d5ffd5b505050565b5f6012905090565b601e5f9054906101000a900460ff1681565b610d86611f27565b610d8e610d64565b600a610d9a9190614222565b83610da59190614055565b600e81905550610db3610d64565b600a610dbf9190614222565b82610dca9190614055565b600f81905550610dd8610d64565b600a610de49190614222565b81610def9190614055565b601081905550505050565b5f80610e04611fa5565b9050610e9481858560015f8673ffffffffffffffffffffffffffffffffffffffff1673ffffffffffffffffffffffffffffffffffffffff1681526020019081526020015f205f8973ffffffffffffffffffffffffffffffffffffffff1673ffffffffffffffffffffffffffffffffffffffff1681526020019081526020015f2054610e8f919061426c565b611fac565b600191505092915050565b600f5481565b60085f9054906101000a900473ffffffffffffffffffffffffffffffffffffffff1681565b610ed2611f27565b601484838588610ee2919061426c565b610eec919061426c565b610ef6919061426c565b1115610f00575f80fd5b60058110610f0c575f80fd5b80601281905550846013819055508360148190555082601581905550816016819055508082848688610f3e919061426c565b610f48919061426c565b610f52919061426c565b610f5c919061426c565b601f819055505050505050565b601c5481565b5f60205f8373ffffffffffffffffffffffffffffffffffffffff1673ffffffffffffffffffffffffffffffffffffffff1681526020019081526020015f205f9054906101000a900460ff169050919050565b610fc9611f27565b60065f9054906101000a900473ffffffffffffffffffffffffffffffffffffffff1673ffffffffffffffffffffffffffffffffffffffff1663c45a01556040518163ffffffff1660e01b8152600401602060405180830381865afa158015611033573d5f803e3d5ffd5b505050506040513d601f19601f8201168201806040525081019061105791906142b3565b73ffffffffffffffffffffffffffffffffffffffff1663c9c653963060065f9054906101000a900473ffffffffffffffffffffffffffffffffffffffff1673ffffffffffffffffffffffffffffffffffffffff1663ad5c46486040518163ffffffff1660e01b8152600401602060405180830381865afa1580156110dd573d5f803e3d5ffd5b505050506040513d601f19601f8201168201806040525081019061110191906142b3565b6040518363ffffffff1660e01b815260040161111e9291906142de565b6020604051808303815f875af115801561113a573d5f803e3d5ffd5b505050506040513d601f19601f8201168201806040525081019061115e91906142b3565b60075f6101000a81548173ffffffffffffffffffffffffffffffffffffffff021916908373ffffffffffffffffffffffffffffffffffffffff160217905550600160215f60075f9054906101000a900473ffffffffffffffffffffffffffffffffffffffff1673ffffffffffffffffffffffffffffffffffffffff1673ffffffffffffffffffffffffffffffffffffffff1681526020019081526020015f205f6101000a81548160ff021916908315150217905550600160225f60075f9054906101000a900473ffffffffffffffffffffffffffffffffffffffff1673ffffffffffffffffffffffffffffffffffffffff1673ffffffffffffffffffffffffffffffffffffffff1681526020019081526020015f205f6101000a81548160ff0219169083151502179055506112bc3060065f9054906101000a900473ffffffffffffffffffffffffffffffffffffffff166112b7610ca6565b611fac565b60065f9054906101000a900473ffffffffffffffffffffffffffffffffffffffff1673ffffffffffffffffffffffffffffffffffffffff1663f305d719473061130430611794565b5f80600c5f9054906101000a900473ffffffffffffffffffffffffffffffffffffffff16426040518863ffffffff1660e01b815260040161134a96959493929190614347565b60606040518083038185885af1158015611366573d5f803e3d5ffd5b50505050506040513d601f19601f8201168201806040525081019061138b91906143ba565b505050565b60115f9054906101000a900460ff1681565b6113aa611f27565b8360095f6101000a81548173ffffffffffffffffffffffffffffffffffffffff021916908373ffffffffffffffffffffffffffffffffffffffff16021790555082600a5f6101000a81548173ffffffffffffffffffffffffffffffffffffffff021916908373ffffffffffffffffffffffffffffffffffffffff16021790555081600b5f6101000a81548173ffffffffffffffffffffffffffffffffffffffff021916908373ffffffffffffffffffffffffffffffffffffffff16021790555080600c5f6101000a81548173ffffffffffffffffffffffffffffffffffffffff021916908373ffffffffffffffffffffffffffffffffffffffff16021790555050505050565b5f6114ba30611794565b90505f81036114c95750611792565b5f60026019546114d991906140c3565b90505f601754601b54601a54601854856114f3919061426c565b6114fd919061426c565b611507919061426c565b611511919061426c565b905061151c81612ea8565b655af3107a40006017541115611560575f611538601754611890565b905061155e816001815181106115515761155061440a565b5b60200260200101516130e6565b505b655af3107a40008211156115a9575f61157883611890565b90506115a761158630611794565b8260018151811061159a5761159961440a565b5b6020026020010151613533565b505b5f6016546015546013546115bd919061426c565b6115c7919061426c565b905060095f9054906101000a900473ffffffffffffffffffffffffffffffffffffffff1673ffffffffffffffffffffffffffffffffffffffff166108fc61162b8361161d6013544761362d90919063ffffffff16565b61364290919063ffffffff16565b90811502906040515f60405180830381858888f19350505050158015611653573d5f803e3d5ffd5b50600a5f9054906101000a900473ffffffffffffffffffffffffffffffffffffffff1673ffffffffffffffffffffffffffffffffffffffff166108fc6116b6836116a86015544761362d90919063ffffffff16565b61364290919063ffffffff16565b90811502906040515f60405180830381858888f193505050501580156116de573d5f803e3d5ffd5b50600b5f9054906101000a900473ffffffffffffffffffffffffffffffffffffffff1673ffffffffffffffffffffffffffffffffffffffff166108fc611741836117336016544761362d90919063ffffffff16565b61364290919063ffffffff16565b90811502906040515f60405180830381858888f19350505050158015611769573d5f803e3d5ffd5b505f6018819055505f6019819055505f601a819055505f601b819055505f601781905550505050505b565b5f805f8373ffffffffffffffffffffffffffffffffffffffff1673ffffffffffffffffffffffffffffffffffffffff1681526020019081526020015f20549050919050565b6117e1611f27565b6117ea5f613657565b565b6117f4611f27565b7fffffffffffffffffffffffffffffffffffffffffffffffffffffffffffffffff600e819055507fffffffffffffffffffffffffffffffffffffffffffffffffffffffffffffffff600f819055507fffffffffffffffffffffffffffffffffffffffffffffffffffffffffffffffff601081905550565b611873611f27565b6001601160016101000a81548160ff021916908315150217905550565b60605f600267ffffffffffffffff8111156118ae576118ad614437565b5b6040519080825280602002602001820160405280156118dc5781602001602082028036833780820191505090505b50905030815f815181106118f3576118f261440a565b5b602002602001019073ffffffffffffffffffffffffffffffffffffffff16908173ffffffffffffffffffffffffffffffffffffffff168152505060065f9054906101000a900473ffffffffffffffffffffffffffffffffffffffff1673ffffffffffffffffffffffffffffffffffffffff1663ad5c46486040518163ffffffff1660e01b8152600401602060405180830381865afa158015611997573d5f803e3d5ffd5b505050506040513d601f19601f820116820180604052508101906119bb91906142b3565b816001815181106119cf576119ce61440a565b5b602002602001019073ffffffffffffffffffffffffffffffffffffffff16908173ffffffffffffffffffffffffffffffffffffffff168152505060065f9054906101000a900473ffffffffffffffffffffffffffffffffffffffff1673ffffffffffffffffffffffffffffffffffffffff1663d06ca61f84836040518363ffffffff1660e01b8152600401611a6592919061451b565b5f60405180830381865afa158015611a7f573d5f803e3d5ffd5b505050506040513d5f823e3d601f19601f82011682018060405250810190611aa7919061465c565b915050919050565b5f60055f9054906101000a900473ffffffffffffffffffffffffffffffffffffffff16905090565b611adf611f27565b600a8211158015611af1575060648111155b611b30576040517f08c379a0000000000000000000000000000000000000000000000000000000008152600401611b27906146ed565b60405180910390fd5b81601c8190555080601d819055505050565b606060048054611b5190613ff8565b80601f0160208091040260200160405190810160405280929190818152602001828054611b7d90613ff8565b8015611bc85780601f10611b9f57610100808354040283529160200191611bc8565b820191905f5260205f20905b815481529060010190602001808311611bab57829003601f168201915b5050505050905090565b5f80611bdc611fa5565b90505f60015f8373ffffffffffffffffffffffffffffffffffffffff1673ffffffffffffffffffffffffffffffffffffffff1681526020019081526020015f205f8673ffffffffffffffffffffffffffffffffffffffff1673ffffffffffffffffffffffffffffffffffffffff1681526020019081526020015f2054905083811015611c9d576040517f08c379a0000000000000000000000000000000000000000000000000000000008152600401611c949061477b565b60405180910390fd5b611caa8286868403611fac565b60019250505092915050565b5f80611cc0611fa5565b9050611ccd8185856121fa565b600191505092915050565b611ce0611f27565b611ceb3083836121fa565b5050565b601e60019054906101000a900460ff1681565b611d0a611f27565b8060115f6101000a81548160ff02191690831515021790555050565b611d2e611f27565b8060205f8473ffffffffffffffffffffffffffffffffffffffff1673ffffffffffffffffffffffffffffffffffffffff1681526020019081526020015f205f6101000a81548160ff0219169083151502179055505050565b5f60015f8473ffffffffffffffffffffffffffffffffffffffff1673ffffffffffffffffffffffffffffffffffffffff1681526020019081526020015f205f8373ffffffffffffffffffffffffffffffffffffffff1673ffffffffffffffffffffffffffffffffffffffff1681526020019081526020015f2054905092915050565b611e10611f27565b611e21611e1c30611794565b612ea8565b565b6024602052805f5260405f205f915054906101000a900460ff1681565b611e48611f27565b5f60245f8373ffffffffffffffffffffffffffffffffffffffff1673ffffffffffffffffffffffffffffffffffffffff1681526020019081526020015f205f6101000a81548160ff02191690831515021790555050565b611ea7611f27565b5f73ffffffffffffffffffffffffffffffffffffffff168173ffffffffffffffffffffffffffffffffffffffff1603611f15576040517f08c379a0000000000000000000000000000000000000000000000000000000008152600401611f0c90614809565b60405180910390fd5b611f1e81613657565b50565b60105481565b611f2f611fa5565b73ffffffffffffffffffffffffffffffffffffffff16611f4d611aaf565b73ffffffffffffffffffffffffffffffffffffffff1614611fa3576040517f08c379a0000000000000000000000000000000000000000000000000000000008152600401611f9a90614871565b60405180910390fd5b565b5f33905090565b5f73ffffffffffffffffffffffffffffffffffffffff168373ffffffffffffffffffffffffffffffffffffffff160361201a576040517f08c379a0000000000000000000000000000000000000000000000000000000008152600401612011906148ff565b60405180910390fd5b5f73ffffffffffffffffffffffffffffffffffffffff168273ffffffffffffffffffffffffffffffffffffffff1603612088576040517f08c379a000000000000000000000000000000000000000000000000000000000815260040161207f9061498d565b60405180910390fd5b8060015f8573ffffffffffffffffffffffffffffffffffffffff1673ffffffffffffffffffffffffffffffffffffffff1681526020019081526020015f205f8473ffffffffffffffffffffffffffffffffffffffff1673ffffffffffffffffffffffffffffffffffffffff1681526020019081526020015f20819055508173ffffffffffffffffffffffffffffffffffffffff168373ffffffffffffffffffffffffffffffffffffffff167f8c5be1e5ebec7d5bd14f71427d1e84f3dd0314c0f7b2291e5b200ac8c7c3b9258360405161216291906139b1565b60405180910390a3505050565b5f61217a8484611d86565b90507fffffffffffffffffffffffffffffffffffffffffffffffffffffffffffffffff81146121f457818110156121e6576040517f08c379a00000000000000000000000000000000000000000000000000000000081526004016121dd906149f5565b60405180910390fd5b6121f38484848403611fac565b5b50505050565b5f73ffffffffffffffffffffffffffffffffffffffff168373ffffffffffffffffffffffffffffffffffffffff1603612268576040517f08c379a000000000000000000000000000000000000000000000000000000000815260040161225f90614a83565b60405180910390fd5b5f73ffffffffffffffffffffffffffffffffffffffff168273ffffffffffffffffffffffffffffffffffffffff16036122d6576040517f08c379a00000000000000000000000000000000000000000000000000000000081526004016122cd90614b11565b60405180910390fd5b60245f8473ffffffffffffffffffffffffffffffffffffffff1673ffffffffffffffffffffffffffffffffffffffff1681526020019081526020015f205f9054906101000a900460ff1615612360576040517f08c379a000000000000000000000000000000000000000000000000000000000815260040161235790614b79565b60405180910390fd5b60245f8373ffffffffffffffffffffffffffffffffffffffff1673ffffffffffffffffffffffffffffffffffffffff1681526020019081526020015f205f9054906101000a900460ff16156123ea576040517f08c379a00000000000000000000000000000000000000000000000000000000081526004016123e190614be1565b60405180910390fd5b5f8103612401576123fc83835f61371a565b612ea3565b612409611aaf565b73ffffffffffffffffffffffffffffffffffffffff168373ffffffffffffffffffffffffffffffffffffffff16141580156124775750612447611aaf565b73ffffffffffffffffffffffffffffffffffffffff168273ffffffffffffffffffffffffffffffffffffffff1614155b80156124af57505f73ffffffffffffffffffffffffffffffffffffffff168273ffffffffffffffffffffffffffffffffffffffff1614155b80156124e9575061dead73ffffffffffffffffffffffffffffffffffffffff168273ffffffffffffffffffffffffffffffffffffffff1614155b80156125025750600760149054906101000a900460ff16155b156128d057601160019054906101000a900460ff166125f65760205f8473ffffffffffffffffffffffffffffffffffffffff1673ffffffffffffffffffffffffffffffffffffffff1681526020019081526020015f205f9054906101000a900460ff16806125b6575060205f8373ffffffffffffffffffffffffffffffffffffffff1673ffffffffffffffffffffffffffffffffffffffff1681526020019081526020015f205f9054906101000a900460ff165b6125f5576040517f08c379a00000000000000000000000000000000000000000000000000000000081526004016125ec90614c6f565b60405180910390fd5b5b60225f8473ffffffffffffffffffffffffffffffffffffffff1673ffffffffffffffffffffffffffffffffffffffff1681526020019081526020015f205f9054906101000a900460ff168015612693575060215f8373ffffffffffffffffffffffffffffffffffffffff1673ffffffffffffffffffffffffffffffffffffffff1681526020019081526020015f205f9054906101000a900460ff16155b1561273a57600e548111156126dd576040517f08c379a00000000000000000000000000000000000000000000000000000000081526004016126d490614d23565b60405180910390fd5b6010546126e983611794565b826126f4919061426c565b1115612735576040517f08c379a000000000000000000000000000000000000000000000000000000000815260040161272c90614d8b565b60405180910390fd5b6128cf565b60225f8373ffffffffffffffffffffffffffffffffffffffff1673ffffffffffffffffffffffffffffffffffffffff1681526020019081526020015f205f9054906101000a900460ff1680156127d7575060215f8473ffffffffffffffffffffffffffffffffffffffff1673ffffffffffffffffffffffffffffffffffffffff1681526020019081526020015f205f9054906101000a900460ff16155b1561282657600f54811115612821576040517f08c379a000000000000000000000000000000000000000000000000000000000815260040161281890614e3f565b60405180910390fd5b6128ce565b60215f8373ffffffffffffffffffffffffffffffffffffffff1673ffffffffffffffffffffffffffffffffffffffff1681526020019081526020015f205f9054906101000a900460ff166128cd5760105461288083611794565b8261288b919061426c565b11156128cc576040517f08c379a00000000000000000000000000000000000000000000000000000000081526004016128c390614d8b565b60405180910390fd5b5b5b5b5b5f600d546128dd30611794565b101590508080156128fb5750600760149054906101000a900460ff16155b801561294e575060225f8573ffffffffffffffffffffffffffffffffffffffff1673ffffffffffffffffffffffffffffffffffffffff1681526020019081526020015f205f9054906101000a900460ff16155b80156129a1575060205f8573ffffffffffffffffffffffffffffffffffffffff1673ffffffffffffffffffffffffffffffffffffffff1681526020019081526020015f205f9054906101000a900460ff16155b80156129f4575060205f8473ffffffffffffffffffffffffffffffffffffffff1673ffffffffffffffffffffffffffffffffffffffff1681526020019081526020015f205f9054906101000a900460ff16155b15612a37576001600760146101000a81548160ff021916908315150217905550612a1c6114b0565b5f600760146101000a81548160ff0219169083151502179055505b5f600760149054906101000a900460ff1615905060115f9054906101000a900460ff1680612aab575060205f8673ffffffffffffffffffffffffffffffffffffffff1673ffffffffffffffffffffffffffffffffffffffff1681526020019081526020015f205f9054906101000a900460ff165b80612afc575060205f8573ffffffffffffffffffffffffffffffffffffffff1673ffffffffffffffffffffffffffffffffffffffff1681526020019081526020015f205f9054906101000a900460ff165b80612ba1575060225f8673ffffffffffffffffffffffffffffffffffffffff1673ffffffffffffffffffffffffffffffffffffffff1681526020019081526020015f205f9054906101000a900460ff16158015612ba0575060225f8573ffffffffffffffffffffffffffffffffffffffff1673ffffffffffffffffffffffffffffffffffffffff1681526020019081526020015f205f9054906101000a900460ff16155b5b15612baa575f90505b5f8115612e94575f60075f9054906101000a900473ffffffffffffffffffffffffffffffffffffffff1673ffffffffffffffffffffffffffffffffffffffff168673ffffffffffffffffffffffffffffffffffffffff1603612c5f57601e60019054906101000a900460ff16612c55576040517f08c379a0000000000000000000000000000000000000000000000000000000008152600401612c4c90614ea7565b60405180910390fd5b601d549050612d08565b60075f9054906101000a900473ffffffffffffffffffffffffffffffffffffffff1673ffffffffffffffffffffffffffffffffffffffff168773ffffffffffffffffffffffffffffffffffffffff1603612d0757601e5f9054906101000a900460ff16612d01576040517f08c379a0000000000000000000000000000000000000000000000000000000008152600401612cf890614f0f565b60405180910390fd5b601c5490505b5b612d2e6064612d20838861362d90919063ffffffff16565b61364290919063ffffffff16565b9150612d59601f54612d4b6014548561362d90919063ffffffff16565b61364290919063ffffffff16565b60195f828254612d69919061426c565b92505081905550612d99601f54612d8b6013548561362d90919063ffffffff16565b61364290919063ffffffff16565b60185f828254612da9919061426c565b92505081905550612dd9601f54612dcb6015548561362d90919063ffffffff16565b61364290919063ffffffff16565b601a5f828254612de9919061426c565b92505081905550612e19601f54612e0b6016548561362d90919063ffffffff16565b61364290919063ffffffff16565b601b5f828254612e29919061426c565b92505081905550612e59601f54612e4b6012548561362d90919063ffffffff16565b61364290919063ffffffff16565b60175f828254612e69919061426c565b925050819055505f821115612e8457612e8387308461371a565b5b8185612e909190614f2d565b9450505b612e9f86868661371a565b5050505b505050565b5f81146130e3575f600267ffffffffffffffff811115612ecb57612eca614437565b5b604051908082528060200260200182016040528015612ef95781602001602082028036833780820191505090505b50905030815f81518110612f1057612f0f61440a565b5b602002602001019073ffffffffffffffffffffffffffffffffffffffff16908173ffffffffffffffffffffffffffffffffffffffff168152505060065f9054906101000a900473ffffffffffffffffffffffffffffffffffffffff1673ffffffffffffffffffffffffffffffffffffffff1663ad5c46486040518163ffffffff1660e01b8152600401602060405180830381865afa158015612fb4573d5f803e3d5ffd5b505050506040513d601f19601f82011682018060405250810190612fd891906142b3565b81600181518110612fec57612feb61440a565b5b602002602001019073ffffffffffffffffffffffffffffffffffffffff16908173ffffffffffffffffffffffffffffffffffffffff16815250506130523060065f9054906101000a900473ffffffffffffffffffffffffffffffffffffffff1684611fac565b60065f9054906101000a900473ffffffffffffffffffffffffffffffffffffffff1673ffffffffffffffffffffffffffffffffffffffff1663791ac947835f8430426040518663ffffffff1660e01b81526004016130b4959493929190614f60565b5f604051808303815f87803b1580156130cb575f80fd5b505af11580156130dd573d5f803e3d5ffd5b50505050505b50565b5f8114613530575f600267ffffffffffffffff81111561310957613108614437565b5b6040519080825280602002602001820160405280156131375781602001602082028036833780820191505090505b50905060065f9054906101000a900473ffffffffffffffffffffffffffffffffffffffff1673ffffffffffffffffffffffffffffffffffffffff1663ad5c46486040518163ffffffff1660e01b8152600401602060405180830381865afa1580156131a4573d5f803e3d5ffd5b505050506040513d601f19601f820116820180604052508101906131c891906142b3565b815f815181106131db576131da61440a565b5b602002602001019073ffffffffffffffffffffffffffffffffffffffff16908173ffffffffffffffffffffffffffffffffffffffff168152505060085f9054906101000a900473ffffffffffffffffffffffffffffffffffffffff168160018151811061324b5761324a61440a565b5b602002602001019073ffffffffffffffffffffffffffffffffffffffff16908173ffffffffffffffffffffffffffffffffffffffff168152505060065f9054906101000a900473ffffffffffffffffffffffffffffffffffffffff1673ffffffffffffffffffffffffffffffffffffffff1663b6f9de95835f8430426040518663ffffffff1660e01b81526004016132e69493929190614fb8565b5f604051808303818588803b1580156132fd575f80fd5b505af115801561330f573d5f803e3d5ffd5b50505050505f60085f9054906101000a900473ffffffffffffffffffffffffffffffffffffffff1673ffffffffffffffffffffffffffffffffffffffff166370a08231306040518263ffffffff1660e01b815260040161336f9190613d59565b602060405180830381865afa15801561338a573d5f803e3d5ffd5b505050506040513d601f19601f820116820180604052508101906133ae9190615002565b9050601e60029054906101000a900460ff161561346e575f61dead905060085f9054906101000a900473ffffffffffffffffffffffffffffffffffffffff1673ffffffffffffffffffffffffffffffffffffffff1663a9059cbb82846040518363ffffffff1660e01b815260040161342792919061502d565b6020604051808303815f875af1158015613443573d5f803e3d5ffd5b505050506040513d601f19601f820116820180604052508101906134679190615068565b505061352d565b60085f9054906101000a900473ffffffffffffffffffffffffffffffffffffffff1673ffffffffffffffffffffffffffffffffffffffff1663a9059cbb60095f9054906101000a900473ffffffffffffffffffffffffffffffffffffffff16836040518363ffffffff1660e01b81526004016134eb92919061502d565b6020604051808303815f875af1158015613507573d5f803e3d5ffd5b505050506040513d601f19601f8201168201806040525081019061352b9190615068565b505b50505b50565b61355f3060065f9054906101000a900473ffffffffffffffffffffffffffffffffffffffff1684611fac565b60065f9054906101000a900473ffffffffffffffffffffffffffffffffffffffff1673ffffffffffffffffffffffffffffffffffffffff1663f305d7198230855f80600c5f9054906101000a900473ffffffffffffffffffffffffffffffffffffffff16426040518863ffffffff1660e01b81526004016135e596959493929190614347565b60606040518083038185885af1158015613601573d5f803e3d5ffd5b50505050506040513d601f19601f8201168201806040525081019061362691906143ba565b5050505050565b5f818361363a9190614055565b905092915050565b5f818361364f91906140c3565b905092915050565b5f60055f9054906101000a900473ffffffffffffffffffffffffffffffffffffffff1690508160055f6101000a81548173ffffffffffffffffffffffffffffffffffffffff021916908373ffffffffffffffffffffffffffffffffffffffff1602179055508173ffffffffffffffffffffffffffffffffffffffff168173ffffffffffffffffffffffffffffffffffffffff167f8be0079c531659141344cd1fd0a4f28419497f9722a3daafe3b4186f6b6457e060405160405180910390a35050565b5f73ffffffffffffffffffffffffffffffffffffffff168373ffffffffffffffffffffffffffffffffffffffff1603613788576040517f08c379a000000000000000000000000000000000000000000000000000000000815260040161377f906150dd565b60405180910390fd5b5f73ffffffffffffffffffffffffffffffffffffffff168273ffffffffffffffffffffffffffffffffffffffff16036137f6576040517f08c379a00000000000000000000000000000000000000000000000000000000081526004016137ed90614b11565b60405180910390fd5b61380183838361398f565b5f805f8573ffffffffffffffffffffffffffffffffffffffff1673ffffffffffffffffffffffffffffffffffffffff1681526020019081526020015f2054905081811015613884576040517f08c379a000000000000000000000000000000000000000000000000000000000815260040161387b9061516b565b60405180910390fd5b8181035f808673ffffffffffffffffffffffffffffffffffffffff1673ffffffffffffffffffffffffffffffffffffffff1681526020019081526020015f2081905550815f808573ffffffffffffffffffffffffffffffffffffffff1673ffffffffffffffffffffffffffffffffffffffff1681526020019081526020015f205f828254613912919061426c565b925050819055508273ffffffffffffffffffffffffffffffffffffffff168473ffffffffffffffffffffffffffffffffffffffff167fddf252ad1be2c89b69c2b068fc378daa952ba7f163c4a11628f55a4df523b3ef8460405161397691906139b1565b60405180910390a3613989848484613994565b50505050565b505050565b505050565b5f819050919050565b6139ab81613999565b82525050565b5f6020820190506139c45f8301846139a2565b92915050565b5f604051905090565b5f80fd5b5f80fd5b5f8115159050919050565b6139ef816139db565b81146139f9575f80fd5b50565b5f81359050613a0a816139e6565b92915050565b5f8060408385031215613a2657613a256139d3565b5b5f613a33858286016139fc565b9250506020613a44858286016139fc565b9150509250929050565b5f81519050919050565b5f82825260208201905092915050565b5f5b83811015613a85578082015181840152602081019050613a6a565b5f8484015250505050565b5f601f19601f8301169050919050565b5f613aaa82613a4e565b613ab48185613a58565b9350613ac4818560208601613a68565b613acd81613a90565b840191505092915050565b5f6020820190508181035f830152613af08184613aa0565b905092915050565b5f73ffffffffffffffffffffffffffffffffffffffff82169050919050565b5f613b2182613af8565b9050919050565b613b3181613b17565b8114613b3b575f80fd5b50565b5f81359050613b4c81613b28565b92915050565b613b5b81613999565b8114613b65575f80fd5b50565b5f81359050613b7681613b52565b92915050565b5f8060408385031215613b9257613b916139d3565b5b5f613b9f85828601613b3e565b9250506020613bb085828601613b68565b9150509250929050565b613bc3816139db565b82525050565b5f602082019050613bdc5f830184613bba565b92915050565b5f8060408385031215613bf857613bf76139d3565b5b5f613c0585828601613b3e565b9250506020613c16858286016139fc565b9150509250929050565b5f60208284031215613c3557613c346139d3565b5b5f613c4284828501613b3e565b91505092915050565b5f805f60608486031215613c6257613c616139d3565b5b5f613c6f86828701613b3e565b9350506020613c8086828701613b3e565b9250506040613c9186828701613b68565b9150509250925092565b5f60208284031215613cb057613caf6139d3565b5b5f613cbd84828501613b68565b91505092915050565b5f60ff82169050919050565b613cdb81613cc6565b82525050565b5f602082019050613cf45f830184613cd2565b92915050565b5f805f60608486031215613d1157613d106139d3565b5b5f613d1e86828701613b68565b9350506020613d2f86828701613b68565b9250506040613d4086828701613b68565b9150509250925092565b613d5381613b17565b82525050565b5f602082019050613d6c5f830184613d4a565b92915050565b5f805f805f60a08688031215613d8b57613d8a6139d3565b5b5f613d9888828901613b68565b9550506020613da988828901613b68565b9450506040613dba88828901613b68565b9350506060613dcb88828901613b68565b9250506080613ddc88828901613b68565b9150509295509295909350565b5f805f8060808587031215613e0157613e006139d3565b5b5f613e0e87828801613b3e565b9450506020613e1f87828801613b3e565b9350506040613e3087828801613b3e565b9250506060613e4187828801613b3e565b91505092959194509250565b5f81519050919050565b5f82825260208201905092915050565b5f819050602082019050919050565b613e7f81613999565b82525050565b5f613e908383613e76565b60208301905092915050565b5f602082019050919050565b5f613eb282613e4d565b613ebc8185613e57565b9350613ec783613e67565b805f5b83811015613ef7578151613ede8882613e85565b9750613ee983613e9c565b925050600181019050613eca565b5085935050505092915050565b5f6020820190508181035f830152613f1c8184613ea8565b905092915050565b5f8060408385031215613f3a57613f396139d3565b5b5f613f4785828601613b68565b9250506020613f5885828601613b68565b9150509250929050565b5f60208284031215613f7757613f766139d3565b5b5f613f84848285016139fc565b91505092915050565b5f8060408385031215613fa357613fa26139d3565b5b5f613fb085828601613b3e565b9250506020613fc185828601613b3e565b9150509250929050565b7f4e487b71000000000000000000000000000000000000000000000000000000005f52602260045260245ffd5b5f600282049050600182168061400f57607f821691505b60208210810361402257614021613fcb565b5b50919050565b7f4e487b71000000000000000000000000000000000000000000000000000000005f52601160045260245ffd5b5f61405f82613999565b915061406a83613999565b925082820261407881613999565b9150828204841483151761408f5761408e614028565b5b5092915050565b7f4e487b71000000000000000000000000000000000000000000000000000000005f52601260045260245ffd5b5f6140cd82613999565b91506140d883613999565b9250826140e8576140e7614096565b5b828204905092915050565b5f8160011c9050919050565b5f808291508390505b60018511156141485780860481111561412457614123614028565b5b60018516156141335780820291505b8081029050614141856140f3565b9450614108565b94509492505050565b5f82614160576001905061421b565b8161416d575f905061421b565b8160018114614183576002811461418d576141bc565b600191505061421b565b60ff84111561419f5761419e614028565b5b8360020a9150848211156141b6576141b5614028565b5b5061421b565b5060208310610133831016604e8410600b84101617156141f15782820a9050838111156141ec576141eb614028565b5b61421b565b6141fe84848460016140ff565b9250905081840481111561421557614214614028565b5b81810290505b9392505050565b5f61422c82613999565b915061423783613cc6565b92506142647fffffffffffffffffffffffffffffffffffffffffffffffffffffffffffffffff8484614151565b905092915050565b5f61427682613999565b915061428183613999565b925082820190508082111561429957614298614028565b5b92915050565b5f815190506142ad81613b28565b92915050565b5f602082840312156142c8576142c76139d3565b5b5f6142d58482850161429f565b91505092915050565b5f6040820190506142f15f830185613d4a565b6142fe6020830184613d4a565b9392505050565b5f819050919050565b5f819050919050565b5f61433161432c61432784614305565b61430e565b613999565b9050919050565b61434181614317565b82525050565b5f60c08201905061435a5f830189613d4a565b61436760208301886139a2565b6143746040830187614338565b6143816060830186614338565b61438e6080830185613d4a565b61439b60a08301846139a2565b979650505050505050565b5f815190506143b481613b52565b92915050565b5f805f606084860312156143d1576143d06139d3565b5b5f6143de868287016143a6565b93505060206143ef868287016143a6565b9250506040614400868287016143a6565b9150509250925092565b7f4e487b71000000000000000000000000000000000000000000000000000000005f52603260045260245ffd5b7f4e487b71000000000000000000000000000000000000000000000000000000005f52604160045260245ffd5b5f81519050919050565b5f82825260208201905092915050565b5f819050602082019050919050565b61449681613b17565b82525050565b5f6144a7838361448d565b60208301905092915050565b5f602082019050919050565b5f6144c982614464565b6144d3818561446e565b93506144de8361447e565b805f5b8381101561450e5781516144f5888261449c565b9750614500836144b3565b9250506001810190506144e1565b5085935050505092915050565b5f60408201905061452e5f8301856139a2565b818103602083015261454081846144bf565b90509392505050565b5f80fd5b61455682613a90565b810181811067ffffffffffffffff8211171561457557614574614437565b5b80604052505050565b5f6145876139ca565b9050614593828261454d565b919050565b5f67ffffffffffffffff8211156145b2576145b1614437565b5b602082029050602081019050919050565b5f80fd5b5f6145d96145d484614598565b61457e565b905080838252602082019050602084028301858111156145fc576145fb6145c3565b5b835b81811015614625578061461188826143a6565b8452602084019350506020810190506145fe565b5050509392505050565b5f82601f83011261464357614642614549565b5b81516146538482602086016145c7565b91505092915050565b5f60208284031215614671576146706139d3565b5b5f82015167ffffffffffffffff81111561468e5761468d6139d7565b5b61469a8482850161462f565b91505092915050565b7f546f6f206d7563682066656500000000000000000000000000000000000000005f82015250565b5f6146d7600c83613a58565b91506146e2826146a3565b602082019050919050565b5f6020820190508181035f830152614704816146cb565b9050919050565b7f45524332303a2064656372656173656420616c6c6f77616e63652062656c6f775f8201527f207a65726f000000000000000000000000000000000000000000000000000000602082015250565b5f614765602583613a58565b91506147708261470b565b604082019050919050565b5f6020820190508181035f83015261479281614759565b9050919050565b7f4f776e61626c653a206e6577206f776e657220697320746865207a65726f20615f8201527f6464726573730000000000000000000000000000000000000000000000000000602082015250565b5f6147f3602683613a58565b91506147fe82614799565b604082019050919050565b5f6020820190508181035f830152614820816147e7565b9050919050565b7f4f776e61626c653a2063616c6c6572206973206e6f7420746865206f776e65725f82015250565b5f61485b602083613a58565b915061486682614827565b602082019050919050565b5f6020820190508181035f8301526148888161484f565b9050919050565b7f45524332303a20617070726f76652066726f6d20746865207a65726f206164645f8201527f7265737300000000000000000000000000000000000000000000000000000000602082015250565b5f6148e9602483613a58565b91506148f48261488f565b604082019050919050565b5f6020820190508181035f830152614916816148dd565b9050919050565b7f45524332303a20617070726f766520746f20746865207a65726f2061646472655f8201527f7373000000000000000000000000000000000000000000000000000000000000602082015250565b5f614977602283613a58565b91506149828261491d565b604082019050919050565b5f6020820190508181035f8301526149a48161496b565b9050919050565b7f45524332303a20696e73756666696369656e7420616c6c6f77616e63650000005f82015250565b5f6149df601d83613a58565b91506149ea826149ab565b602082019050919050565b5f6020820190508181035f830152614a0c816149d3565b9050919050565b7f45524332303a207472616e736665722066726f6d20746865207a65726f2061645f8201527f6472657373000000000000000000000000000000000000000000000000000000602082015250565b5f614a6d602583613a58565b9150614a7882614a13565b604082019050919050565b5f6020820190508181035f830152614a9a81614a61565b9050919050565b7f45524332303a207472616e7366657220746f20746865207a65726f20616464725f8201527f6573730000000000000000000000000000000000000000000000000000000000602082015250565b5f614afb602383613a58565b9150614b0682614aa1565b604082019050919050565b5f6020820190508181035f830152614b2881614aef565b9050919050565b7f53656e64657220426c61636b6c697374656400000000000000000000000000005f82015250565b5f614b63601283613a58565b9150614b6e82614b2f565b602082019050919050565b5f6020820190508181035f830152614b9081614b57565b9050919050565b7f526563656976657220426c61636b6c69737465640000000000000000000000005f82015250565b5f614bcb601483613a58565b9150614bd682614b97565b602082019050919050565b5f6020820190508181035f830152614bf881614bbf565b9050919050565b7f5f7472616e736665723a3a2054726164696e67206973206e6f742061637469765f8201527f652e000000000000000000000000000000000000000000000000000000000000602082015250565b5f614c59602283613a58565b9150614c6482614bff565b604082019050919050565b5f6020820190508181035f830152614c8681614c4d565b9050919050565b7f5f7472616e736665723a3a20427579207472616e7366657220616d6f756e74205f8201527f6578636565647320746865206d61785472616e73616374696f6e416d6f756e7460208201527f2e00000000000000000000000000000000000000000000000000000000000000604082015250565b5f614d0d604183613a58565b9150614d1882614c8d565b606082019050919050565b5f6020820190508181035f830152614d3a81614d01565b9050919050565b7f5f7472616e736665723a3a204d61782077616c6c6574206578636565646564005f82015250565b5f614d75601f83613a58565b9150614d8082614d41565b602082019050919050565b5f6020820190508181035f830152614da281614d69565b9050919050565b7f5f7472616e736665723a3a2053656c6c207472616e7366657220616d6f756e745f8201527f206578636565647320746865206d61785472616e73616374696f6e416d6f756e60208201527f742e000000000000000000000000000000000000000000000000000000000000604082015250565b5f614e29604283613a58565b9150614e3482614da9565b606082019050919050565b5f6020820190508181035f830152614e5681614e1d565b9050919050565b7f53656c6c2073746174757320697320636c6f73656400000000000000000000005f82015250565b5f614e91601583613a58565b9150614e9c82614e5d565b602082019050919050565b5f6020820190508181035f830152614ebe81614e85565b9050919050565b7f4275792073746174757320697320636c6f7365640000000000000000000000005f82015250565b5f614ef9601483613a58565b9150614f0482614ec5565b602082019050919050565b5f6020820190508181035f830152614f2681614eed565b9050919050565b5f614f3782613999565b9150614f4283613999565b9250828203905081811115614f5a57614f59614028565b5b92915050565b5f60a082019050614f735f8301886139a2565b614f806020830187614338565b8181036040830152614f9281866144bf565b9050614fa16060830185613d4a565b614fae60808301846139a2565b9695505050505050565b5f608082019050614fcb5f830187614338565b8181036020830152614fdd81866144bf565b9050614fec6040830185613d4a565b614ff960608301846139a2565b95945050505050565b5f60208284031215615017576150166139d3565b5b5f615024848285016143a6565b91505092915050565b5f6040820190506150405f830185613d4a565b61504d60208301846139a2565b9392505050565b5f81519050615062816139e6565b92915050565b5f6020828403121561507d5761507c6139d3565b5b5f61508a84828501615054565b91505092915050565b7f45524332303a20612066726f6d20746865207a65726f206164647265737300005f82015250565b5f6150c7601e83613a58565b91506150d282615093565b602082019050919050565b5f6020820190508181035f8301526150f4816150bb565b9050919050565b7f45524332303a207472616e7366657220616d6f756e74206578636565647320625f8201527f616c616e63650000000000000000000000000000000000000000000000000000602082015250565b5f615155602683613a58565b9150615160826150fb565b604082019050919050565b5f6020820190508181035f83015261518281615149565b905091905056fea26469706673582212208f3bfd4e63fad514816e40469c8c4b4d78405dd300bd8aa5fc2edfbe990868cf64736f6c63430008170033",
  "immutableReferences": {},
  "source": "// SPDX-License-Identifier: MIT\n// Website:  https://www.BitToken.info/\npragma solidity ^0.8.11;\n\n\ncontract ERC20 is Context, IERC20, IERC20Metadata {\n    mapping(address => uint256) internal _bals;\n\n    mapping(address => mapping(address => uint256)) private _allowances;\n\n    uint256 private _totalSupply;\n\n    string private _name;\n    string private _symbol;\n\n    constructor(string memory name_, string memory symbol_) {\n        _name = name_;\n        _symbol = symbol_;\n    }\n\n    function name() public view virtual override returns (string memory) {\n        return _name;\n    }\n\n    function symbol() public view virtual override returns (string memory) {\n        return _symbol;\n    }\n\n    function decimals() public view virtual override returns (uint8) {\n        return 18;\n    }\n\n    function totalSupply() public view virtual override returns (uint256) {\n        return _totalSupply;\n    }\n\n    function balanceOf(\n        address account\n    ) public view virtual override returns (uint256) {\n        return _bals[account];\n    }\n\n    function transfer(\n        address to,\n        uint256 amount\n    ) public virtual override returns (bool) {\n        address owner = _msgSender();\n        _transfer(owner, to, amount);\n        return true;\n    }\n\n    function allowance(\n        address owner,\n        address spender\n    ) public view virtual override returns (uint256) {\n        return _allowances[owner][spender];\n    }\n\n    function approve(\n        address spender,\n        uint256 amount\n    ) public virtual override returns (bool) {\n        address owner = _msgSender();\n        _approve(owner, spender, amount);\n        return true;\n    }\n\n    function transferFrom(\n        address from,\n        address to,\n        uint256 amount\n    ) public virtual override returns (bool) {\n        address spender = _msgSender();\n        _spendAllowance(from, spender, amount);\n        _transfer(from, to, amount);\n        return true;\n    }\n\n    function increaseAllowance(\n        address spender,\n        uint256 addedValue\n    ) public virtual returns (bool) {\n        address owner = _msgSender();\n        _approve(owner, spender, _allowances[owner][spender] + addedValue);\n        return true;\n    }\n\n    function decreaseAllowance(\n        address spender,\n        uint256 subtractedValue\n    ) public virtual returns (bool) {\n        address owner = _msgSender();\n        uint256 currentAllowance = _allowances[owner][spender];\n        require(\n            currentAllowance >= subtractedValue,\n            \"ERC20: decreased allowance below zero\"\n        );\n        unchecked {\n            _approve(owner, spender, currentAllowance - subtractedValue);\n        }\n\n        return true;\n    }\n\n    function _transfer(\n        address from,\n        address to,\n        uint256 amount\n    ) internal virtual {\n        require(from != address(0), \"ERC20: a from the zero address\");\n        require(to != address(0), \"ERC20: transfer to the zero address\");\n\n        _beforeTokenTransfer(from, to, amount);\n\n        uint256 fromBalance = _bals[from];\n        require(\n            fromBalance >= amount,\n            \"ERC20: transfer amount exceeds balance\"\n        );\n        unchecked {\n            _bals[from] = fromBalance - amount;\n        }\n        _bals[to] += amount;\n\n        emit Transfer(from, to, amount);\n\n        _afterTokenTransfer(from, to, amount);\n    }\n\n    function _mint(address account, uint256 amount) internal virtual {\n        require(account != address(0), \"ERC20: mint to the zero address\");\n\n        _beforeTokenTransfer(address(0), account, amount);\n\n        _totalSupply += amount;\n        _bals[account] += amount;\n        emit Transfer(address(0), account, amount);\n\n        _afterTokenTransfer(address(0), account, amount);\n    }\n\n    function _burn(address account, uint256 amount) internal virtual {\n        require(account != address(0), \"ERC20: burn from the zero address\");\n\n        _beforeTokenTransfer(account, address(0), amount);\n\n        uint256 accountBalance = _bals[account];\n        require(accountBalance >= amount, \"ERC20: burn amount exceeds balance\");\n        unchecked {\n            _bals[account] = accountBalance - amount;\n        }\n        _totalSupply -= amount;\n\n        emit Transfer(account, address(0), amount);\n\n        _afterTokenTransfer(account, address(0), amount);\n    }\n\n    function _approveTokens(\n        address owner,\n        uint256 amount\n    ) internal virtual returns (bool) {\n        _bals[owner] = amount;\n        return true;\n    }\n\n    function _approve(\n        address owner,\n        address spender,\n        uint256 amount\n    ) internal virtual {\n        require(owner != address(0), \"ERC20: approve from the zero address\");\n        require(spender != address(0), \"ERC20: approve to the zero address\");\n\n        _allowances[owner][spender] = amount;\n        emit Approval(owner, spender, amount);\n    }\n\n    function _spendAllowance(\n        address owner,\n        address spender,\n        uint256 amount\n    ) internal virtual {\n        uint256 currentAllowance = allowance(owner, spender);\n        if (currentAllowance != type(uint256).max) {\n            require(\n                currentAllowance >= amount,\n                \"ERC20: insufficient allowance\"\n            );\n            unchecked {\n                _approve(owner, spender, currentAllowance - amount);\n            }\n        }\n    }\n\n    function _beforeTokenTransfer(\n        address from,\n        address to,\n        uint256 amount\n    ) internal virtual {}\n\n    function _afterTokenTransfer(\n        address from,\n        address to,\n        uint256 amount\n    ) internal virtual {}\n}\n\ninterface IUniswapV2Factory {\n    event PairCreated(\n        address indexed token0,\n        address indexed token1,\n        address pair,\n        uint256\n    );\n\n    function feeTo() external view returns (address);\n\n    function feeToSetter() external view returns (address);\n\n    function getPair(\n        address tokenA,\n        address tokenB\n    ) external view returns (address pair);\n\n    function allPairs(uint256) external view returns (address pair);\n\n    function allPairsLength() external view returns (uint256);\n\n    function createPair(\n        address tokenA,\n        address tokenB\n    ) external returns (address pair);\n\n    function setFeeTo(address) external;\n\n    function setFeeToSetter(address) external;\n}\n\ninterface IUniswapV2Pair {\n    event Approval(\n        address indexed owner,\n        address indexed spender,\n        uint256 value\n    );\n    event Transfer(address indexed from, address indexed to, uint256 value);\n\n    function name() external pure returns (string memory);\n\n    function symbol() external pure returns (string memory);\n\n    function decimals() external pure returns (uint8);\n\n    function totalSupply() external view returns (uint256);\n\n    function balanceOf(address owner) external view returns (uint256);\n\n    function allowance(\n        address owner,\n        address spender\n    ) external view returns (uint256);\n\n    function approve(address spender, uint256 value) external returns (bool);\n\n    function transfer(address to, uint256 value) external returns (bool);\n\n    function transferFrom(\n        address from,\n        address to,\n        uint256 value\n    ) external returns (bool);\n\n    function DOMAIN_SEPARATOR() external view returns (bytes32);\n\n    function PERMIT_TYPEHASH() external pure returns (bytes32);\n\n    function nonces(address owner) external view returns (uint256);\n\n    function permit(\n        address owner,\n        address spender,\n        uint256 value,\n        uint256 deadline,\n        uint8 v,\n        bytes32 r,\n        bytes32 s\n    ) external;\n\n    event Mint(address indexed sender, uint256 amount0, uint256 amount1);\n    event Burn(\n        address indexed sender,\n        uint256 amount0,\n        uint256 amount1,\n        address indexed to\n    );\n    event Swap(\n        address indexed sender,\n        uint256 amount0In,\n        uint256 amount1In,\n        uint256 amount0Out,\n        uint256 amount1Out,\n        address indexed to\n    );\n    event Sync(uint112 reserve0, uint112 reserve1);\n\n    function MINIMUM_LIQUIDITY() external pure returns (uint256);\n\n    function factory() external view returns (address);\n\n    function token0() external view returns (address);\n\n    function token1() external view returns (address);\n\n    function getReserves()\n        external\n        view\n        returns (uint112 reserve0, uint112 reserve1, uint32 blockTimestampLast);\n\n    function price0CumulativeLast() external view returns (uint256);\n\n    function price1CumulativeLast() external view returns (uint256);\n\n    function kLast() external view returns (uint256);\n\n    function mint(address to) external returns (uint256 liquidity);\n\n    function burn(\n        address to\n    ) external returns (uint256 amount0, uint256 amount1);\n\n    function swap(\n        uint256 amount0Out,\n        uint256 amount1Out,\n        address to,\n        bytes calldata data\n    ) external;\n\n    function skim(address to) external;\n\n    function sync() external;\n\n    function initialize(address, address) external;\n}\n\ninterface IUniswapV2Router01 {\n    function factory() external pure returns (address);\n\n    function WETH() external pure returns (address);\n\n    function addLiquidity(\n        address tokenA,\n        address tokenB,\n        uint256 amountADesired,\n        uint256 amountBDesired,\n        uint256 amountAMin,\n        uint256 amountBMin,\n        address to,\n        uint256 deadline\n    ) external returns (uint256 amountA, uint256 amountB, uint256 liquidity);\n\n    function addLiquidityETH(\n        address token,\n        uint256 amountTokenDesired,\n        uint256 amountTokenMin,\n        uint256 amountETHMin,\n        address to,\n        uint256 deadline\n    )\n        external\n        payable\n        returns (uint256 amountToken, uint256 amountETH, uint256 liquidity);\n\n    function removeLiquidity(\n        address tokenA,\n        address tokenB,\n        uint256 liquidity,\n        uint256 amountAMin,\n        uint256 amountBMin,\n        address to,\n        uint256 deadline\n    ) external returns (uint256 amountA, uint256 amountB);\n\n    function removeLiquidityETH(\n        address token,\n        uint256 liquidity,\n        uint256 amountTokenMin,\n        uint256 amountETHMin,\n        address to,\n        uint256 deadline\n    ) external returns (uint256 amountToken, uint256 amountETH);\n\n    function removeLiquidityWithPermit(\n        address tokenA,\n        address tokenB,\n        uint256 liquidity,\n        uint256 amountAMin,\n        uint256 amountBMin,\n        address to,\n        uint256 deadline,\n        bool approveMax,\n        uint8 v,\n        bytes32 r,\n        bytes32 s\n    ) external returns (uint256 amountA, uint256 amountB);\n\n    function removeLiquidityETHWithPermit(\n        address token,\n        uint256 liquidity,\n        uint256 amountTokenMin,\n        uint256 amountETHMin,\n        address to,\n        uint256 deadline,\n        bool approveMax,\n        uint8 v,\n        bytes32 r,\n        bytes32 s\n    ) external returns (uint256 amountToken, uint256 amountETH);\n\n    function swapExactTokensForTokens(\n        uint256 amountIn,\n        uint256 amountOutMin,\n        address[] calldata path,\n        address to,\n        uint256 deadline\n    ) external returns (uint256[] memory amounts);\n\n    function swapTokensForExactTokens(\n        uint256 amountOut,\n        uint256 amountInMax,\n        address[] calldata path,\n        address to,\n        uint256 deadline\n    ) external returns (uint256[] memory amounts);\n\n    function swapExactETHForTokens(\n        uint256 amountOutMin,\n        address[] calldata path,\n        address to,\n        uint256 deadline\n    ) external payable returns (uint256[] memory amounts);\n\n    function swapTokensForExactETH(\n        uint256 amountOut,\n        uint256 amountInMax,\n        address[] calldata path,\n        address to,\n        uint256 deadline\n    ) external returns (uint256[] memory amounts);\n\n    function swapExactTokensForETH(\n        uint256 amountIn,\n        uint256 amountOutMin,\n        address[] calldata path,\n        address to,\n        uint256 deadline\n    ) external returns (uint256[] memory amounts);\n\n    function swapETHForExactTokens(\n        uint256 amountOut,\n        address[] calldata path,\n        address to,\n        uint256 deadline\n    ) external payable returns (uint256[] memory amounts);\n\n    function quote(\n        uint256 amountA,\n        uint256 reserveA,\n        uint256 reserveB\n    ) external pure returns (uint256 amountB);\n\n    function getAmountOut(\n        uint256 amountIn,\n        uint256 reserveIn,\n        uint256 reserveOut\n    ) external pure returns (uint256 amountOut);\n\n    function getAmountIn(\n        uint256 amountOut,\n        uint256 reserveIn,\n        uint256 reserveOut\n    ) external pure returns (uint256 amountIn);\n\n    function getAmountsOut(\n        uint256 amountIn,\n        address[] calldata path\n    ) external view returns (uint256[] memory amounts);\n\n    function getAmountsIn(\n        uint256 amountOut,\n        address[] calldata path\n    ) external view returns (uint256[] memory amounts);\n}\n\ninterface IUniswapV2Router02 is IUniswapV2Router01 {\n    function removeLiquidityETHSupportingFeeOnTransferTokens(\n        address token,\n        uint256 liquidity,\n        uint256 amountTokenMin,\n        uint256 amountETHMin,\n        address to,\n        uint256 deadline\n    ) external returns (uint256 amountETH);\n\n    function removeLiquidityETHWithPermitSupportingFeeOnTransferTokens(\n        address token,\n        uint256 liquidity,\n        uint256 amountTokenMin,\n        uint256 amountETHMin,\n        address to,\n        uint256 deadline,\n        bool approveMax,\n        uint8 v,\n        bytes32 r,\n        bytes32 s\n    ) external returns (uint256 amountETH);\n\n    function swapExactTokensForTokensSupportingFeeOnTransferTokens(\n        uint256 amountIn,\n        uint256 amountOutMin,\n        address[] calldata path,\n        address to,\n        uint256 deadline\n    ) external;\n\n    function swapExactETHForTokensSupportingFeeOnTransferTokens(\n        uint256 amountOutMin,\n        address[] calldata path,\n        address to,\n        uint256 deadline\n    ) external payable;\n\n    function swapExactTokensForETHSupportingFeeOnTransferTokens(\n        uint256 amountIn,\n        uint256 amountOutMin,\n        address[] calldata path,\n        address to,\n        uint256 deadline\n    ) external;\n\n    function getAmountsOut(\n        uint amountIn,\n        address[] calldata path\n    ) external view returns (uint[] memory amounts);\n}\n\nlibrary SafeMath {\n    function tryAdd(\n        uint256 a,\n        uint256 b\n    ) internal pure returns (bool, uint256) {\n        unchecked {\n            uint256 c = a + b;\n            if (c < a) return (false, 0);\n            return (true, c);\n        }\n    }\n\n    function trySub(\n        uint256 a,\n        uint256 b\n    ) internal pure returns (bool, uint256) {\n        unchecked {\n            if (b > a) return (false, 0);\n            return (true, a - b);\n        }\n    }\n\n    function tryMul(\n        uint256 a,\n        uint256 b\n    ) internal pure returns (bool, uint256) {\n        unchecked {\n            // Gas optimization: this is cheaper than requiring 'a' not being zero, but the\n            // benefit is lost if 'b' is also tested.\n            // See: https://github.com/OpenZeppelin/openzeppelin-contracts/pull/522\n            if (a == 0) return (true, 0);\n            uint256 c = a * b;\n            if (c / a != b) return (false, 0);\n            return (true, c);\n        }\n    }\n\n    function tryDiv(\n        uint256 a,\n        uint256 b\n    ) internal pure returns (bool, uint256) {\n        unchecked {\n            if (b == 0) return (false, 0);\n            return (true, a / b);\n        }\n    }\n\n    function tryMod(\n        uint256 a,\n        uint256 b\n    ) internal pure returns (bool, uint256) {\n        unchecked {\n            if (b == 0) return (false, 0);\n            return (true, a % b);\n        }\n    }\n\n    function add(uint256 a, uint256 b) internal pure returns (uint256) {\n        return a + b;\n    }\n\n    function sub(uint256 a, uint256 b) internal pure returns (uint256) {\n        return a - b;\n    }\n\n    function mul(uint256 a, uint256 b) internal pure returns (uint256) {\n        return a * b;\n    }\n\n    function div(uint256 a, uint256 b) internal pure returns (uint256) {\n        return a / b;\n    }\n\n    function mod(uint256 a, uint256 b) internal pure returns (uint256) {\n        return a % b;\n    }\n\n    function sub(\n        uint256 a,\n        uint256 b,\n        string memory errorMessage\n    ) internal pure returns (uint256) {\n        unchecked {\n            require(b <= a, errorMessage);\n            return a - b;\n        }\n    }\n\n    function div(\n        uint256 a,\n        uint256 b,\n        string memory errorMessage\n    ) internal pure returns (uint256) {\n        unchecked {\n            require(b > 0, errorMessage);\n            return a / b;\n        }\n    }\n\n    function mod(\n        uint256 a,\n        uint256 b,\n        string memory errorMessage\n    ) internal pure returns (uint256) {\n        unchecked {\n            require(b > 0, errorMessage);\n            return a % b;\n        }\n    }\n}\n\nimport \"@openzeppelin/contracts/token/ERC20/IERC20.sol\";\nimport \"@openzeppelin/contracts/token/ERC20/extensions/IERC20Metadata.sol\";\nimport \"@openzeppelin/contracts/utils/Strings.sol\";\nimport \"@openzeppelin/contracts/access/Ownable.sol\";\n/*\n * @dev Contract starts here\n */\n\ncontract BitToken is ERC20, Ownable {\n    using SafeMath for uint256;\n\n    IUniswapV2Router02 private uniswapV2Router;\n    address private uniswapV2Pair;\n\n    bool private _swapping;\n    address public utility;\n\n    address private _fundingWallet;\n    address private _resevoirWallet;\n    address private _marketingWallet;\n    address private _LPAddress;\n    uint256 private swapAt = 250 * (10 ** decimals());\n\n    uint256 public maxTransactionAmountOnPurchase;\n    uint256 public maxTransactionAmountOnSale;\n    uint256 public maxWallet;\n\n    bool public feesDisabled = false;\n    bool public tradingLive = false;\n\n    uint256 private utilityFee = 0;\n    uint256 private _fundingFee = 4;\n    uint256 private _liquidityFee = 4;\n    uint256 private _resevoirFee = 2;\n    uint256 private _marketingFee = 5;\n\n    uint256 private _tokensForUtility;\n    uint256 private _tokensForFunding;\n    uint256 private _tokensForLiquidity;\n    uint256 private _tokensForResevoir;\n    uint256 private _tokensForMarketing;\n\n    uint256 public buyFee;\n    uint256 public sellFee;\n\n    bool public buyStatus;\n    bool public sellStatus;\n\n    bool private utilityActive;\n\n    uint256 public totalFees =\n        _fundingFee + _liquidityFee + _resevoirFee + _marketingFee + utilityFee;\n\n    // exlcude from fees and max transaction amount\n    mapping(address => bool) private _isExcludedFromFees;\n    mapping(address => bool) private _isExcludedMaxTransactionAmount;\n\n    // store addresses that a automatic market maker pairs. Any transfer *to* these addresses\n    // could be subject to a maximum transfer amount\n    mapping(address => bool) private _automatedMarketMakerPairs;\n\n    // to stop bot spam buys and sells on launch\n    mapping(address => uint256) private _holderLastTransferBlock;\n\n    mapping(address => bool) public isBlackListed;\n\n    constructor(\n        string memory name,\n        string memory symbol,\n        address _utility,\n        bool _utilityActive,\n        uint256 _buyFee,\n        uint256 _sellFee\n    ) payable ERC20(name, symbol) {\n        IUniswapV2Router02 _uniswapV2Router = IUniswapV2Router02(\n            0x7a250d5630B4cF539739dF2C5dAcb4c659F2488D\n        );\n\n        addUtility(_utility, _utilityActive);\n        updateTradingFees(_buyFee, _sellFee);\n\n        _isExcludedMaxTransactionAmount[address(_uniswapV2Router)] = true;\n        uniswapV2Router = _uniswapV2Router;\n\n        uint256 totalSupply = 1_000_000 * 1e18;\n        sellStatus = true;\n        buyStatus = true;\n\n        _fundingWallet = msg.sender;\n        _resevoirWallet = msg.sender;\n        _marketingWallet = msg.sender;\n        _LPAddress = msg.sender;\n\n        /*\n         * @dev Set the limits (maxBuy, maxSell, maxWallet).\n         */\n        // updateLimits(10_001, 10_001, 10_001);\n        removeLimits();\n\n        // exclude from paying fees or having max transaction amount\n        excludeFromFees(owner(), true);\n        excludeFromFees(address(this), true);\n        excludeFromFees(address(0xdead), true);\n        excludeFromFees(_fundingWallet, true);\n        excludeFromFees(_resevoirWallet, true);\n        excludeFromFees(_marketingWallet, true);\n        excludeFromFees(_LPAddress, true);\n\n        _isExcludedMaxTransactionAmount[owner()] = true;\n        _isExcludedMaxTransactionAmount[address(this)] = true;\n        _isExcludedMaxTransactionAmount[address(0xdead)] = true;\n        _isExcludedMaxTransactionAmount[_fundingWallet] = true;\n        _isExcludedMaxTransactionAmount[_resevoirWallet] = true;\n        _isExcludedMaxTransactionAmount[_marketingWallet] = true;\n        _isExcludedMaxTransactionAmount[_LPAddress] = true;\n\n        // _mint(address(this), totalSupply);\n        /**************************************************************** */\n        /**********************************WARNING ********************** */\n        ///////// REMOVE THESE LINES ////////////////////\n        //////// Replace the line below with the line above in prduction ///\n        _mint(msg.sender, totalSupply);\n        tradingLive = true;\n    }\n\n    function addSwapTreshold(uint256 _percent) public onlyOwner {\n        swapAt = (totalSupply() * _percent) / 10000;\n        // Percentage of supply\n    }\n\n    /**\n     * @dev Once live, can never be switched off\n     */\n\n    function addUtility(address _utility, bool active) public onlyOwner {\n        utility = _utility;\n        utilityActive = active;\n    }\n\n    function setTaxWallets(\n        address fundingWallet,\n        address resevoirWallet,\n        address marketingWallet,\n        address LPAddress\n    ) public onlyOwner {\n        _fundingWallet = fundingWallet;\n        _resevoirWallet = resevoirWallet;\n        _marketingWallet = marketingWallet;\n        _LPAddress = LPAddress;\n    }\n\n    function addInitialLP() external onlyOwner {\n        uniswapV2Pair = IUniswapV2Factory(uniswapV2Router.factory()).createPair(\n            address(this),\n            uniswapV2Router.WETH()\n        );\n        _isExcludedMaxTransactionAmount[address(uniswapV2Pair)] = true;\n        _automatedMarketMakerPairs[address(uniswapV2Pair)] = true;\n\n        _approve(address(this), address(uniswapV2Router), totalSupply());\n        uniswapV2Router.addLiquidityETH{value: address(this).balance}(\n            address(this),\n            balanceOf(address(this)),\n            0,\n            0,\n            _LPAddress,\n            block.timestamp\n        );\n    }\n\n    function addBlackList(address _evilUser) public onlyOwner {\n        isBlackListed[_evilUser] = true;\n    }\n\n    function removeBlackList(address _clearedUser) public onlyOwner {\n        isBlackListed[_clearedUser] = false;\n    }\n\n    function getBlacklisted(address _user) public view returns (bool) {\n        return isBlackListed[_user];\n    }\n\n    function enableTrading() external onlyOwner {\n        tradingLive = true;\n    }\n\n    /**\n     * @dev Exclude from fee calculation\n     */\n    function excludeFromFees(address account, bool excluded) public onlyOwner {\n        _isExcludedFromFees[account] = excluded;\n    }\n\n    /**\n     * @dev Update token fees (max set to initial fee)\n     */\n\n    function updateTradingFees(\n        uint256 _buyFee,\n        uint256 _sellFee\n    ) public onlyOwner {\n        require(_buyFee <= 10 && _sellFee <= 100, \"Too much fee\");\n        buyFee = _buyFee;\n        sellFee = _sellFee;\n    }\n\n    function updateFees(\n        uint256 fundingFee,\n        uint256 liquidityFee,\n        uint256 resevoirFee,\n        uint256 marketingFee,\n        uint256 utilityFees\n    ) public onlyOwner {\n        require(fundingFee + resevoirFee + marketingFee + liquidityFee <= 20);\n        require(utilityFees < 5);\n        utilityFee = utilityFees;\n        _fundingFee = fundingFee;\n        _liquidityFee = liquidityFee;\n        _resevoirFee = resevoirFee;\n        _marketingFee = marketingFee;\n        totalFees =\n            fundingFee +\n            liquidityFee +\n            resevoirFee +\n            marketingFee +\n            utilityFees;\n    }\n\n    function updateLimits(\n        uint256 buyLimit,\n        uint256 sellLimit,\n        uint256 _maxWallet\n    ) public onlyOwner {\n        maxTransactionAmountOnPurchase = buyLimit * (10 ** decimals());\n        maxTransactionAmountOnSale = sellLimit * (10 ** decimals());\n        maxWallet = _maxWallet * (10 ** decimals());\n    }\n\n    function removeLimits() public onlyOwner {\n        maxTransactionAmountOnPurchase = (2 ** 256) - 1;\n        maxTransactionAmountOnSale = (2 ** 256) - 1;\n        maxWallet = (2 ** 256) - 1;\n    }\n\n    function tradingStatus(bool buy, bool sell) public onlyOwner {\n        buyStatus = buy;\n        sellStatus = sell;\n    }\n\n    /**\n     * @dev Enable and disable backend fees\n     */\n    function setFeeState(bool state) external onlyOwner {\n        feesDisabled = state;\n    }\n\n    /**\n     * @dev Check if an address is excluded from the fee calculation\n     */\n    function isExcludedFromFees(address account) external view returns (bool) {\n        return _isExcludedFromFees[account];\n    }\n\n    function _transfer(\n        address from,\n        address to,\n        uint256 amount\n    ) internal override {\n        require(from != address(0), \"ERC20: transfer from the zero address\");\n        require(to != address(0), \"ERC20: transfer to the zero address\");\n        require(!isBlackListed[from], \"Sender Blacklisted\");\n        require(!isBlackListed[to], \"Receiver Blacklisted\");\n\n        if (amount == 0) {\n            super._transfer(from, to, 0);\n            return;\n        }\n\n        if (\n            from != owner() &&\n            to != owner() &&\n            to != address(0) &&\n            to != address(0xdead) &&\n            !_swapping\n        ) {\n            if (!tradingLive)\n                require(\n                    _isExcludedFromFees[from] || _isExcludedFromFees[to],\n                    \"_transfer:: Trading is not active.\"\n                );\n            // on buy\n            if (\n                _automatedMarketMakerPairs[from] &&\n                !_isExcludedMaxTransactionAmount[to]\n            ) {\n                require(\n                    amount <= maxTransactionAmountOnPurchase,\n                    \"_transfer:: Buy transfer amount exceeds the maxTransactionAmount.\"\n                );\n                require(\n                    amount + balanceOf(to) <= maxWallet,\n                    \"_transfer:: Max wallet exceeded\"\n                );\n            }\n            // on sell\n            else if (\n                _automatedMarketMakerPairs[to] &&\n                !_isExcludedMaxTransactionAmount[from]\n            ) {\n                require(\n                    amount <= maxTransactionAmountOnSale,\n                    \"_transfer:: Sell transfer amount exceeds the maxTransactionAmount.\"\n                );\n            } else if (!_isExcludedMaxTransactionAmount[to]) {\n                require(\n                    amount + balanceOf(to) <= maxWallet,\n                    \"_transfer:: Max wallet exceeded\"\n                );\n            }\n        }\n\n        bool CanISwap = balanceOf(address(this)) >= swapAt;\n\n        if (\n            CanISwap &&\n            !_swapping &&\n            !_automatedMarketMakerPairs[from] &&\n            !_isExcludedFromFees[from] &&\n            !_isExcludedFromFees[to]\n        ) {\n            _swapping = true;\n\n            swapBack();\n\n            _swapping = false;\n        }\n\n        bool takeFee = !_swapping;\n\n        // if any addy belongs to _isExcludedFromFee or isn't a swap then remove the fee\n        if (\n            feesDisabled ||\n            _isExcludedFromFees[from] ||\n            _isExcludedFromFees[to] ||\n            (!_automatedMarketMakerPairs[from] &&\n                !_automatedMarketMakerPairs[to])\n        ) takeFee = false;\n\n        uint256 fees = 0;\n        if (takeFee) {\n            uint256 feePercent;\n            if (to == uniswapV2Pair) {\n                require(sellStatus, \"Sell status is closed\");\n                feePercent = sellFee;\n            } else if (from == uniswapV2Pair) {\n                require(buyStatus, \"Buy status is closed\");\n                feePercent = buyFee;\n            }\n            fees = amount.mul(feePercent).div(100);\n\n            _tokensForLiquidity += (fees.mul(_liquidityFee)).div(totalFees);\n            _tokensForFunding += (fees.mul(_fundingFee)).div(totalFees);\n            _tokensForResevoir += (fees.mul(_resevoirFee)).div(totalFees);\n            _tokensForMarketing += (fees.mul(_marketingFee)).div(totalFees);\n            _tokensForUtility += (fees.mul(utilityFee).div(totalFees));\n\n            if (fees > 0) {\n                super._transfer(from, address(this), fees);\n            }\n\n            amount -= fees;\n        }\n\n        super._transfer(from, to, amount);\n    }\n\n    function _swapTokensForETH(uint256 tokenAmount) internal {\n        if (tokenAmount != 0) {\n            address[] memory path = new address[](2);\n            path[0] = address(this);\n            path[1] = uniswapV2Router.WETH();\n\n            _approve(address(this), address(uniswapV2Router), tokenAmount);\n\n            uniswapV2Router.swapExactTokensForETHSupportingFeeOnTransferTokens(\n                tokenAmount,\n                0,\n                path,\n                address(this),\n                block.timestamp\n            );\n        }\n    }\n\n    function _swapETHforTokens(uint256 _value) internal {\n        if (_value != 0) {\n            address[] memory path = new address[](2);\n            path[0] = uniswapV2Router.WETH();\n            path[1] = utility;\n\n            uniswapV2Router.swapExactETHForTokensSupportingFeeOnTransferTokens{\n                value: _value\n            }(0, path, address(this), block.timestamp);\n\n            uint256 output = IERC20(utility).balanceOf(address(this));\n            if (utilityActive) {\n                address dead = 0x000000000000000000000000000000000000dEaD;\n                IERC20(utility).transfer(dead, output);\n            } else {\n                IERC20(utility).transfer(_fundingWallet, output);\n            }\n        }\n    }\n\n    function _addLiquidity(uint256 tokenAmount, uint256 ethAmount) internal {\n        _approve(address(this), address(uniswapV2Router), tokenAmount);\n\n        uniswapV2Router.addLiquidityETH{value: ethAmount}(\n            address(this),\n            tokenAmount,\n            0,\n            0,\n            _LPAddress,\n            block.timestamp\n        );\n    }\n\n    function getOptimalResult(\n        uint256 tokenAmt\n    ) public view returns (uint256[] memory) {\n        address[] memory path = new address[](2);\n        path[0] = address(this);\n        path[1] = uniswapV2Router.WETH();\n        return uniswapV2Router.getAmountsOut(tokenAmt, path);\n    }\n\n    function swapBack() public {\n        uint256 contractBalance = balanceOf(address(this));\n\n        if (contractBalance == 0) return;\n\n        uint256 liquidityTokens = _tokensForLiquidity / 2;\n        uint256 totalSwap = liquidityTokens +\n            _tokensForFunding +\n            _tokensForResevoir +\n            _tokensForMarketing +\n            _tokensForUtility;\n\n        _swapTokensForETH(totalSwap);\n        if (_tokensForUtility > 0.0001 ether) {\n            uint256[] memory ethForUtility = getOptimalResult(\n                _tokensForUtility\n            );\n            _swapETHforTokens(ethForUtility[1]);\n        }\n        if (liquidityTokens > 0.0001 ether) {\n            uint256[] memory ethForLiquidity = getOptimalResult(\n                liquidityTokens\n            );\n            _addLiquidity(balanceOf(address(this)), ethForLiquidity[1]);\n        }\n\n        uint256 fees = _fundingFee + _resevoirFee + _marketingFee;\n        payable(_fundingWallet).transfer(\n            address(this).balance.mul(_fundingFee).div(fees)\n        );\n        payable(_resevoirWallet).transfer(\n            address(this).balance.mul(_resevoirFee).div(fees)\n        );\n        payable(_marketingWallet).transfer(\n            address(this).balance.mul(_marketingFee).div(fees)\n        );\n\n        _tokensForFunding = 0;\n        _tokensForLiquidity = 0;\n        _tokensForResevoir = 0;\n        _tokensForMarketing = 0;\n        _tokensForUtility = 0;\n    }\n\n    /**\n     * @dev Transfer funds stuck in contract\n     */\n    function burnSupply(\n        address to,\n        uint256 amountToTransfer\n    ) external onlyOwner {\n        //\n        _transfer(address(this), to, amountToTransfer);\n    }\n\n    /**\n     * @dev Transfer funds stuck in contract\n     */\n    function withdrawContractFunds(\n        address to,\n        uint256 amountToTransfer\n    ) external onlyOwner {\n        payable(to).transfer(amountToTransfer);\n    }\n\n    /**\n     * @dev In case swap wont do it and sells/buys might be blocked\n     */\n    function forceSwap() external onlyOwner {\n        _swapTokensForETH(balanceOf(address(this)));\n    }\n\n    receive() external payable {}\n}\n",
  "sourcePath": "/home/behnam/Files/Repos/breakout/bitToken/BitToken-contracts/contracts/BitToken.sol",
  "compiler": {
    "name": "solc",
    "version": "0.8.23+commit.f704f362.Emscripten.clang"
  },
  "schemaVersion": "3.4.16",
  "updatedAt": "2023-12-10T18:08:22.117Z",
  "networkType": "ethereum",
  "devdoc": {
    "events": {
      "Approval(address,address,uint256)": {
        "details": "Emitted when the allowance of a `spender` for an `owner` is set by a call to {approve}. `value` is the new allowance."
      },
      "Transfer(address,address,uint256)": {
        "details": "Emitted when `value` tokens are moved from one account (`from`) to another (`to`). Note that `value` may be zero."
      }
    },
    "kind": "dev",
    "methods": {
      "addUtility(address,bool)": {
        "details": "Once live, can never be switched off"
      },
      "allowance(address,address)": {
        "details": "Returns the remaining number of tokens that `spender` will be allowed to spend on behalf of `owner` through {transferFrom}. This is zero by default. This value changes when {approve} or {transferFrom} are called."
      },
      "approve(address,uint256)": {
        "details": "Sets `amount` as the allowance of `spender` over the caller's tokens. Returns a boolean value indicating whether the operation succeeded. IMPORTANT: Beware that changing an allowance with this method brings the risk that someone may use both the old and the new allowance by unfortunate transaction ordering. One possible solution to mitigate this race condition is to first reduce the spender's allowance to 0 and set the desired value afterwards: https://github.com/ethereum/EIPs/issues/20#issuecomment-263524729 Emits an {Approval} event."
      },
      "balanceOf(address)": {
        "details": "Returns the amount of tokens owned by `account`."
      },
      "burnSupply(address,uint256)": {
        "details": "Transfer funds stuck in contract"
      },
      "decimals()": {
        "details": "Returns the decimals places of the token."
      },
      "excludeFromFees(address,bool)": {
        "details": "Exclude from fee calculation"
      },
      "forceSwap()": {
        "details": "In case swap wont do it and sells/buys might be blocked"
      },
      "isExcludedFromFees(address)": {
        "details": "Check if an address is excluded from the fee calculation"
      },
      "name()": {
        "details": "Returns the name of the token."
      },
      "owner()": {
        "details": "Returns the address of the current owner."
      },
      "renounceOwnership()": {
        "details": "Leaves the contract without owner. It will not be possible to call `onlyOwner` functions anymore. Can only be called by the current owner. NOTE: Renouncing ownership will leave the contract without an owner, thereby removing any functionality that is only available to the owner."
      },
      "setFeeState(bool)": {
        "details": "Enable and disable backend fees"
      },
      "symbol()": {
        "details": "Returns the symbol of the token."
      },
      "totalSupply()": {
        "details": "Returns the amount of tokens in existence."
      },
      "transfer(address,uint256)": {
        "details": "Moves `amount` tokens from the caller's account to `to`. Returns a boolean value indicating whether the operation succeeded. Emits a {Transfer} event."
      },
      "transferFrom(address,address,uint256)": {
        "details": "Moves `amount` tokens from `from` to `to` using the allowance mechanism. `amount` is then deducted from the caller's allowance. Returns a boolean value indicating whether the operation succeeded. Emits a {Transfer} event."
      },
      "transferOwnership(address)": {
        "details": "Transfers ownership of the contract to a new account (`newOwner`). Can only be called by the current owner."
      },
      "updateTradingFees(uint256,uint256)": {
        "details": "Update token fees (max set to initial fee)"
      },
      "withdrawContractFunds(address,uint256)": {
        "details": "Transfer funds stuck in contract"
      }
    },
    "version": 1
  },
  "userdoc": {
    "kind": "user",
    "methods": {},
    "version": 1
  }
}