{
  "contractName": "TokenStaking",
  "abi": [
    {
      "inputs": [
        {
          "internalType": "address",
          "name": "_tokenAddress",
          "type": "address"
        }
      ],
      "stateMutability": "nonpayable",
      "type": "constructor"
    },
    {
      "anonymous": false,
      "inputs": [
        {
          "indexed": true,
          "internalType": "address",
          "name": "previousOwner",
          "type": "address"
        },
        {
          "indexed": true,
          "internalType": "address",
          "name": "newOwner",
          "type": "address"
        }
      ],
      "name": "OwnershipTransferred",
      "type": "event"
    },
    {
      "anonymous": false,
      "inputs": [
        {
          "indexed": true,
          "internalType": "address",
          "name": "user",
          "type": "address"
        },
        {
          "indexed": false,
          "internalType": "uint256",
          "name": "amount",
          "type": "uint256"
        },
        {
          "indexed": false,
          "internalType": "uint256",
          "name": "stakingPlan",
          "type": "uint256"
        }
      ],
      "name": "Staked",
      "type": "event"
    },
    {
      "anonymous": false,
      "inputs": [
        {
          "indexed": true,
          "internalType": "address",
          "name": "user",
          "type": "address"
        },
        {
          "indexed": false,
          "internalType": "uint256",
          "name": "amount",
          "type": "uint256"
        },
        {
          "indexed": false,
          "internalType": "uint256",
          "name": "reward",
          "type": "uint256"
        }
      ],
      "name": "Unstaked",
      "type": "event"
    },
    {
      "inputs": [],
      "name": "owner",
      "outputs": [
        {
          "internalType": "address",
          "name": "",
          "type": "address"
        }
      ],
      "stateMutability": "view",
      "type": "function",
      "constant": true
    },
    {
      "inputs": [],
      "name": "renounceOwnership",
      "outputs": [],
      "stateMutability": "nonpayable",
      "type": "function"
    },
    {
      "inputs": [
        {
          "internalType": "address",
          "name": "newOwner",
          "type": "address"
        }
      ],
      "name": "transferOwnership",
      "outputs": [],
      "stateMutability": "nonpayable",
      "type": "function"
    },
    {
      "inputs": [
        {
          "internalType": "uint256",
          "name": "_amount",
          "type": "uint256"
        },
        {
          "internalType": "uint256",
          "name": "_stakingPlan",
          "type": "uint256"
        }
      ],
      "name": "stake",
      "outputs": [],
      "stateMutability": "nonpayable",
      "type": "function"
    },
    {
      "inputs": [],
      "name": "unstake",
      "outputs": [],
      "stateMutability": "nonpayable",
      "type": "function"
    },
    {
      "inputs": [],
      "name": "getMyStakedAmount",
      "outputs": [
        {
          "internalType": "uint256",
          "name": "",
          "type": "uint256"
        }
      ],
      "stateMutability": "view",
      "type": "function",
      "constant": true
    },
    {
      "inputs": [],
      "name": "getMyStakingPlan",
      "outputs": [
        {
          "internalType": "uint256",
          "name": "",
          "type": "uint256"
        }
      ],
      "stateMutability": "view",
      "type": "function",
      "constant": true
    },
    {
      "inputs": [],
      "name": "getMyStakingStartTime",
      "outputs": [
        {
          "internalType": "uint256",
          "name": "",
          "type": "uint256"
        }
      ],
      "stateMutability": "view",
      "type": "function",
      "constant": true
    },
    {
      "inputs": [],
      "name": "getMyStakingRemainingTime",
      "outputs": [
        {
          "internalType": "uint256",
          "name": "",
          "type": "uint256"
        }
      ],
      "stateMutability": "view",
      "type": "function",
      "constant": true
    },
    {
      "inputs": [],
      "name": "getMyStakingMinDuration",
      "outputs": [
        {
          "internalType": "uint256",
          "name": "",
          "type": "uint256"
        }
      ],
      "stateMutability": "view",
      "type": "function",
      "constant": true
    },
    {
      "inputs": [],
      "name": "getMyStakingTimeElapsed",
      "outputs": [
        {
          "internalType": "uint256",
          "name": "",
          "type": "uint256"
        }
      ],
      "stateMutability": "view",
      "type": "function",
      "constant": true
    },
    {
      "inputs": [],
      "name": "getMyStakingProfit",
      "outputs": [
        {
          "internalType": "uint256",
          "name": "",
          "type": "uint256"
        }
      ],
      "stateMutability": "view",
      "type": "function",
      "constant": true
    }
  ],
  "bytecode": "0x60806040523480156200001157600080fd5b5060405162001ee738038062001ee78339818101604052810190620000379190620001dc565b620000576200004b620000a660201b60201c565b620000ae60201b60201c565b6001808190555080600260006101000a81548173ffffffffffffffffffffffffffffffffffffffff021916908373ffffffffffffffffffffffffffffffffffffffff160217905550506200020e565b600033905090565b60008060009054906101000a900473ffffffffffffffffffffffffffffffffffffffff169050816000806101000a81548173ffffffffffffffffffffffffffffffffffffffff021916908373ffffffffffffffffffffffffffffffffffffffff1602179055508173ffffffffffffffffffffffffffffffffffffffff168173ffffffffffffffffffffffffffffffffffffffff167f8be0079c531659141344cd1fd0a4f28419497f9722a3daafe3b4186f6b6457e060405160405180910390a35050565b600080fd5b600073ffffffffffffffffffffffffffffffffffffffff82169050919050565b6000620001a48262000177565b9050919050565b620001b68162000197565b8114620001c257600080fd5b50565b600081519050620001d681620001ab565b92915050565b600060208284031215620001f557620001f462000172565b5b60006200020584828501620001c5565b91505092915050565b611cc9806200021e6000396000f3fe608060405234801561001057600080fd5b50600436106100b45760003560e01c806386b19a181161007157806386b19a18146101435780638da5cb5b14610161578063a477897d1461017f578063b849bb1f1461019d578063d596533b146101bb578063f2fde38b146101d9576100b4565b80632def6620146100b95780634931e39b146100c35780636b11ae11146100e1578063715018a6146100ff5780637b0472f0146101095780637f81549814610125575b600080fd5b6100c16101f5565b005b6100cb6104a5565b6040516100d89190611077565b60405180910390f35b6100e96104c5565b6040516100f69190611077565b60405180910390f35b6101076104e5565b005b610123600480360381019061011e91906110c3565b6104f9565b005b61012d6108a4565b60405161013a9190611077565b60405180910390f35b61014b6108d2565b6040516101589190611077565b60405180910390f35b610169610901565b6040516101769190611144565b60405180910390f35b61018761092a565b6040516101949190611077565b60405180910390f35b6101a5610992565b6040516101b29190611077565b60405180910390f35b6101c36109b2565b6040516101d09190611077565b60405180910390f35b6101f360048036038101906101ee919061118b565b610a12565b005b6101fd610a95565b600061020f61020a610ae4565b610aec565b90506000816000015411610258576040517f08c379a000000000000000000000000000000000000000000000000000000000815260040161024f9061123b565b60405180910390fd5b60006102678260020154610b39565b90506000610279428460010154610b5d565b9050600061028642610b78565b905060006102978560010154610b78565b905060006102a484610b78565b905060006102b186610b78565b905085851015828286866040516020016102ce9493929190611422565b6040516020818303038152906040529061031e576040517f08c379a000000000000000000000000000000000000000000000000000000000815260040161031591906114d6565b60405180910390fd5b506000876000015490506000610338878a60000154610c46565b905060008960000181905550600081836103529190611527565b9050600260009054906101000a900473ffffffffffffffffffffffffffffffffffffffff1673ffffffffffffffffffffffffffffffffffffffff1663a9059cbb61039a610ae4565b836040518363ffffffff1660e01b81526004016103b892919061155b565b6020604051808303816000875af11580156103d7573d6000803e3d6000fd5b505050506040513d601f19601f820116820180604052508101906103fb91906115bc565b61043a576040517f08c379a00000000000000000000000000000000000000000000000000000000081526004016104319061165b565b60405180910390fd5b610442610ae4565b73ffffffffffffffffffffffffffffffffffffffff167f7fc4727e062e336010f2c282598ef5f14facb3de68cf8195c2f23e1454b2b74e848460405161048992919061167b565b60405180910390a2505050505050505050506104a3610c6d565b565b6000806104b86104b3610ae4565b610aec565b9050806002015491505090565b6000806104d86104d3610ae4565b610aec565b9050806000015491505090565b6104ed610c76565b6104f76000610cf4565b565b610501610a95565b60008211610544576040517f08c379a000000000000000000000000000000000000000000000000000000000815260040161053b90611716565b60405180910390fd5b73__Utils_________________________________6353d9ce1e826040518263ffffffff1660e01b815260040161057b9190611745565b602060405180830381865af4158015610598573d6000803e3d6000fd5b505050506040513d601f19601f820116820180604052508101906105bc91906115bc565b6105fb576040517f08c379a00000000000000000000000000000000000000000000000000000000081526004016105f2906117ac565b60405180910390fd5b600061060d610608610ae4565b610aec565b90506000816000015414610656576040517f08c379a000000000000000000000000000000000000000000000000000000000815260040161064d90611864565b60405180910390fd5b82600260009054906101000a900473ffffffffffffffffffffffffffffffffffffffff1673ffffffffffffffffffffffffffffffffffffffff1663dd62ed3e61069d610ae4565b306040518363ffffffff1660e01b81526004016106bb929190611884565b602060405180830381865afa1580156106d8573d6000803e3d6000fd5b505050506040513d601f19601f820116820180604052508101906106fc91906118c2565b101561073d576040517f08c379a000000000000000000000000000000000000000000000000000000000815260040161073490611961565b60405180910390fd5b600260009054906101000a900473ffffffffffffffffffffffffffffffffffffffff1673ffffffffffffffffffffffffffffffffffffffff166323b872dd610783610ae4565b30866040518463ffffffff1660e01b81526004016107a393929190611981565b6020604051808303816000875af11580156107c2573d6000803e3d6000fd5b505050506040513d601f19601f820116820180604052508101906107e691906115bc565b610825576040517f08c379a000000000000000000000000000000000000000000000000000000000815260040161081c90611a04565b60405180910390fd5b428160010181905550818160020181905550828160000181905550610848610ae4565b73ffffffffffffffffffffffffffffffffffffffff167f1449c6dd7851abc30abf37f57715f492010519147cc2652fbc38202c18a6ee90848460405161088f92919061167b565b60405180910390a2506108a0610c6d565b5050565b6000806108b76108b2610ae4565b610aec565b905060006108c88260020154610b39565b9050809250505090565b6000806108e56108e0610ae4565b610aec565b905060006108f7428360010154610b5d565b9050809250505090565b60008060009054906101000a900473ffffffffffffffffffffffffffffffffffffffff16905090565b60008061093d610938610ae4565b610aec565b9050600061094e8260020154610b39565b90506000610960428460010154610b5d565b9050818110610987576000610979828560000154610c46565b90508094505050505061098f565b600093505050505b90565b6000806109a56109a0610ae4565b610aec565b9050806001015491505090565b6000806109c56109c0610ae4565b610aec565b905060006109d68260020154610b39565b905060006109e8428460010154610b5d565b90508181106109fd5760009350505050610a0f565b8082610a099190611a24565b93505050505b90565b610a1a610c76565b600073ffffffffffffffffffffffffffffffffffffffff168173ffffffffffffffffffffffffffffffffffffffff1603610a89576040517f08c379a0000000000000000000000000000000000000000000000000000000008152600401610a8090611aca565b60405180910390fd5b610a9281610cf4565b50565b600260015403610ada576040517f08c379a0000000000000000000000000000000000000000000000000000000008152600401610ad190611b36565b60405180910390fd5b6002600181905550565b600033905090565b600080600360008473ffffffffffffffffffffffffffffffffffffffff1673ffffffffffffffffffffffffffffffffffffffff168152602001908152602001600020905080915050919050565b6000610b43610db8565b610b4c83610dc1565b610b569190611b56565b9050919050565b6000808284610b6c9190611a24565b90508091505092915050565b606060006001610b8784610e00565b01905060008167ffffffffffffffff811115610ba657610ba5611b98565b5b6040519080825280601f01601f191660200182016040528015610bd85781602001600182028036833780820191505090505b509050600082602001820190505b600115610c3b578080600190039150507f3031323334353637383961626364656600000000000000000000000000000000600a86061a8153600a8581610c2f57610c2e611bc7565b5b04945060008503610be6575b819350505050919050565b600080610c5284610f53565b90506000610c608483610ff8565b9050809250505092915050565b60018081905550565b610c7e610ae4565b73ffffffffffffffffffffffffffffffffffffffff16610c9c610901565b73ffffffffffffffffffffffffffffffffffffffff1614610cf2576040517f08c379a0000000000000000000000000000000000000000000000000000000008152600401610ce990611c42565b60405180910390fd5b565b60008060009054906101000a900473ffffffffffffffffffffffffffffffffffffffff169050816000806101000a81548173ffffffffffffffffffffffffffffffffffffffff021916908373ffffffffffffffffffffffffffffffffffffffff1602179055508173ffffffffffffffffffffffffffffffffffffffff168173ffffffffffffffffffffffffffffffffffffffff167f8be0079c531659141344cd1fd0a4f28419497f9722a3daafe3b4186f6b6457e060405160405180910390a35050565b6000603c905090565b600060018203610dd45760019050610dfb565b60028203610de55760059050610dfb565b60038203610df657600a9050610dfb565b600080fd5b919050565b600080600090507a184f03e93ff9f4daa797ed6e38ed64bf6a1f0100000000000000008310610e5e577a184f03e93ff9f4daa797ed6e38ed64bf6a1f0100000000000000008381610e5457610e53611bc7565b5b0492506040810190505b6d04ee2d6d415b85acef81000000008310610e9b576d04ee2d6d415b85acef81000000008381610e9157610e90611bc7565b5b0492506020810190505b662386f26fc100008310610eca57662386f26fc100008381610ec057610ebf611bc7565b5b0492506010810190505b6305f5e1008310610ef3576305f5e1008381610ee957610ee8611bc7565b5b0492506008810190505b6127108310610f18576127108381610f0e57610f0d611bc7565b5b0492506004810190505b60648310610f3b5760648381610f3157610f30611bc7565b5b0492506002810190505b600a8310610f4a576001810190505b80915050919050565b6000610f5d610db8565b610f676003610dc1565b610f719190611b56565b8210610f8857610f81600361101f565b9050610ff3565b610f90610db8565b610f9a6002610dc1565b610fa49190611b56565b8210610fbb57610fb4600261101f565b9050610ff3565b610fc3610db8565b610fcd6001610dc1565b610fd79190611b56565b8210610fee57610fe7600161101f565b9050610ff3565b600080fd5b919050565b600080606483856110099190611b56565b6110139190611c62565b90508091505092915050565b6000600182036110325760019050611059565b600282036110435760059050611059565b6003820361105457600a9050611059565b600080fd5b919050565b6000819050919050565b6110718161105e565b82525050565b600060208201905061108c6000830184611068565b92915050565b600080fd5b6110a08161105e565b81146110ab57600080fd5b50565b6000813590506110bd81611097565b92915050565b600080604083850312156110da576110d9611092565b5b60006110e8858286016110ae565b92505060206110f9858286016110ae565b9150509250929050565b600073ffffffffffffffffffffffffffffffffffffffff82169050919050565b600061112e82611103565b9050919050565b61113e81611123565b82525050565b60006020820190506111596000830184611135565b92915050565b61116881611123565b811461117357600080fd5b50565b6000813590506111858161115f565b92915050565b6000602082840312156111a1576111a0611092565b5b60006111af84828501611176565b91505092915050565b600082825260208201905092915050565b7f5374616b6572206861736e2774207374616b656420616e7920746f6b656e732060008201527f6f7220756e7374616b656420616c72656164792e000000000000000000000000602082015250565b60006112256034836111b8565b9150611230826111c9565b604082019050919050565b6000602082019050818103600083015261125481611218565b9050919050565b600081905092915050565b7f5374616b696e67206475726174696f6e2069736e27742079657420706173736560008201527f642c20656c61707365643d200000000000000000000000000000000000000000602082015250565b60006112c2602c8361125b565b91506112cd82611266565b602c82019050919050565b600081519050919050565b60005b838110156113015780820151818401526020810190506112e6565b60008484015250505050565b6000611318826112d8565b611322818561125b565b93506113328185602086016112e3565b80840191505092915050565b7f2c206e65656465643d2000000000000000000000000000000000000000000000600082015250565b6000611374600a8361125b565b915061137f8261133e565b600a82019050919050565b7f2c20626c6f636b2074696d657374616d703d2000000000000000000000000000600082015250565b60006113c060138361125b565b91506113cb8261138a565b601382019050919050565b7f2c2073746172742074696d653d20000000000000000000000000000000000000600082015250565b600061140c600e8361125b565b9150611417826113d6565b600e82019050919050565b600061142d826112b5565b9150611439828761130d565b915061144482611367565b9150611450828661130d565b915061145b826113b3565b9150611467828561130d565b9150611472826113ff565b915061147e828461130d565b915081905095945050505050565b6000601f19601f8301169050919050565b60006114a8826112d8565b6114b281856111b8565b93506114c28185602086016112e3565b6114cb8161148c565b840191505092915050565b600060208201905081810360008301526114f0818461149d565b905092915050565b7f4e487b7100000000000000000000000000000000000000000000000000000000600052601160045260246000fd5b60006115328261105e565b915061153d8361105e565b9250828201905080821115611555576115546114f8565b5b92915050565b60006040820190506115706000830185611135565b61157d6020830184611068565b9392505050565b60008115159050919050565b61159981611584565b81146115a457600080fd5b50565b6000815190506115b681611590565b92915050565b6000602082840312156115d2576115d1611092565b5b60006115e0848285016115a7565b91505092915050565b7f556e7374616b696e67206661696c65642e20436f756c646e2774207472616e7360008201527f6665722066756e647320746f207468652073656e6465722e0000000000000000602082015250565b60006116456038836111b8565b9150611650826115e9565b604082019050919050565b6000602082019050818103600083015261167481611638565b9050919050565b60006040820190506116906000830185611068565b61169d6020830184611068565b9392505050565b7f416d6f756e74206d7573742062652067726561746f72207468616e207a65726f60008201527f2e00000000000000000000000000000000000000000000000000000000000000602082015250565b60006117006021836111b8565b915061170b826116a4565b604082019050919050565b6000602082019050818103600083015261172f816116f3565b9050919050565b61173f8161105e565b82525050565b600060208201905061175a6000830184611736565b92915050565b7f5374616b696e6720706c616e206e756d6265722069736e27742076616c69642e600082015250565b60006117966020836111b8565b91506117a182611760565b602082019050919050565b600060208201905081810360008301526117c581611789565b9050919050565b7f546865207374616b6572206973207374616b696e6720616c72656164792c207260008201527f657374616b696e672069736e277420616c6c6f77656420756e6c65737320756e60208201527f7374616b65642066697273742e00000000000000000000000000000000000000604082015250565b600061184e604d836111b8565b9150611859826117cc565b606082019050919050565b6000602082019050818103600083015261187d81611841565b9050919050565b60006040820190506118996000830185611135565b6118a66020830184611135565b9392505050565b6000815190506118bc81611097565b92915050565b6000602082840312156118d8576118d7611092565b5b60006118e6848285016118ad565b91505092915050565b7f5374616b6572206861736e277420616c6c6f77656420746865207374616b696e60008201527f6720636f6e747261637420746f207472616e736665722066756e647300000000602082015250565b600061194b603c836111b8565b9150611956826118ef565b604082019050919050565b6000602082019050818103600083015261197a8161193e565b9050919050565b60006060820190506119966000830186611135565b6119a36020830185611135565b6119b06040830184611068565b949350505050565b7f5472616e73666572696e672066756e6473206661696c65642e00000000000000600082015250565b60006119ee6019836111b8565b91506119f9826119b8565b602082019050919050565b60006020820190508181036000830152611a1d816119e1565b9050919050565b6000611a2f8261105e565b9150611a3a8361105e565b9250828203905081811115611a5257611a516114f8565b5b92915050565b7f4f776e61626c653a206e6577206f776e657220697320746865207a65726f206160008201527f6464726573730000000000000000000000000000000000000000000000000000602082015250565b6000611ab46026836111b8565b9150611abf82611a58565b604082019050919050565b60006020820190508181036000830152611ae381611aa7565b9050919050565b7f5265656e7472616e637947756172643a207265656e7472616e742063616c6c00600082015250565b6000611b20601f836111b8565b9150611b2b82611aea565b602082019050919050565b60006020820190508181036000830152611b4f81611b13565b9050919050565b6000611b618261105e565b9150611b6c8361105e565b9250828202611b7a8161105e565b91508282048414831517611b9157611b906114f8565b5b5092915050565b7f4e487b7100000000000000000000000000000000000000000000000000000000600052604160045260246000fd5b7f4e487b7100000000000000000000000000000000000000000000000000000000600052601260045260246000fd5b7f4f776e61626c653a2063616c6c6572206973206e6f7420746865206f776e6572600082015250565b6000611c2c6020836111b8565b9150611c3782611bf6565b602082019050919050565b60006020820190508181036000830152611c5b81611c1f565b9050919050565b6000611c6d8261105e565b9150611c788361105e565b925082611c8857611c87611bc7565b5b82820490509291505056fea264697066735822122088a3aae7e3da77c9843afa9b30fab49596cd2cbc304b1ecc5accf47c06ce291764736f6c63430008130033",
  "immutableReferences": {},
  "source": "// SPDX-License-Identifier: MIT\n// Erc20 token staking smart contract\npragma solidity ^0.8.19;\n\nimport \"@openzeppelin/contracts/token/ERC20/IERC20.sol\";\nimport \"@openzeppelin/contracts/utils/Strings.sol\";\nimport \"@openzeppelin/contracts/access/Ownable.sol\";\nimport \"@openzeppelin/contracts/security/ReentrancyGuard.sol\";\n\nimport \"./Utils.sol\";\n\n/**\n * @dev An smart contract for staking any ERC20 token\n */\n\ncontract TokenStaking is Ownable, ReentrancyGuard {\n    struct Staker {\n        uint256 stakedAmount;\n        uint256 startTime;\n        uint256 stakingPlan;\n    }\n\n    IERC20 private _token;\n    mapping(address => Staker) private _stakers;\n\n    event Staked(address indexed user, uint256 amount, uint256 stakingPlan);\n    event Unstaked(address indexed user, uint256 amount, uint256 reward);\n\n    /**\n     * @dev Constructor sets the ERC20 token that can be used for staking\n     */\n    constructor(address _tokenAddress) {\n        _token = IERC20(_tokenAddress);\n    }\n\n    /**\n     * @dev stake function will be used to stake tokens\n     * @param _amount | the amount of token to be transfered\n     * @param _stakingPlan | the staking plan index\n     */\n    function stake(\n        uint256 _amount,\n        uint256 _stakingPlan\n    ) external nonReentrant {\n        // Checking the staking amount\n        require(_amount > 0, \"Amount must be greator than zero.\");\n\n        // Checking to see if the chosen staking plan is valid\n        require(\n            Utils.isStakingPlanValid(_stakingPlan),\n            \"Staking plan number isn't valid.\"\n        );\n\n        // Get staker from storage\n        Staker storage _staker = _getStaker(_msgSender());\n\n        // Check to see if the staker is already staking or not\n        require(\n            _staker.stakedAmount == 0,\n            \"The staker is staking already, restaking isn't allowed unless unstaked first.\"\n        );\n\n        // Check to see if the allowance mechanism is enabled by the staker\n        require(\n            _token.allowance(_msgSender(), address(this)) >= _amount,\n            \"Staker hasn't allowed the staking contract to transfer funds\"\n        );\n\n        // Check to see if the token is transferred to our contract\n        require(\n            _token.transferFrom(_msgSender(), address(this), _amount),\n            \"Transfering funds failed.\"\n        );\n\n        // Fill up staker information\n        // Note that we save the plan index, not the duration or anything else\n        _staker.startTime = block.timestamp;\n        _staker.stakingPlan = _stakingPlan;\n        _staker.stakedAmount = _amount;\n\n        // Emit staked event to announce successfull stake\n        emit Staked(_msgSender(), _amount, _stakingPlan);\n    }\n\n    /**\n     * @dev This function will be called to withdraw the staked amount and possible reward\n     */\n    function unstake() external nonReentrant {\n        // Get the staker from storage\n        Staker storage _staker = _getStaker(_msgSender());\n\n        // Check to see if staker amount is non-zero\n        require(\n            _staker.stakedAmount > 0,\n            \"Staker hasn't staked any tokens or unstaked already.\"\n        );\n\n        uint256 _minStakingDuration = Utils.convertPlanToDuration(\n            _staker.stakingPlan\n        );\n        uint256 _timeElapsed = Utils.calculateTimeElapsed(\n            block.timestamp,\n            _staker.startTime\n        );\n\n        string memory _blockTimeStampStr = Strings.toString(block.timestamp);\n        string memory _startTimeStr = Strings.toString(_staker.startTime);\n        string memory _timeElapsedStr = Strings.toString(_timeElapsed);\n        string memory _minStakingDurationStr = Strings.toString(\n            _minStakingDuration\n        );\n\n        // Check to see if the minimum duration is passed\n        require(\n            _timeElapsed >= _minStakingDuration,\n            string(\n                abi.encodePacked(\n                    \"Staking duration isn't yet passed, elapsed= \",\n                    _timeElapsedStr,\n                    \", needed= \",\n                    _minStakingDurationStr,\n                    \", block timestamp= \",\n                    _blockTimeStampStr,\n                    \", start time= \",\n                    _startTimeStr\n                )\n            )\n        );\n\n        // We need to copy _staker.stakedAmount to a variable\n        // for calulating total amount and event emit\n        uint256 _stakedAmount = _staker.stakedAmount;\n\n        uint256 _rewardAmount = Utils.calculateReward(\n            _timeElapsed,\n            _staker.stakedAmount\n        );\n\n        // Safely setting stakedAmount of staker to zero\n        _staker.stakedAmount = 0;\n\n        // Calculating total amount\n        uint256 _totalAmount = _stakedAmount + _rewardAmount;\n\n        // Check to see if transfer is successfull\n        require(\n            _token.transfer(_msgSender(), _totalAmount),\n            \"Unstaking failed. Couldn't transfer funds to the sender.\"\n        );\n\n        emit Unstaked(_msgSender(), _stakedAmount, _rewardAmount);\n    }\n\n    /**\n     * @dev Get the sender staked amount\n     */\n    function getMyStakedAmount() external view returns (uint256) {\n        Staker storage _staker = _getStaker(_msgSender());\n\n        return _staker.stakedAmount;\n    }\n\n    /**\n     * @dev Get the sender staking plan index\n     */\n    function getMyStakingPlan() external view returns (uint256) {\n        Staker storage _staker = _getStaker(_msgSender());\n\n        return _staker.stakingPlan;\n    }\n\n    /**\n     * @dev Get the staker start timestamp\n     */\n    function getMyStakingStartTime() external view returns (uint256) {\n        Staker storage _staker = _getStaker(_msgSender());\n\n        return _staker.startTime;\n    }\n\n    /**\n     * @dev Get the staker remaining duration to pass the minimum required staking duration\n     */\n    function getMyStakingRemainingTime() external view returns (uint256) {\n        Staker storage _staker = _getStaker(_msgSender());\n\n        uint256 _duration = Utils.convertPlanToDuration(_staker.stakingPlan);\n\n        uint256 _timeElapsed = Utils.calculateTimeElapsed(\n            block.timestamp,\n            _staker.startTime\n        );\n\n        if (_timeElapsed >= _duration) {\n            return 0;\n        }\n\n        return (_duration - _timeElapsed);\n    }\n\n    /**\n     * @dev Calculate required staking duration is seconds\n     */\n    function getMyStakingMinDuration() external view returns (uint256) {\n        Staker storage _staker = _getStaker(_msgSender());\n\n        uint256 _duration = Utils.convertPlanToDuration(_staker.stakingPlan);\n\n        return _duration;\n    }\n\n    /**\n     * @dev Get the staker staking time elapsed in seconds\n     */\n    function getMyStakingTimeElapsed() external view returns (uint256) {\n        Staker storage _staker = _getStaker(_msgSender());\n\n        uint256 _timeElapsed = Utils.calculateTimeElapsed(\n            block.timestamp,\n            _staker.startTime\n        );\n\n        return _timeElapsed;\n    }\n\n    /**\n     * @dev Calculate the staker profit from staking token\n     */\n    function getMyStakingProfit() external view returns (uint256) {\n        Staker storage _staker = _getStaker(_msgSender());\n\n        uint256 _minStakingDuration = Utils.convertPlanToDuration(\n            _staker.stakingPlan\n        );\n        uint256 _timeElapsed = Utils.calculateTimeElapsed(\n            block.timestamp,\n            _staker.startTime\n        );\n\n        if (_timeElapsed >= _minStakingDuration) {\n            uint256 _rewardAmount = Utils.calculateReward(\n                _timeElapsed,\n                _staker.stakedAmount\n            );\n\n            return _rewardAmount;\n        }\n\n        return 0;\n    }\n\n    /**\n     * @dev Get staker data from storage\n     * @param _stakerAddress the address of staker to get information\n     */\n    function _getStaker(\n        address _stakerAddress\n    ) private view returns (Staker storage) {\n        Staker storage staker = _stakers[_stakerAddress];\n\n        return staker;\n    }\n}\n",
  "sourcePath": "/home/behnam/Repos/Wadi/SmartContracts/Erc20TokenStaking/contracts/TokenStaking.sol",
  "compiler": {
    "name": "solc",
    "version": "0.8.19+commit.7dd6d404.Emscripten.clang"
  },
  "schemaVersion": "3.4.13",
  "updatedAt": "2023-05-02T09:28:12.502Z",
  "networkType": "ethereum",
  "devdoc": {
    "details": "An smart contract for staking any ERC20 token",
    "kind": "dev",
    "methods": {
      "constructor": {
        "details": "Constructor sets the ERC20 token that can be used for staking"
      },
      "getMyStakedAmount()": {
        "details": "Get the sender staked amount"
      },
      "getMyStakingMinDuration()": {
        "details": "Calculate required staking duration is seconds"
      },
      "getMyStakingPlan()": {
        "details": "Get the sender staking plan index"
      },
      "getMyStakingProfit()": {
        "details": "Calculate the staker profit from staking token"
      },
      "getMyStakingRemainingTime()": {
        "details": "Get the staker remaining duration to pass the minimum required staking duration"
      },
      "getMyStakingStartTime()": {
        "details": "Get the staker start timestamp"
      },
      "getMyStakingTimeElapsed()": {
        "details": "Get the staker staking time elapsed in seconds"
      },
      "owner()": {
        "details": "Returns the address of the current owner."
      },
      "renounceOwnership()": {
        "details": "Leaves the contract without owner. It will not be possible to call `onlyOwner` functions anymore. Can only be called by the current owner. NOTE: Renouncing ownership will leave the contract without an owner, thereby removing any functionality that is only available to the owner."
      },
      "stake(uint256,uint256)": {
        "details": "stake function will be used to stake tokens",
        "params": {
          "_amount": "| the amount of token to be transfered",
          "_stakingPlan": "| the staking plan index"
        }
      },
      "transferOwnership(address)": {
        "details": "Transfers ownership of the contract to a new account (`newOwner`). Can only be called by the current owner."
      },
      "unstake()": {
        "details": "This function will be called to withdraw the staked amount and possible reward"
      }
    },
    "version": 1
  },
  "userdoc": {
    "kind": "user",
    "methods": {},
    "version": 1
  }
}