{
  "contractName": "TokenStaking",
  "abi": [
    {
      "inputs": [
        {
          "internalType": "address",
          "name": "_tokenAddress",
          "type": "address"
        }
      ],
      "stateMutability": "nonpayable",
      "type": "constructor"
    },
    {
      "anonymous": false,
      "inputs": [
        {
          "indexed": true,
          "internalType": "address",
          "name": "user",
          "type": "address"
        },
        {
          "indexed": false,
          "internalType": "uint256",
          "name": "amount",
          "type": "uint256"
        }
      ],
      "name": "Claimed",
      "type": "event"
    },
    {
      "anonymous": false,
      "inputs": [
        {
          "indexed": true,
          "internalType": "address",
          "name": "previousOwner",
          "type": "address"
        },
        {
          "indexed": true,
          "internalType": "address",
          "name": "newOwner",
          "type": "address"
        }
      ],
      "name": "OwnershipTransferred",
      "type": "event"
    },
    {
      "anonymous": false,
      "inputs": [
        {
          "indexed": false,
          "internalType": "uint256",
          "name": "amount",
          "type": "uint256"
        }
      ],
      "name": "RewardAdded",
      "type": "event"
    },
    {
      "anonymous": false,
      "inputs": [
        {
          "indexed": false,
          "internalType": "uint256",
          "name": "amount",
          "type": "uint256"
        }
      ],
      "name": "RewardDistributed",
      "type": "event"
    },
    {
      "anonymous": false,
      "inputs": [
        {
          "indexed": true,
          "internalType": "address",
          "name": "user",
          "type": "address"
        },
        {
          "indexed": false,
          "internalType": "uint256",
          "name": "amount",
          "type": "uint256"
        }
      ],
      "name": "Staked",
      "type": "event"
    },
    {
      "anonymous": false,
      "inputs": [
        {
          "indexed": true,
          "internalType": "address",
          "name": "user",
          "type": "address"
        },
        {
          "indexed": false,
          "internalType": "uint256",
          "name": "amount",
          "type": "uint256"
        }
      ],
      "name": "Unstaked",
      "type": "event"
    },
    {
      "inputs": [],
      "name": "minStakingAmount",
      "outputs": [
        {
          "internalType": "uint256",
          "name": "",
          "type": "uint256"
        }
      ],
      "stateMutability": "view",
      "type": "function",
      "constant": true
    },
    {
      "inputs": [],
      "name": "owner",
      "outputs": [
        {
          "internalType": "address",
          "name": "",
          "type": "address"
        }
      ],
      "stateMutability": "view",
      "type": "function",
      "constant": true
    },
    {
      "inputs": [],
      "name": "renounceOwnership",
      "outputs": [],
      "stateMutability": "nonpayable",
      "type": "function"
    },
    {
      "inputs": [],
      "name": "rewardTreasury",
      "outputs": [
        {
          "internalType": "uint256",
          "name": "",
          "type": "uint256"
        }
      ],
      "stateMutability": "view",
      "type": "function",
      "constant": true
    },
    {
      "inputs": [],
      "name": "rollingDay",
      "outputs": [
        {
          "internalType": "uint256",
          "name": "",
          "type": "uint256"
        }
      ],
      "stateMutability": "view",
      "type": "function",
      "constant": true
    },
    {
      "inputs": [],
      "name": "totalClaimed",
      "outputs": [
        {
          "internalType": "uint256",
          "name": "",
          "type": "uint256"
        }
      ],
      "stateMutability": "view",
      "type": "function",
      "constant": true
    },
    {
      "inputs": [],
      "name": "totalLocked",
      "outputs": [
        {
          "internalType": "uint256",
          "name": "",
          "type": "uint256"
        }
      ],
      "stateMutability": "view",
      "type": "function",
      "constant": true
    },
    {
      "inputs": [],
      "name": "totalReward",
      "outputs": [
        {
          "internalType": "uint256",
          "name": "",
          "type": "uint256"
        }
      ],
      "stateMutability": "view",
      "type": "function",
      "constant": true
    },
    {
      "inputs": [
        {
          "internalType": "address",
          "name": "newOwner",
          "type": "address"
        }
      ],
      "name": "transferOwnership",
      "outputs": [],
      "stateMutability": "nonpayable",
      "type": "function"
    },
    {
      "inputs": [
        {
          "internalType": "uint256",
          "name": "_rollingDay",
          "type": "uint256"
        }
      ],
      "name": "setRollingDay",
      "outputs": [],
      "stateMutability": "nonpayable",
      "type": "function"
    },
    {
      "inputs": [
        {
          "internalType": "uint256",
          "name": "_minStakingAmount",
          "type": "uint256"
        }
      ],
      "name": "setMinStakingAmount",
      "outputs": [],
      "stateMutability": "nonpayable",
      "type": "function"
    },
    {
      "inputs": [
        {
          "internalType": "address",
          "name": "_address",
          "type": "address"
        }
      ],
      "name": "addToBlacklist",
      "outputs": [],
      "stateMutability": "nonpayable",
      "type": "function"
    },
    {
      "inputs": [
        {
          "internalType": "address",
          "name": "_address",
          "type": "address"
        }
      ],
      "name": "removeFromBlacklist",
      "outputs": [],
      "stateMutability": "nonpayable",
      "type": "function"
    },
    {
      "inputs": [],
      "name": "getBlacklist",
      "outputs": [
        {
          "internalType": "address[]",
          "name": "",
          "type": "address[]"
        }
      ],
      "stateMutability": "view",
      "type": "function",
      "constant": true
    },
    {
      "inputs": [
        {
          "internalType": "uint256",
          "name": "_amount",
          "type": "uint256"
        }
      ],
      "name": "addReward",
      "outputs": [],
      "stateMutability": "nonpayable",
      "type": "function"
    },
    {
      "inputs": [],
      "name": "getTotalRates",
      "outputs": [
        {
          "internalType": "uint256",
          "name": "",
          "type": "uint256"
        }
      ],
      "stateMutability": "view",
      "type": "function",
      "constant": true
    },
    {
      "inputs": [],
      "name": "distributeReward",
      "outputs": [],
      "stateMutability": "nonpayable",
      "type": "function"
    },
    {
      "inputs": [
        {
          "internalType": "uint256",
          "name": "_amount",
          "type": "uint256"
        }
      ],
      "name": "stake",
      "outputs": [],
      "stateMutability": "nonpayable",
      "type": "function"
    },
    {
      "inputs": [
        {
          "internalType": "uint256",
          "name": "_amount",
          "type": "uint256"
        }
      ],
      "name": "unstake",
      "outputs": [],
      "stateMutability": "nonpayable",
      "type": "function"
    },
    {
      "inputs": [
        {
          "internalType": "uint256",
          "name": "_amount",
          "type": "uint256"
        },
        {
          "internalType": "address",
          "name": "_to",
          "type": "address"
        }
      ],
      "name": "claimReward",
      "outputs": [],
      "stateMutability": "nonpayable",
      "type": "function"
    },
    {
      "inputs": [],
      "name": "getMyCurrentStakedAmount",
      "outputs": [
        {
          "internalType": "uint256",
          "name": "",
          "type": "uint256"
        }
      ],
      "stateMutability": "view",
      "type": "function",
      "constant": true
    },
    {
      "inputs": [
        {
          "internalType": "uint256",
          "name": "at",
          "type": "uint256"
        }
      ],
      "name": "getMyStakedAmount",
      "outputs": [
        {
          "internalType": "uint256",
          "name": "",
          "type": "uint256"
        }
      ],
      "stateMutability": "view",
      "type": "function",
      "constant": true
    },
    {
      "inputs": [],
      "name": "getMyStakingValidity",
      "outputs": [
        {
          "internalType": "bool",
          "name": "",
          "type": "bool"
        }
      ],
      "stateMutability": "view",
      "type": "function",
      "constant": true
    },
    {
      "inputs": [],
      "name": "getMyStakingStartTime",
      "outputs": [
        {
          "internalType": "uint256",
          "name": "",
          "type": "uint256"
        }
      ],
      "stateMutability": "view",
      "type": "function",
      "constant": true
    },
    {
      "inputs": [],
      "name": "getMyStakingTimeElapsed",
      "outputs": [
        {
          "internalType": "uint256",
          "name": "",
          "type": "uint256"
        }
      ],
      "stateMutability": "view",
      "type": "function",
      "constant": true
    },
    {
      "inputs": [],
      "name": "getMyStakingProfit",
      "outputs": [
        {
          "internalType": "uint256",
          "name": "",
          "type": "uint256"
        }
      ],
      "stateMutability": "view",
      "type": "function",
      "constant": true
    },
    {
      "inputs": [],
      "name": "getMyStakingTotalProfit",
      "outputs": [
        {
          "internalType": "uint256",
          "name": "",
          "type": "uint256"
        }
      ],
      "stateMutability": "view",
      "type": "function",
      "constant": true
    },
    {
      "inputs": [],
      "name": "getMyAverage",
      "outputs": [
        {
          "internalType": "uint256",
          "name": "",
          "type": "uint256"
        }
      ],
      "stateMutability": "view",
      "type": "function",
      "constant": true
    }
  ],
  "bytecode": "0x60806040525f6003555f6004555f6005555f600655681b1ae4d6e2ef500000600a5562093a80600b5534801562000034575f80fd5b506040516200326c3803806200326c83398181016040528101906200005a919062000255565b6200007a6200006e6200012860201b60201c565b6200012f60201b60201c565b600180819055508060025f6101000a81548173ffffffffffffffffffffffffffffffffffffffff021916908373ffffffffffffffffffffffffffffffffffffffff16021790555060085f908060018154018082558091505060019003905f5260205f20015f9091909190916101000a81548173ffffffffffffffffffffffffffffffffffffffff021916908373ffffffffffffffffffffffffffffffffffffffff1602179055505062000285565b5f33905090565b5f805f9054906101000a900473ffffffffffffffffffffffffffffffffffffffff169050815f806101000a81548173ffffffffffffffffffffffffffffffffffffffff021916908373ffffffffffffffffffffffffffffffffffffffff1602179055508173ffffffffffffffffffffffffffffffffffffffff168173ffffffffffffffffffffffffffffffffffffffff167f8be0079c531659141344cd1fd0a4f28419497f9722a3daafe3b4186f6b6457e060405160405180910390a35050565b5f80fd5b5f73ffffffffffffffffffffffffffffffffffffffff82169050919050565b5f6200021f82620001f4565b9050919050565b620002318162000213565b81146200023c575f80fd5b50565b5f815190506200024f8162000226565b92915050565b5f602082840312156200026d576200026c620001f0565b5b5f6200027c848285016200023f565b91505092915050565b612fd980620002935f395ff3fe608060405234801561000f575f80fd5b50600436106101c2575f3560e01c8063750142e6116100f7578063b849bb1f11610095578063ddaf81181161006f578063ddaf811814610474578063e70eb39214610490578063f2fde38b146104ac578063f3577cab146104c8576101c2565b8063b849bb1f1461041a578063c7c934a114610438578063d54ad2a114610456576101c2565b80638da5cb5b116100d15780638da5cb5b146103b85780638f73c5ae146103d6578063a477897d146103e0578063a694fc3a146103fe576101c2565b8063750142e61461035e5780638066a2041461037c57806386b19a181461039a576101c2565b8063346f36ab11610164578063568914121161013e57806356891412146102fe578063612d669e1461031c578063715018a61461033857806374de4ec414610342576101c2565b8063346f36ab1461029657806344337ea1146102c6578063537df3b6146102e2576101c2565b806318779b99116101a057806318779b991461022057806325c065b11461023e5780632e17de781461025c578063338d6c3014610278576101c2565b806301a2b286146101c6578063057b1040146101e4578063142de6fb14610202575b5f80fd5b6101ce6104e6565b6040516101db9190612419565b60405180910390f35b6101ec610514565b6040516101f99190612419565b60405180910390f35b61020a61060f565b604051610217919061244c565b60405180910390f35b6102286106f3565b6040516102359190612419565b60405180910390f35b6102466107d7565b6040516102539190612419565b60405180910390f35b61027660048036038101906102719190612493565b6107dd565b005b610280610a9f565b60405161028d91906125a5565b60405180910390f35b6102b060048036038101906102ab9190612493565b610b32565b6040516102bd9190612419565b60405180910390f35b6102e060048036038101906102db91906125ef565b610c1d565b005b6102fc60048036038101906102f791906125ef565b610c96565b005b610306610d7e565b6040516103139190612419565b60405180910390f35b61033660048036038101906103319190612493565b610d84565b005b610340610d96565b005b61035c60048036038101906103579190612493565b610da9565b005b610366611025565b6040516103739190612419565b60405180910390f35b61038461102b565b6040516103919190612419565b60405180910390f35b6103a2611031565b6040516103af9190612419565b60405180910390f35b6103c061111e565b6040516103cd9190612629565b60405180910390f35b6103de611145565b005b6103e861116a565b6040516103f59190612419565b60405180910390f35b61041860048036038101906104139190612493565b61124e565b005b61042261167a565b60405161042f9190612419565b60405180910390f35b610440611767565b60405161044d9190612419565b60405180910390f35b61045e61176d565b60405161046b9190612419565b60405180910390f35b61048e60048036038101906104899190612493565b611773565b005b6104aa60048036038101906104a59190612642565b6117c9565b005b6104c660048036038101906104c191906125ef565b611993565b005b6104d0611a15565b6040516104dd9190612419565b60405180910390f35b5f6104ef611af9565b5f600b54426104fe91906126ad565b90505f61050a82611b77565b9050809250505090565b5f80610526610521611d67565b611d6e565b6040518060e00160405290815f820154815260200160018201548152602001600282015481526020016003820154815260200160048201548152602001600582015f9054906101000a900460ff1615151515815260200160068201805480602002602001604051908101604052809291908181526020015f905b828210156105e3578382905f5260205f2090600202016040518060400160405290815f8201548152602001600182015481525050815260200190600101906105a0565b505050508152505090505f600b54426105fc91906126ad565b90506106088282611db8565b9250505090565b5f8061062161061c611d67565b611d6e565b6040518060e00160405290815f820154815260200160018201548152602001600282015481526020016003820154815260200160048201548152602001600582015f9054906101000a900460ff1615151515815260200160068201805480602002602001604051908101604052809291908181526020015f905b828210156106de578382905f5260205f2090600202016040518060400160405290815f82015481526020016001820154815250508152602001906001019061069b565b505050508152505090508060a0015191505090565b5f80610705610700611d67565b611d6e565b6040518060e00160405290815f820154815260200160018201548152602001600282015481526020016003820154815260200160048201548152602001600582015f9054906101000a900460ff1615151515815260200160068201805480602002602001604051908101604052809291908181526020015f905b828210156107c2578382905f5260205f2090600202016040518060400160405290815f82015481526020016001820154815250508152602001906001019061077f565b50505050815250509050806040015191505090565b600a5481565b6107e5611ee7565b5f8111610827576040517f08c379a000000000000000000000000000000000000000000000000000000000815260040161081e90612760565b60405180910390fd5b5f610838610833611d67565b611d6e565b90508181600201541015610881576040517f08c379a0000000000000000000000000000000000000000000000000000000008152600401610878906127ee565b60405180910390fd5b81816002015f82825461089491906126ad565b92505081905550806005015f9054906101000a900460ff16156108e557600a54816002015410156108e4575f81600101819055505f816005015f6101000a81548160ff0219169083151502179055505b5b6108ed6123e9565b428160200181815250508160020154815f0181815250508160060181908060018154018082558091505060019003905f5260205f2090600202015f909190919091505f820151815f01556020820151816001015550508260055f82825461095491906126ad565b9250508190555060025f9054906101000a900473ffffffffffffffffffffffffffffffffffffffff1673ffffffffffffffffffffffffffffffffffffffff1663a9059cbb6109a0611d67565b856040518363ffffffff1660e01b81526004016109be92919061280c565b6020604051808303815f875af11580156109da573d5f803e3d5ffd5b505050506040513d601f19601f820116820180604052508101906109fe919061285d565b610a3d576040517f08c379a0000000000000000000000000000000000000000000000000000000008152600401610a34906128f8565b60405180910390fd5b610a45611d67565b73ffffffffffffffffffffffffffffffffffffffff167f0f5bb82176feb1b5e747e28471aa92156a04d9f3ab9f45f28e2d704232b93f7584604051610a8a9190612419565b60405180910390a25050610a9c611f36565b50565b6060610aa9611af9565b6007805480602002602001604051908101604052809291908181526020018280548015610b2857602002820191905f5260205f20905b815f9054906101000a900473ffffffffffffffffffffffffffffffffffffffff1673ffffffffffffffffffffffffffffffffffffffff1681526020019060010190808311610adf575b5050505050905090565b5f80610b44610b3f611d67565b611d6e565b6040518060e00160405290815f820154815260200160018201548152602001600282015481526020016003820154815260200160048201548152602001600582015f9054906101000a900460ff1615151515815260200160068201805480602002602001604051908101604052809291908181526020015f905b82821015610c01578382905f5260205f2090600202016040518060400160405290815f820154815260200160018201548152505081526020019060010190610bbe565b50505050815250509050610c158184611f3f565b915050919050565b610c25611af9565b610c2e81611faa565b610c9357600781908060018154018082558091505060019003905f5260205f20015f9091909190916101000a81548173ffffffffffffffffffffffffffffffffffffffff021916908373ffffffffffffffffffffffffffffffffffffffff1602179055505b50565b610c9e611af9565b610ca781611faa565b15610d7b575f5b600780549050811015610d79578173ffffffffffffffffffffffffffffffffffffffff1660078281548110610ce657610ce5612916565b5b905f5260205f20015f9054906101000a900473ffffffffffffffffffffffffffffffffffffffff1673ffffffffffffffffffffffffffffffffffffffff1603610d6c5760078181548110610d3d57610d3c612916565b5b905f5260205f20015f6101000a81549073ffffffffffffffffffffffffffffffffffffffff0219169055610d79565b8080600101915050610cae565b505b50565b60055481565b610d8c611af9565b80600a8190555050565b610d9e611af9565b610da75f61204c565b565b610db1611af9565b5f8111610df3576040517f08c379a0000000000000000000000000000000000000000000000000000000008152600401610dea906129b3565b60405180910390fd5b8060025f9054906101000a900473ffffffffffffffffffffffffffffffffffffffff1673ffffffffffffffffffffffffffffffffffffffff1663dd62ed3e610e39611d67565b306040518363ffffffff1660e01b8152600401610e579291906129d1565b602060405180830381865afa158015610e72573d5f803e3d5ffd5b505050506040513d601f19601f82011682018060405250810190610e969190612a0c565b1015610ed7576040517f08c379a0000000000000000000000000000000000000000000000000000000008152600401610ece90612aa7565b60405180910390fd5b60025f9054906101000a900473ffffffffffffffffffffffffffffffffffffffff1673ffffffffffffffffffffffffffffffffffffffff166323b872dd610f1c611d67565b30846040518463ffffffff1660e01b8152600401610f3c93929190612ac5565b6020604051808303815f875af1158015610f58573d5f803e3d5ffd5b505050506040513d601f19601f82011682018060405250810190610f7c919061285d565b610fbb576040517f08c379a0000000000000000000000000000000000000000000000000000000008152600401610fb290612b44565b60405180910390fd5b8060035f828254610fcc9190612b62565b925050819055508060045f828254610fe49190612b62565b925050819055507fde88a922e0d3b88b24e9623efeb464919c6bf9f66857a65e2bfcf2ce87a9433d8160405161101a9190612419565b60405180910390a150565b60045481565b600b5481565b5f8061104361103e611d67565b611d6e565b6040518060e00160405290815f820154815260200160018201548152602001600282015481526020016003820154815260200160048201548152602001600582015f9054906101000a900460ff1615151515815260200160068201805480602002602001604051908101604052809291908181526020015f905b82821015611100578382905f5260205f2090600202016040518060400160405290815f8201548152602001600182015481525050815260200190600101906110bd565b505050508152505090505f6111148261210d565b9050809250505090565b5f805f9054906101000a900473ffffffffffffffffffffffffffffffffffffffff16905090565b61114d611af9565b5f600b544261115c91906126ad565b905061116781612139565b50565b5f8061117c611177611d67565b611d6e565b6040518060e00160405290815f820154815260200160018201548152602001600282015481526020016003820154815260200160048201548152602001600582015f9054906101000a900460ff1615151515815260200160068201805480602002602001604051908101604052809291908181526020015f905b82821015611239578382905f5260205f2090600202016040518060400160405290815f8201548152602001600182015481525050815260200190600101906111f6565b50505050815250509050806060015191505090565b611256611ee7565b611266611261611d67565b611faa565b156112a6576040517f08c379a000000000000000000000000000000000000000000000000000000000815260040161129d90612bdf565b60405180910390fd5b8060025f9054906101000a900473ffffffffffffffffffffffffffffffffffffffff1673ffffffffffffffffffffffffffffffffffffffff1663dd62ed3e6112ec611d67565b306040518363ffffffff1660e01b815260040161130a9291906129d1565b602060405180830381865afa158015611325573d5f803e3d5ffd5b505050506040513d601f19601f820116820180604052508101906113499190612a0c565b101561138a576040517f08c379a000000000000000000000000000000000000000000000000000000000815260040161138190612c6d565b60405180910390fd5b60025f9054906101000a900473ffffffffffffffffffffffffffffffffffffffff1673ffffffffffffffffffffffffffffffffffffffff166323b872dd6113cf611d67565b30846040518463ffffffff1660e01b81526004016113ef93929190612ac5565b6020604051808303815f875af115801561140b573d5f803e3d5ffd5b505050506040513d601f19601f8201168201806040525081019061142f919061285d565b61146e576040517f08c379a000000000000000000000000000000000000000000000000000000000815260040161146590612b44565b60405180910390fd5b5f61147f61147a611d67565b611d6e565b90505f815f01540361153f57600880549050815f01819055505f81600101819055505f816005015f6101000a81548160ff0219169083151502179055505f81600201819055505f81600301819055505f816004018190555060086114e1611d67565b908060018154018082558091505060019003905f5260205f20015f9091909190916101000a81548173ffffffffffffffffffffffffffffffffffffffff021916908373ffffffffffffffffffffffffffffffffffffffff1602179055505b81816002015f8282546115529190612b62565b92505081905550806005015f9054906101000a900460ff166115a257600a548160020154106115a1574281600101819055506001816005015f6101000a81548160ff0219169083151502179055505b5b6115aa6123e9565b428160200181815250508160020154815f0181815250508160060181908060018154018082558091505060019003905f5260205f2090600202015f909190919091505f820151815f01556020820151816001015550508260055f8282546116119190612b62565b92505081905550611620611d67565b73ffffffffffffffffffffffffffffffffffffffff167f9e71bc8eea02a63969f509818f2dafb9254532904319f9dbda79b67bd34a5f3d846040516116659190612419565b60405180910390a25050611677611f36565b50565b5f8061168c611687611d67565b611d6e565b6040518060e00160405290815f820154815260200160018201548152602001600282015481526020016003820154815260200160048201548152602001600582015f9054906101000a900460ff1615151515815260200160068201805480602002602001604051908101604052809291908181526020015f905b82821015611749578382905f5260205f2090600202016040518060400160405290815f820154815260200160018201548152505081526020019060010190611706565b505050508152505090505f61175d826123dc565b9050809250505090565b60035481565b60065481565b61177b611af9565b5f600b54116117bf576040517f08c379a00000000000000000000000000000000000000000000000000000000081526004016117b690612cfb565b60405180910390fd5b80600b8190555050565b6117d1611ee7565b5f6117e26117dd611d67565b611d6e565b9050806003015483111561182b576040517f08c379a000000000000000000000000000000000000000000000000000000000815260040161182290612d89565b60405180910390fd5b82816003015f82825461183e91906126ad565b925050819055508260065f8282546118569190612b62565b9250508190555060025f9054906101000a900473ffffffffffffffffffffffffffffffffffffffff1673ffffffffffffffffffffffffffffffffffffffff1663a9059cbb83856040518363ffffffff1660e01b81526004016118b992919061280c565b6020604051808303815f875af11580156118d5573d5f803e3d5ffd5b505050506040513d601f19601f820116820180604052508101906118f9919061285d565b611938576040517f08c379a000000000000000000000000000000000000000000000000000000000815260040161192f906128f8565b60405180910390fd5b8173ffffffffffffffffffffffffffffffffffffffff167fd8138f8a3f377c5259ca548e70e4c2de94f129f5a11036a15b69513cba2b426a8460405161197e9190612419565b60405180910390a25061198f611f36565b5050565b61199b611af9565b5f73ffffffffffffffffffffffffffffffffffffffff168173ffffffffffffffffffffffffffffffffffffffff1603611a09576040517f08c379a0000000000000000000000000000000000000000000000000000000008152600401611a0090612e17565b60405180910390fd5b611a128161204c565b50565b5f80611a27611a22611d67565b611d6e565b6040518060e00160405290815f820154815260200160018201548152602001600282015481526020016003820154815260200160048201548152602001600582015f9054906101000a900460ff1615151515815260200160068201805480602002602001604051908101604052809291908181526020015f905b82821015611ae4578382905f5260205f2090600202016040518060400160405290815f820154815260200160018201548152505081526020019060010190611aa1565b50505050815250509050806080015191505090565b611b01611d67565b73ffffffffffffffffffffffffffffffffffffffff16611b1f61111e565b73ffffffffffffffffffffffffffffffffffffffff1614611b75576040517f08c379a0000000000000000000000000000000000000000000000000000000008152600401611b6c90612e7f565b60405180910390fd5b565b5f805f5b600880549050811015611d5d575f73ffffffffffffffffffffffffffffffffffffffff1660088281548110611bb357611bb2612916565b5b905f5260205f20015f9054906101000a900473ffffffffffffffffffffffffffffffffffffffff1673ffffffffffffffffffffffffffffffffffffffff160315611d50575f611c3c60088381548110611c0f57611c0e612916565b5b905f5260205f20015f9054906101000a900473ffffffffffffffffffffffffffffffffffffffff16611d6e565b6040518060e00160405290815f820154815260200160018201548152602001600282015481526020016003820154815260200160048201548152602001600582015f9054906101000a900460ff1615151515815260200160068201805480602002602001604051908101604052809291908181526020015f905b82821015611cf9578382905f5260205f2090600202016040518060400160405290815f820154815260200160018201548152505081526020019060010190611cb6565b505050508152505090508060a00151611d125750611d50565b8481602001511115611d245750611d50565b5f611d2f8287611db8565b90505f8103611d3f575050611d50565b8084611d4b9190612b62565b935050505b8080600101915050611b7b565b5080915050919050565b5f33905090565b5f8060095f8473ffffffffffffffffffffffffffffffffffffffff1673ffffffffffffffffffffffffffffffffffffffff1681526020019081526020015f20905080915050919050565b5f80611dc48484611f3f565b90505f8103611dd6575f915050611ee1565b5f8390505f8290505f805b8760c0015151811015611e78575f8860c001518281518110611e0657611e05612916565b5b6020026020010151905087816020015111611e215750611e6b565b5f858260200151611e3291906126ad565b90506201518081611e439190612eca565b85611e4e9190612efa565b84611e599190612b62565b935081602001519550815f0151945050505b8080600101915050611de1565b505f8342611e8691906126ad565b90506201518081611e979190612eca565b83611ea29190612efa565b82611ead9190612b62565b91505f620151808842611ec091906126ad565b611eca9190612eca565b83611ed59190612eca565b90508096505050505050505b92915050565b600260015403611f2c576040517f08c379a0000000000000000000000000000000000000000000000000000000008152600401611f2390612f85565b60405180910390fd5b6002600181905550565b60018081905550565b5f805f90505f5b8460c0015151811015611f9f575f8560c001518281518110611f6b57611f6a612916565b5b6020026020010151905084816020015111611f8b57805f01519250611f91565b50611f9f565b508080600101915050611f46565b508091505092915050565b5f805f90505b600780549050811015612042578273ffffffffffffffffffffffffffffffffffffffff1660078281548110611fe857611fe7612916565b5b905f5260205f20015f9054906101000a900473ffffffffffffffffffffffffffffffffffffffff1673ffffffffffffffffffffffffffffffffffffffff1603612035576001915050612047565b8080600101915050611fb0565b505f90505b919050565b5f805f9054906101000a900473ffffffffffffffffffffffffffffffffffffffff169050815f806101000a81548173ffffffffffffffffffffffffffffffffffffffff021916908373ffffffffffffffffffffffffffffffffffffffff1602179055508173ffffffffffffffffffffffffffffffffffffffff168173ffffffffffffffffffffffffffffffffffffffff167f8be0079c531659141344cd1fd0a4f28419497f9722a3daafe3b4186f6b6457e060405160405180910390a35050565b5f80826020015103612121575f9050612134565b81602001514261213191906126ad565b90505b919050565b5f61214382611b77565b90505f805b600880549050811015612387575f73ffffffffffffffffffffffffffffffffffffffff16600882815481106121805761217f612916565b5b905f5260205f20015f9054906101000a900473ffffffffffffffffffffffffffffffffffffffff1673ffffffffffffffffffffffffffffffffffffffff16031561237a575f612209600883815481106121dc576121db612916565b5b905f5260205f20015f9054906101000a900473ffffffffffffffffffffffffffffffffffffffff16611d6e565b9050806005015f9054906101000a900460ff16612226575061237a565b8481600101541115612238575061237a565b5f612308826040518060e00160405290815f820154815260200160018201548152602001600282015481526020016003820154815260200160048201548152602001600582015f9054906101000a900460ff1615151515815260200160068201805480602002602001604051908101604052809291908181526020015f905b828210156122fa578382905f5260205f2090600202016040518060400160405290815f8201548152602001600182015481525050815260200190600101906122b7565b505050508152505087611db8565b90505f810361231857505061237a565b5f85826003546123289190612efa565b6123329190612eca565b905080856123409190612b62565b945080836003015f8282546123559190612b62565b9250508190555080836004015f82825461236f9190612b62565b925050819055505050505b8080600101915050612148565b508060035f82825461239991906126ad565b925050819055507f04944120d2e185fc95ba63f3ca24c385ec4c5215a801c8766c96486d7fc4ed8e816040516123cf9190612419565b60405180910390a1505050565b5f81602001519050919050565b60405180604001604052805f81526020015f81525090565b5f819050919050565b61241381612401565b82525050565b5f60208201905061242c5f83018461240a565b92915050565b5f8115159050919050565b61244681612432565b82525050565b5f60208201905061245f5f83018461243d565b92915050565b5f80fd5b61247281612401565b811461247c575f80fd5b50565b5f8135905061248d81612469565b92915050565b5f602082840312156124a8576124a7612465565b5b5f6124b58482850161247f565b91505092915050565b5f81519050919050565b5f82825260208201905092915050565b5f819050602082019050919050565b5f73ffffffffffffffffffffffffffffffffffffffff82169050919050565b5f612510826124e7565b9050919050565b61252081612506565b82525050565b5f6125318383612517565b60208301905092915050565b5f602082019050919050565b5f612553826124be565b61255d81856124c8565b9350612568836124d8565b805f5b8381101561259857815161257f8882612526565b975061258a8361253d565b92505060018101905061256b565b5085935050505092915050565b5f6020820190508181035f8301526125bd8184612549565b905092915050565b6125ce81612506565b81146125d8575f80fd5b50565b5f813590506125e9816125c5565b92915050565b5f6020828403121561260457612603612465565b5b5f612611848285016125db565b91505092915050565b61262381612506565b82525050565b5f60208201905061263c5f83018461261a565b92915050565b5f806040838503121561265857612657612465565b5b5f6126658582860161247f565b9250506020612676858286016125db565b9150509250929050565b7f4e487b71000000000000000000000000000000000000000000000000000000005f52601160045260245ffd5b5f6126b782612401565b91506126c283612401565b92508282039050818111156126da576126d9612680565b5b92915050565b5f82825260208201905092915050565b7f416d6f756e74206d7573742062652067726561746f72207468616e207a65726f5f8201527f2e00000000000000000000000000000000000000000000000000000000000000602082015250565b5f61274a6021836126e0565b9150612755826126f0565b604082019050919050565b5f6020820190508181035f8301526127778161273e565b9050919050565b7f5374616b65722063616e277420756e7374616b65206d6f7265207468616e20635f8201527f757272656e74207374616b656420616d6f756e74000000000000000000000000602082015250565b5f6127d86034836126e0565b91506127e38261277e565b604082019050919050565b5f6020820190508181035f830152612805816127cc565b9050919050565b5f60408201905061281f5f83018561261a565b61282c602083018461240a565b9392505050565b61283c81612432565b8114612846575f80fd5b50565b5f8151905061285781612833565b92915050565b5f6020828403121561287257612871612465565b5b5f61287f84828501612849565b91505092915050565b7f556e7374616b696e67206661696c65642e20436f756c646e2774207472616e735f8201527f6665722066756e647320746f207468652073656e6465722e0000000000000000602082015250565b5f6128e26038836126e0565b91506128ed82612888565b604082019050919050565b5f6020820190508181035f83015261290f816128d6565b9050919050565b7f4e487b71000000000000000000000000000000000000000000000000000000005f52603260045260245ffd5b7f52657761726420616d6f756e74206d7573742062652067726561746f722074685f8201527f616e207a65726f00000000000000000000000000000000000000000000000000602082015250565b5f61299d6027836126e0565b91506129a882612943565b604082019050919050565b5f6020820190508181035f8301526129ca81612991565b9050919050565b5f6040820190506129e45f83018561261a565b6129f1602083018461261a565b9392505050565b5f81519050612a0681612469565b92915050565b5f60208284031215612a2157612a20612465565b5b5f612a2e848285016129f8565b91505092915050565b7f41646d696e206861736e277420616c6c6f77656420746865207374616b696e675f8201527f20636f6e747261637420746f207472616e736665722066756e64730000000000602082015250565b5f612a91603b836126e0565b9150612a9c82612a37565b604082019050919050565b5f6020820190508181035f830152612abe81612a85565b9050919050565b5f606082019050612ad85f83018661261a565b612ae5602083018561261a565b612af2604083018461240a565b949350505050565b7f5472616e73666572696e672066756e6473206661696c65642e000000000000005f82015250565b5f612b2e6019836126e0565b9150612b3982612afa565b602082019050919050565b5f6020820190508181035f830152612b5b81612b22565b9050919050565b5f612b6c82612401565b9150612b7783612401565b9250828201905080821115612b8f57612b8e612680565b5b92915050565b7f546865206164647265737320697320696e20626c61636b6c69737400000000005f82015250565b5f612bc9601b836126e0565b9150612bd482612b95565b602082019050919050565b5f6020820190508181035f830152612bf681612bbd565b9050919050565b7f5374616b6572206861736e277420616c6c6f77656420746865207374616b696e5f8201527f6720636f6e747261637420746f207472616e736665722066756e647300000000602082015250565b5f612c57603c836126e0565b9150612c6282612bfd565b604082019050919050565b5f6020820190508181035f830152612c8481612c4b565b9050919050565b7f526f6c6c696e672064617920636f756c646e2774206265206c657373207468615f8201527f6e206f7220657175616c20746f207a65726f0000000000000000000000000000602082015250565b5f612ce56032836126e0565b9150612cf082612c8b565b604082019050919050565b5f6020820190508181035f830152612d1281612cd9565b9050919050565b7f416d6f756e74206d757374206265206c6573732074686174206f7220657175615f8201527f6c20746f207265776172642e0000000000000000000000000000000000000000602082015250565b5f612d73602c836126e0565b9150612d7e82612d19565b604082019050919050565b5f6020820190508181035f830152612da081612d67565b9050919050565b7f4f776e61626c653a206e6577206f776e657220697320746865207a65726f20615f8201527f6464726573730000000000000000000000000000000000000000000000000000602082015250565b5f612e016026836126e0565b9150612e0c82612da7565b604082019050919050565b5f6020820190508181035f830152612e2e81612df5565b9050919050565b7f4f776e61626c653a2063616c6c6572206973206e6f7420746865206f776e65725f82015250565b5f612e696020836126e0565b9150612e7482612e35565b602082019050919050565b5f6020820190508181035f830152612e9681612e5d565b9050919050565b7f4e487b71000000000000000000000000000000000000000000000000000000005f52601260045260245ffd5b5f612ed482612401565b9150612edf83612401565b925082612eef57612eee612e9d565b5b828204905092915050565b5f612f0482612401565b9150612f0f83612401565b9250828202612f1d81612401565b91508282048414831517612f3457612f33612680565b5b5092915050565b7f5265656e7472616e637947756172643a207265656e7472616e742063616c6c005f82015250565b5f612f6f601f836126e0565b9150612f7a82612f3b565b602082019050919050565b5f6020820190508181035f830152612f9c81612f63565b905091905056fea2646970667358221220155eefe8aaf2c126d86d05fb78acae67d6b77e5d0ed704f6c4dd4e241c7331e464736f6c63430008170033",
  "immutableReferences": {},
  "source": "// SPDX-License-Identifier: MIT\n// Erc20 token staking smart contract\npragma solidity ^0.8.19;\n\nimport \"@openzeppelin/contracts/token/ERC20/IERC20.sol\";\nimport \"@openzeppelin/contracts/utils/Strings.sol\";\nimport \"@openzeppelin/contracts/access/Ownable.sol\";\nimport \"@openzeppelin/contracts/security/ReentrancyGuard.sol\";\n\n/**\n * @dev An smart contract for staking any ERC20 token\n */\ncontract TokenStaking is Ownable, ReentrancyGuard {\n    struct StakeTransaction {\n        uint256 amount;\n        uint256 updatedAt;\n    }\n\n    struct Staker {\n        uint256 holderIndex;\n        uint256 startTime;\n        uint256 currentAmount;\n        uint256 reward;\n        uint256 totalReward;\n        bool isValid;\n        StakeTransaction[] transactions;\n    }\n\n    IERC20 private _token;\n\n    uint256 public rewardTreasury = 0;\n    uint256 public totalReward = 0;\n    uint256 public totalLocked = 0;\n    uint256 public totalClaimed = 0;\n\n    address[] private _blacklist;\n    address[] private _stakersIndex;\n\n    mapping(address => Staker) private _stakers;\n\n    uint256 public minStakingAmount = 500 * (10 ** 18); // 500 tokens\n    uint256 public rollingDay = 7 * 24 * 60 * 60; // 7 Days\n\n    event Staked(address indexed user, uint256 amount);\n    event Unstaked(address indexed user, uint256 amount);\n    event Claimed(address indexed user, uint256 amount);\n    event RewardAdded(uint256 amount);\n    event RewardDistributed(uint256 amount);\n\n    /**\n     * @dev Constructor sets the ERC20 token that can be used for staking\n     */\n    constructor(address _tokenAddress) {\n        _token = IERC20(_tokenAddress);\n\n        // This line is added to avoid holder index default value hole\n        _stakersIndex.push(address(0x0));\n    }\n\n    ///////////////////////// ADMIN /////////////////////////\n    /**\n     * @dev Sets rolling day that is used to calculate average\n     * @param _rollingDay | the rolling day in seconds e.g. 7 * 24 * 60 * 60 = 604800 seconds\n     */\n    function setRollingDay(uint256 _rollingDay) external onlyOwner {\n        require(\n            rollingDay > 0,\n            \"Rolling day couldn't be less than or equal to zero\"\n        );\n\n        rollingDay = _rollingDay;\n    }\n\n    /**\n     * @dev Sets the minimum amount a staker is allowed to satke\n     * @param _minStakingAmount | the amount in token unit e.g. 500 * 10**18\n     */\n    function setMinStakingAmount(uint256 _minStakingAmount) external onlyOwner {\n        minStakingAmount = _minStakingAmount;\n    }\n\n    /**\n     * @dev Adds an address to blacklist\n     * @param _address | the address to be added to blacklist\n     */\n    function addToBlacklist(address _address) external onlyOwner {\n        if (_isBlacklist(_address)) {\n            return;\n        }\n\n        _blacklist.push(_address);\n    }\n\n    /**\n     * @dev Adds an address to blacklist\n     * @param _address | the address to be added to blacklist\n     */\n    function removeFromBlacklist(address _address) external onlyOwner {\n        if (!_isBlacklist(_address)) {\n            return;\n        }\n\n        for (uint256 i = 0; i < _blacklist.length; i++) {\n            if (_blacklist[i] == _address) {\n                delete _blacklist[i];\n\n                break;\n            }\n        }\n    }\n\n    /**\n     * @dev Get all blacklisted addresses\n     */\n    function getBlacklist() external view onlyOwner returns (address[] memory) {\n        return _blacklist;\n    }\n\n    /**\n     * @dev Increasing reward treasury by transferring tokens to the contract\n     * @param _amount | the amount of tokens to be transferred to the contract\n     */\n    function addReward(uint256 _amount) external onlyOwner {\n        require(_amount > 0, \"Reward amount must be greator than zero\");\n\n        require(\n            _token.allowance(_msgSender(), address(this)) >= _amount,\n            \"Admin hasn't allowed the staking contract to transfer funds\"\n        );\n\n        require(\n            _token.transferFrom(_msgSender(), address(this), _amount),\n            \"Transfering funds failed.\"\n        );\n\n        rewardTreasury += _amount;\n        totalReward += _amount;\n\n        emit RewardAdded(_amount);\n    }\n\n    /**\n     * @dev Calculates total rates of eligible stakers\n     */\n    function getTotalRates() external view onlyOwner returns (uint256) {\n        uint256 _since = block.timestamp - rollingDay;\n        uint256 _totalrates = _calculateTotalRates(_since);\n\n        return _totalrates;\n    }\n\n    /**\n     * @dev Distributes rewards collected in reward treasury between eligible stakers\n     */\n    function distributeReward() external onlyOwner {\n        uint256 _since = block.timestamp - rollingDay;\n        _distributeReward(_since);\n    }\n\n    ///////////////////////// USER /////////////////////////\n    /**\n     * @dev Stakes tokens & transfers them to the contract\n     * @param _amount | the amount of tokens to be staked\n     */\n    function stake(uint256 _amount) external nonReentrant {\n        // Checking for blacklist\n        require(!_isBlacklist(_msgSender()), \"The address is in blacklist\");\n\n        // // Check to see if the allowance mechanism is enabled by the staker\n        require(\n            _token.allowance(_msgSender(), address(this)) >= _amount,\n            \"Staker hasn't allowed the staking contract to transfer funds\"\n        );\n\n        // Check to see if the token is transferred to our contract\n        require(\n            _token.transferFrom(_msgSender(), address(this), _amount),\n            \"Transfering funds failed.\"\n        );\n\n        // Get staker from storage\n        Staker storage _staker = _getStaker(_msgSender());\n\n        // Add staker address to staker index if not already\n        if (_staker.holderIndex == 0) {\n            _staker.holderIndex = _stakersIndex.length;\n\n            // Assert default values\n            _staker.startTime = 0;\n            _staker.isValid = false;\n            _staker.currentAmount = 0;\n            _staker.reward = 0;\n            _staker.totalReward = 0;\n\n            _stakersIndex.push(_msgSender());\n        }\n\n        // Fill up staker information\n        _staker.currentAmount += _amount;\n        if (!_staker.isValid) {\n            if (_staker.currentAmount >= minStakingAmount) {\n                _staker.startTime = block.timestamp;\n                _staker.isValid = true;\n            }\n        }\n\n        // Create a new txn\n        StakeTransaction memory txn;\n        txn.updatedAt = block.timestamp;\n        txn.amount = _staker.currentAmount;\n\n        // Add txn to transactions list of the staker\n        _staker.transactions.push(txn);\n\n        // Increase total locked\n        totalLocked += _amount;\n\n        // Emit staked event to announce successfull staking\n        emit Staked(_msgSender(), _amount);\n    }\n\n    /**\n     * @dev Withdraws specified amount of staked amount, transfer tokens to sender\n     * @param _amount | the amount of token to withdraw in token unit e.g. 200 * 10**18\n     */\n    function unstake(uint256 _amount) external nonReentrant {\n        // Checking the staking amount\n        require(_amount > 0, \"Amount must be greator than zero.\");\n\n        // Get the staker from storage\n        Staker storage _staker = _getStaker(_msgSender());\n\n        // Check to see if staker amount is non-zero\n        require(\n            _staker.currentAmount >= _amount,\n            \"Staker can't unstake more than current staked amount\"\n        );\n\n        _staker.currentAmount -= _amount;\n        if (_staker.isValid) {\n            if (_staker.currentAmount < minStakingAmount) {\n                _staker.startTime = 0;\n                _staker.isValid = false;\n            }\n        }\n\n        StakeTransaction memory txn;\n        txn.updatedAt = block.timestamp;\n        txn.amount = _staker.currentAmount;\n\n        _staker.transactions.push(txn);\n\n        // Decrease locked amount\n        totalLocked -= _amount;\n\n        // Check to see if transfer is successfull\n        require(\n            _token.transfer(_msgSender(), _amount),\n            \"Unstaking failed. Couldn't transfer funds to the sender.\"\n        );\n\n        emit Unstaked(_msgSender(), _amount);\n    }\n\n    /**\n     * @dev Withdraws specified amount of staked amount, transfer tokens to sender\n     * @param _amount | the amount of token to withdraw in token unit e.g. 200 * 10**18\n     * @param _to | the address to which reward will be transferred\n     */\n    function claimReward(uint256 _amount, address _to) external nonReentrant {\n        // Get the staker from storage\n        Staker storage _staker = _getStaker(_msgSender());\n\n        // Checking the staking amount\n        require(\n            _amount <= _staker.reward,\n            \"Amount must be less that or equal to reward.\"\n        );\n\n        _staker.reward -= _amount;\n        totalClaimed += _amount;\n\n        // Check to see if transfer is successfull\n        require(\n            _token.transfer(_to, _amount),\n            \"Unstaking failed. Couldn't transfer funds to the sender.\"\n        );\n\n        emit Claimed(_to, _amount);\n    }\n\n    /**\n     * @dev Gets sender current staked amount\n     */\n    function getMyCurrentStakedAmount() external view returns (uint256) {\n        Staker memory _staker = _getStaker(_msgSender());\n\n        return _staker.currentAmount;\n    }\n\n    /**\n     * @dev Gets staker staked amont at specified time\n     * @param at | the time to return staked amount at\n     */\n    function getMyStakedAmount(uint256 at) external view returns (uint256) {\n        Staker memory _staker = _getStaker(_msgSender());\n\n        return _getAmountAt(_staker, at);\n    }\n\n    /**\n     * @dev Gets the validity status of the staking.\n     */\n    function getMyStakingValidity() external view returns (bool) {\n        Staker memory _staker = _getStaker(_msgSender());\n\n        return _staker.isValid;\n    }\n\n    /**\n     * @dev Gets staker start timestamp\n     */\n    function getMyStakingStartTime() external view returns (uint256) {\n        Staker memory _staker = _getStaker(_msgSender());\n\n        uint256 startTime = _getStakerStartTime(_staker);\n        return startTime;\n    }\n\n    /**\n     * @dev Gets staker staking time elapsed in seconds\n     */\n    function getMyStakingTimeElapsed() external view returns (uint256) {\n        Staker memory _staker = _getStaker(_msgSender());\n\n        uint256 timeElapsed = _getStakerTimeElapsed(_staker);\n        return timeElapsed;\n    }\n\n    /**\n     * @dev Get the staker distributed profit from staking tokens\n     */\n    function getMyStakingProfit() external view returns (uint256) {\n        Staker memory _staker = _getStaker(_msgSender());\n\n        return _staker.reward;\n    }\n\n    /**\n     * @dev Get the staker distributed profit from staking tokens\n     */\n    function getMyStakingTotalProfit() external view returns (uint256) {\n        Staker memory _staker = _getStaker(_msgSender());\n\n        return _staker.totalReward;\n    }\n\n    /**\n     * @dev Calculate staker daily average\n     */\n    function getMyAverage() external view returns (uint256) {\n        Staker memory _staker = _getStaker(_msgSender());\n        uint256 _since = block.timestamp - rollingDay;\n\n        return _getAverage(_staker, _since);\n    }\n\n    ///////////////////////// PRIVATE /////////////////////////\n    /**\n     * @dev Gets staker start time\n     * @param _staker | the staker\n     */\n    function _getStakerStartTime(\n        Staker memory _staker\n    ) private pure returns (uint256) {\n        return _staker.startTime;\n    }\n\n    function _getStakerTimeElapsed(\n        Staker memory _staker\n    ) private view returns (uint256) {\n        if (_staker.startTime == 0) {\n            return 0;\n        }\n        return block.timestamp - _staker.startTime;\n    }\n\n    /**\n     * @dev Checks if an address is blacklisted or not\n     * @param _address | the address to check\n     */\n    function _isBlacklist(address _address) private view returns (bool) {\n        for (uint256 i = 0; i < _blacklist.length; i++) {\n            if (_blacklist[i] == _address) {\n                return true;\n            }\n        }\n\n        return false;\n    }\n\n    /**\n     * @dev Calculating average amount from a specified time til now\n     * @param since | start time to start calculating average from\n     */\n    function _getAverage(\n        Staker memory _staker,\n        uint256 since\n    ) private view returns (uint256) {\n        uint256 startBalance = _getAmountAt(_staker, since);\n        if (startBalance == 0) {\n            return 0;\n        }\n\n        uint256 lastUpdatedAt = since;\n        uint256 lastAmount = startBalance;\n        uint256 sum = 0;\n\n        for (uint256 i = 0; i < _staker.transactions.length; i++) {\n            StakeTransaction memory txn = _staker.transactions[i];\n            if (txn.updatedAt <= since) {\n                continue;\n            }\n\n            uint256 period = txn.updatedAt - lastUpdatedAt;\n            sum += lastAmount * (period / 86400);\n\n            lastUpdatedAt = txn.updatedAt;\n            lastAmount = txn.amount;\n        }\n\n        uint256 remainedPeriod = block.timestamp - lastUpdatedAt;\n        sum += lastAmount * (remainedPeriod / 86400);\n\n        uint256 average = sum / ((block.timestamp - since) / 86400);\n        return average;\n    }\n\n    /**\n     * @dev Get the staked amount of a staker at a specified time\n     */\n    function _getAmountAt(\n        Staker memory _staker,\n        uint256 at\n    ) private pure returns (uint256) {\n        uint256 amount = 0;\n        for (uint256 i = 0; i < _staker.transactions.length; i++) {\n            StakeTransaction memory txn = _staker.transactions[i];\n\n            if (txn.updatedAt <= at) {\n                amount = txn.amount;\n            } else {\n                break;\n            }\n        }\n\n        return amount;\n    }\n\n    /**\n     * @dev Get staker data from storage\n     * @param _stakerAddress the address of staker to get information\n     */\n    function _getStaker(\n        address _stakerAddress\n    ) private view returns (Staker storage) {\n        Staker storage staker = _stakers[_stakerAddress];\n\n        return staker;\n    }\n\n    /**\n     * @dev Distribute reward amoung holders\n     * @param _since | start time for calculations\n     */\n    function _distributeReward(uint256 _since) private {\n        uint256 totalAverages = _calculateTotalRates(_since);\n        uint256 totalAmount = 0;\n        for (uint256 i; i < _stakersIndex.length; i++) {\n            if (_stakersIndex[i] == address(0x0)) {\n                continue;\n            }\n\n            Staker storage _staker = _getStaker(_stakersIndex[i]);\n            if (!_staker.isValid) {\n                continue;\n            }\n\n            if (_staker.startTime > _since) {\n                continue;\n            }\n\n            uint256 average = _getAverage(_staker, _since);\n            if (average == 0) {\n                continue;\n            }\n\n            uint256 reward = (rewardTreasury * average) / totalAverages;\n            totalAmount += reward;\n\n            _staker.reward += reward;\n            _staker.totalReward += reward;\n        }\n\n        rewardTreasury -= totalAmount;\n        emit RewardDistributed(totalAmount);\n    }\n\n    /**\n     * @dev Calculates total rates of eligible stakers\n     * @param _since | start time for calculating total rates\n     */\n    function _calculateTotalRates(\n        uint256 _since\n    ) private view returns (uint256) {\n        uint256 totalRates;\n        for (uint256 i = 0; i < _stakersIndex.length; i++) {\n            if (_stakersIndex[i] == address(0x0)) {\n                continue;\n            }\n\n            Staker memory _staker = _getStaker(_stakersIndex[i]);\n            if (!_staker.isValid) {\n                continue;\n            }\n\n            if (_staker.startTime > _since) {\n                continue;\n            }\n\n            uint256 average = _getAverage(_staker, _since);\n            if (average == 0) {\n                continue;\n            }\n\n            totalRates += average;\n        }\n\n        return totalRates;\n    }\n}\n",
  "sourcePath": "/home/behnam/Files/Repos/breakout/bitToken/BitToken-contracts/contracts/TokenStaking.sol",
  "compiler": {
    "name": "solc",
    "version": "0.8.23+commit.f704f362.Emscripten.clang"
  },
  "schemaVersion": "3.4.16",
  "updatedAt": "2023-12-10T17:45:51.758Z",
  "networkType": "ethereum",
  "devdoc": {
    "details": "An smart contract for staking any ERC20 token",
    "kind": "dev",
    "methods": {
      "addReward(uint256)": {
        "details": "Increasing reward treasury by transferring tokens to the contract",
        "params": {
          "_amount": "| the amount of tokens to be transferred to the contract"
        }
      },
      "addToBlacklist(address)": {
        "details": "Adds an address to blacklist",
        "params": {
          "_address": "| the address to be added to blacklist"
        }
      },
      "claimReward(uint256,address)": {
        "details": "Withdraws specified amount of staked amount, transfer tokens to sender",
        "params": {
          "_amount": "| the amount of token to withdraw in token unit e.g. 200 * 10**18",
          "_to": "| the address to which reward will be transferred"
        }
      },
      "constructor": {
        "details": "Constructor sets the ERC20 token that can be used for staking"
      },
      "distributeReward()": {
        "details": "Distributes rewards collected in reward treasury between eligible stakers"
      },
      "getBlacklist()": {
        "details": "Get all blacklisted addresses"
      },
      "getMyAverage()": {
        "details": "Calculate staker daily average"
      },
      "getMyCurrentStakedAmount()": {
        "details": "Gets sender current staked amount"
      },
      "getMyStakedAmount(uint256)": {
        "details": "Gets staker staked amont at specified time",
        "params": {
          "at": "| the time to return staked amount at"
        }
      },
      "getMyStakingProfit()": {
        "details": "Get the staker distributed profit from staking tokens"
      },
      "getMyStakingStartTime()": {
        "details": "Gets staker start timestamp"
      },
      "getMyStakingTimeElapsed()": {
        "details": "Gets staker staking time elapsed in seconds"
      },
      "getMyStakingTotalProfit()": {
        "details": "Get the staker distributed profit from staking tokens"
      },
      "getMyStakingValidity()": {
        "details": "Gets the validity status of the staking."
      },
      "getTotalRates()": {
        "details": "Calculates total rates of eligible stakers"
      },
      "owner()": {
        "details": "Returns the address of the current owner."
      },
      "removeFromBlacklist(address)": {
        "details": "Adds an address to blacklist",
        "params": {
          "_address": "| the address to be added to blacklist"
        }
      },
      "renounceOwnership()": {
        "details": "Leaves the contract without owner. It will not be possible to call `onlyOwner` functions anymore. Can only be called by the current owner. NOTE: Renouncing ownership will leave the contract without an owner, thereby removing any functionality that is only available to the owner."
      },
      "setMinStakingAmount(uint256)": {
        "details": "Sets the minimum amount a staker is allowed to satke",
        "params": {
          "_minStakingAmount": "| the amount in token unit e.g. 500 * 10**18"
        }
      },
      "setRollingDay(uint256)": {
        "details": "Sets rolling day that is used to calculate average",
        "params": {
          "_rollingDay": "| the rolling day in seconds e.g. 7 * 24 * 60 * 60 = 604800 seconds"
        }
      },
      "stake(uint256)": {
        "details": "Stakes tokens & transfers them to the contract",
        "params": {
          "_amount": "| the amount of tokens to be staked"
        }
      },
      "transferOwnership(address)": {
        "details": "Transfers ownership of the contract to a new account (`newOwner`). Can only be called by the current owner."
      },
      "unstake(uint256)": {
        "details": "Withdraws specified amount of staked amount, transfer tokens to sender",
        "params": {
          "_amount": "| the amount of token to withdraw in token unit e.g. 200 * 10**18"
        }
      }
    },
    "version": 1
  },
  "userdoc": {
    "kind": "user",
    "methods": {},
    "version": 1
  }
}