{
  "contractName": "Utils",
  "abi": [
    {
      "inputs": [
        {
          "internalType": "uint256",
          "name": "_stakingPlan",
          "type": "uint256"
        }
      ],
      "name": "isStakingPlanValid",
      "outputs": [
        {
          "internalType": "bool",
          "name": "",
          "type": "bool"
        }
      ],
      "stateMutability": "pure",
      "type": "function",
      "constant": true
    }
  ],
  "bytecode": "0x610159610053600b82828239805160001a607314610046577f4e487b7100000000000000000000000000000000000000000000000000000000600052600060045260246000fd5b30600052607381538281f3fe73000000000000000000000000000000000000000030146080604052600436106100355760003560e01c806353d9ce1e1461003a575b600080fd5b610054600480360381019061004f91906100c0565b61006a565b6040516100619190610108565b60405180910390f35b60008160011115801561007e575060038211155b9050919050565b600080fd5b6000819050919050565b61009d8161008a565b81146100a857600080fd5b50565b6000813590506100ba81610094565b92915050565b6000602082840312156100d6576100d5610085565b5b60006100e4848285016100ab565b91505092915050565b60008115159050919050565b610102816100ed565b82525050565b600060208201905061011d60008301846100f9565b9291505056fea2646970667358221220e3914dcb04702270156ad4807428d738fddd16ffaab6cf1ceff8128eaf09c79964736f6c63430008130033",
  "immutableReferences": {},
  "source": "// SPDX-License-Identifier: MIT\npragma solidity ^0.8.0;\n\n/**\n *@dev A set of tools\n * */\nlibrary Utils {\n    /**\n     * @dev this function allows us to specify diferrent time units e.g. minutes, days, etc.\n     */\n    function _timeUnit() private pure returns (uint256) {\n        return 1 minutes;\n    }\n\n    /**\n     * @dev staking plan is just a number and the actual staking duration is defined here\n     * @param _stakingPlan The index of plan e.g. 1, 2, or 3\n     */\n    function _stakingDuration(\n        uint256 _stakingPlan\n    ) private pure returns (uint256) {\n        if (_stakingPlan == 1) {\n            return 1;\n        } else if (_stakingPlan == 2) {\n            return 5;\n        } else if (_stakingPlan == 3) {\n            return 10;\n        }\n\n        revert();\n    }\n\n    /**\n     * @dev The staking reward percentage will be defined here\n     * @param _stakingPlan the index of staking plan\n     */\n    function _stakingRewardPercentage(\n        uint256 _stakingPlan\n    ) private pure returns (uint256) {\n        if (_stakingPlan == 1) {\n            return 1;\n        } else if (_stakingPlan == 2) {\n            return 5;\n        } else if (_stakingPlan == 3) {\n            return 10;\n        }\n\n        revert();\n    }\n\n    /**\n     * @dev we only allows the defined indexes for staking plans\n     * @param _stakingPlan the index number of plan\n     */\n    function isStakingPlanValid(\n        uint256 _stakingPlan\n    ) public pure returns (bool) {\n        return 1 <= _stakingPlan && _stakingPlan <= 3;\n    }\n\n    /**\n     * @dev This function allows us to convert an staking plan to duration\n     *      duration is a unit of time e.g. 1 days, 2 days, etc. in seconds\n     * @param _stakingPlan the index number of plan\n     */\n    function convertPlanToDuration(\n        uint256 _stakingPlan\n    ) internal pure returns (uint256) {\n        return _stakingDuration(_stakingPlan) * _timeUnit();\n    }\n\n    /**\n     * @dev Gets block timestamp and calculates the staking time elapsed in seconds\n     * @param blockTimeStamp block timestamp to calculate time elapsed\n     * @param stakingStartTime Start time of staking in seconds\n     */\n    function calculateTimeElapsed(\n        uint256 blockTimeStamp,\n        uint256 stakingStartTime\n    ) internal pure returns (uint256) {\n        uint256 _duration = blockTimeStamp - stakingStartTime;\n        return _duration;\n    }\n\n    /**\n     * @dev Calculates the reward percentage based on staking time elapsed\n     * @param _timeElapsed The staking time elapsed in seconds\n     */\n    function calculateRewardPercentage(\n        uint256 _timeElapsed\n    ) private pure returns (uint256) {\n        if (_timeElapsed >= _stakingDuration(3) * _timeUnit()) {\n            return _stakingRewardPercentage(3);\n        } else if (_timeElapsed >= _stakingDuration(2) * _timeUnit()) {\n            return _stakingRewardPercentage(2);\n        } else if (_timeElapsed >= _stakingDuration(1) * _timeUnit()) {\n            return _stakingRewardPercentage(1);\n        }\n\n        revert();\n    }\n\n    /**\n     * @dev Calculates reward amount based on reward percentage and staked amount\n     * @param _stakedAmount The staker staked amount\n     * @param _rewardPercentage The calculated reward percentage\n     */\n    function calculateRewardAmount(\n        uint256 _stakedAmount,\n        uint256 _rewardPercentage\n    ) private pure returns (uint256) {\n        uint256 reward = (_stakedAmount * _rewardPercentage) / 100;\n\n        return reward;\n    }\n\n    /**\n     * @dev Calculates the reward based on time elapsed and staked amount.\n     * @param _timeElapsed The staking time elapsed\n     * @param _stakedAmount The staked amount\n     */\n    function calculateReward(\n        uint256 _timeElapsed,\n        uint256 _stakedAmount\n    ) internal pure returns (uint256) {\n        uint256 _rewardPercentage = calculateRewardPercentage(_timeElapsed);\n        uint256 _rewardAmount = calculateRewardAmount(\n            _stakedAmount,\n            _rewardPercentage\n        );\n\n        return _rewardAmount;\n    }\n}\n",
  "sourcePath": "/home/behnam/Repos/Wadi/SmartContracts/Erc20TokenStaking/contracts/Utils.sol",
  "compiler": {
    "name": "solc",
    "version": "0.8.19+commit.7dd6d404.Emscripten.clang"
  },
  "schemaVersion": "3.4.13",
  "updatedAt": "2023-05-02T09:28:12.523Z",
  "networkType": "ethereum",
  "devdoc": {
    "details": "A set of tools ",
    "kind": "dev",
    "methods": {
      "isStakingPlanValid(uint256)": {
        "details": "we only allows the defined indexes for staking plans",
        "params": {
          "_stakingPlan": "the index number of plan"
        }
      }
    },
    "version": 1
  },
  "userdoc": {
    "kind": "user",
    "methods": {},
    "version": 1
  }
}